{
  "_format": "hh-sol-artifact-1",
  "contractName": "MoneyBoxManager",
  "sourceName": "contracts/MoneyBoxManager.sol",
  "abi": [
    {
      "anonymous": false,
      "inputs": [
        {
          "indexed": false,
          "internalType": "string",
          "name": "id",
          "type": "string"
        },
        {
          "indexed": false,
          "internalType": "address payable",
          "name": "sellerAddress",
          "type": "address"
        },
        {
          "indexed": false,
          "internalType": "address payable",
          "name": "ownerAddress",
          "type": "address"
        },
        {
          "indexed": true,
          "internalType": "uint256",
          "name": "amount",
          "type": "uint256"
        },
        {
          "indexed": true,
          "internalType": "uint256",
          "name": "timestamp",
          "type": "uint256"
        },
        {
          "indexed": true,
          "internalType": "enum OrderManager.OrderState",
          "name": "state",
          "type": "uint8"
        }
      ],
      "name": "ItemReceived",
      "type": "event"
    },
    {
      "anonymous": false,
      "inputs": [
        {
          "indexed": false,
          "internalType": "string",
          "name": "moneybox_id",
          "type": "string"
        },
        {
          "indexed": false,
          "internalType": "uint256",
          "name": "fee_amount",
          "type": "uint256"
        },
        {
          "indexed": false,
          "internalType": "address",
          "name": "owner",
          "type": "address"
        },
        {
          "indexed": false,
          "internalType": "uint256",
          "name": "timestamp",
          "type": "uint256"
        }
      ],
      "name": "NewPaymentCreated",
      "type": "event"
    },
    {
      "anonymous": false,
      "inputs": [
        {
          "indexed": false,
          "internalType": "string",
          "name": "id",
          "type": "string"
        },
        {
          "indexed": false,
          "internalType": "address payable",
          "name": "sellerAddress",
          "type": "address"
        },
        {
          "indexed": false,
          "internalType": "address payable",
          "name": "ownerAddress",
          "type": "address"
        },
        {
          "indexed": true,
          "internalType": "uint256",
          "name": "amount",
          "type": "uint256"
        },
        {
          "indexed": true,
          "internalType": "uint256",
          "name": "timestamp",
          "type": "uint256"
        },
        {
          "indexed": true,
          "internalType": "enum OrderManager.OrderState",
          "name": "state",
          "type": "uint8"
        }
      ],
      "name": "OrderConfirmed",
      "type": "event"
    },
    {
      "anonymous": false,
      "inputs": [
        {
          "indexed": false,
          "internalType": "string",
          "name": "id",
          "type": "string"
        },
        {
          "indexed": false,
          "internalType": "address payable",
          "name": "sellerAddress",
          "type": "address"
        },
        {
          "indexed": false,
          "internalType": "address payable",
          "name": "ownerAddress",
          "type": "address"
        },
        {
          "indexed": true,
          "internalType": "uint256",
          "name": "amount",
          "type": "uint256"
        },
        {
          "indexed": true,
          "internalType": "uint256",
          "name": "timestamp",
          "type": "uint256"
        },
        {
          "indexed": true,
          "internalType": "enum OrderManager.OrderState",
          "name": "state",
          "type": "uint8"
        }
      ],
      "name": "OrderCreated",
      "type": "event"
    },
    {
      "anonymous": false,
      "inputs": [
        {
          "indexed": false,
          "internalType": "string",
          "name": "id",
          "type": "string"
        },
        {
          "indexed": false,
          "internalType": "address payable",
          "name": "sellerAddress",
          "type": "address"
        },
        {
          "indexed": false,
          "internalType": "address payable",
          "name": "ownerAddress",
          "type": "address"
        },
        {
          "indexed": true,
          "internalType": "uint256",
          "name": "amount",
          "type": "uint256"
        },
        {
          "indexed": true,
          "internalType": "uint256",
          "name": "timestamp",
          "type": "uint256"
        },
        {
          "indexed": true,
          "internalType": "enum OrderManager.OrderState",
          "name": "state",
          "type": "uint8"
        }
      ],
      "name": "OwnerRefunded",
      "type": "event"
    },
    {
      "inputs": [],
      "name": "STABLECOIN",
      "outputs": [
        {
          "internalType": "address",
          "name": "",
          "type": "address"
        }
      ],
      "stateMutability": "view",
      "type": "function"
    },
    {
      "inputs": [],
      "name": "WFTM",
      "outputs": [
        {
          "internalType": "address",
          "name": "",
          "type": "address"
        }
      ],
      "stateMutability": "view",
      "type": "function"
    },
    {
      "inputs": [
        {
          "internalType": "string",
          "name": "id",
          "type": "string"
        },
        {
          "internalType": "uint256",
          "name": "_unlockCode",
          "type": "uint256"
        }
      ],
      "name": "confirmReceived",
      "outputs": [],
      "stateMutability": "nonpayable",
      "type": "function"
    },
    {
      "inputs": [],
      "name": "contractBalance",
      "outputs": [
        {
          "internalType": "uint256",
          "name": "",
          "type": "uint256"
        }
      ],
      "stateMutability": "view",
      "type": "function"
    },
    {
      "inputs": [
        {
          "internalType": "contract OrderManager",
          "name": "superContract",
          "type": "address"
        },
        {
          "internalType": "address",
          "name": "_buyerAddress",
          "type": "address"
        }
      ],
      "name": "getAllBuyerOrders",
      "outputs": [
        {
          "components": [
            {
              "internalType": "string",
              "name": "id",
              "type": "string"
            },
            {
              "components": [
                {
                  "internalType": "address payable",
                  "name": "sellerAddress",
                  "type": "address"
                },
                {
                  "internalType": "address payable",
                  "name": "ownerAddress",
                  "type": "address"
                },
                {
                  "internalType": "uint256",
                  "name": "amount",
                  "type": "uint256"
                },
                {
                  "internalType": "uint256",
                  "name": "unlockCode",
                  "type": "uint256"
                },
                {
                  "internalType": "uint256",
                  "name": "timestamp",
                  "type": "uint256"
                },
                {
                  "internalType": "enum OrderManager.OrderState",
                  "name": "state",
                  "type": "uint8"
                }
              ],
              "internalType": "struct OrderManager.Order",
              "name": "order",
              "type": "tuple"
            }
          ],
          "internalType": "struct OrderManager.OrderTuple[]",
          "name": "",
          "type": "tuple[]"
        }
      ],
      "stateMutability": "view",
      "type": "function"
    },
    {
      "inputs": [
        {
          "internalType": "contract OrderManager",
          "name": "superContract",
          "type": "address"
        },
        {
          "internalType": "address",
          "name": "_sellerAddress",
          "type": "address"
        }
      ],
      "name": "getAllSellerOrders",
      "outputs": [
        {
          "components": [
            {
              "internalType": "string",
              "name": "id",
              "type": "string"
            },
            {
              "components": [
                {
                  "internalType": "address payable",
                  "name": "sellerAddress",
                  "type": "address"
                },
                {
                  "internalType": "address payable",
                  "name": "ownerAddress",
                  "type": "address"
                },
                {
                  "internalType": "uint256",
                  "name": "amount",
                  "type": "uint256"
                },
                {
                  "internalType": "uint256",
                  "name": "unlockCode",
                  "type": "uint256"
                },
                {
                  "internalType": "uint256",
                  "name": "timestamp",
                  "type": "uint256"
                },
                {
                  "internalType": "enum OrderManager.OrderState",
                  "name": "state",
                  "type": "uint8"
                }
              ],
              "internalType": "struct OrderManager.Order",
              "name": "order",
              "type": "tuple"
            }
          ],
          "internalType": "struct OrderManager.OrderTuple[]",
          "name": "",
          "type": "tuple[]"
        }
      ],
      "stateMutability": "view",
      "type": "function"
    },
    {
      "inputs": [
        {
          "internalType": "string",
          "name": "id",
          "type": "string"
        }
      ],
      "name": "getAmountToFill",
      "outputs": [
        {
          "internalType": "uint256",
          "name": "",
          "type": "uint256"
        }
      ],
      "stateMutability": "view",
      "type": "function"
    },
    {
      "inputs": [
        {
          "internalType": "string",
          "name": "id",
          "type": "string"
        }
      ],
      "name": "getAmountToPay",
      "outputs": [
        {
          "internalType": "uint256",
          "name": "",
          "type": "uint256"
        }
      ],
      "stateMutability": "view",
      "type": "function"
    },
    {
      "inputs": [
        {
          "internalType": "string",
          "name": "id",
          "type": "string"
        }
      ],
      "name": "getMoneyBoxPayments",
      "outputs": [
        {
          "components": [
            {
              "internalType": "address payable",
              "name": "from",
              "type": "address"
            },
            {
              "internalType": "uint256",
              "name": "amount",
              "type": "uint256"
            },
            {
              "internalType": "uint256",
              "name": "timestamp",
              "type": "uint256"
            }
          ],
          "internalType": "struct MoneyBoxManager.Payment[]",
          "name": "",
          "type": "tuple[]"
        }
      ],
      "stateMutability": "view",
      "type": "function"
    },
    {
      "inputs": [
        {
          "internalType": "address",
          "name": "participantAddress",
          "type": "address"
        }
      ],
      "name": "getMoneyBoxesByParticipantAddress",
      "outputs": [
        {
          "components": [
            {
              "internalType": "string",
              "name": "id",
              "type": "string"
            },
            {
              "components": [
                {
                  "internalType": "address payable",
                  "name": "sellerAddress",
                  "type": "address"
                },
                {
                  "internalType": "address payable",
                  "name": "ownerAddress",
                  "type": "address"
                },
                {
                  "internalType": "uint256",
                  "name": "amount",
                  "type": "uint256"
                },
                {
                  "internalType": "uint256",
                  "name": "unlockCode",
                  "type": "uint256"
                },
                {
                  "internalType": "uint256",
                  "name": "timestamp",
                  "type": "uint256"
                },
                {
                  "internalType": "enum OrderManager.OrderState",
                  "name": "state",
                  "type": "uint8"
                }
              ],
              "internalType": "struct OrderManager.Order",
              "name": "order",
              "type": "tuple"
            }
          ],
          "internalType": "struct OrderManager.OrderTuple[]",
          "name": "",
          "type": "tuple[]"
        }
      ],
      "stateMutability": "view",
      "type": "function"
    },
    {
      "inputs": [
        {
          "internalType": "string",
          "name": "id",
          "type": "string"
        }
      ],
      "name": "getOrderById",
      "outputs": [
        {
          "components": [
            {
              "internalType": "address payable",
              "name": "sellerAddress",
              "type": "address"
            },
            {
              "internalType": "address payable",
              "name": "ownerAddress",
              "type": "address"
            },
            {
              "internalType": "uint256",
              "name": "amount",
              "type": "uint256"
            },
            {
              "internalType": "uint256",
              "name": "unlockCode",
              "type": "uint256"
            },
            {
              "internalType": "uint256",
              "name": "timestamp",
              "type": "uint256"
            },
            {
              "internalType": "enum OrderManager.OrderState",
              "name": "state",
              "type": "uint8"
            }
          ],
          "internalType": "struct OrderManager.Order",
          "name": "",
          "type": "tuple"
        }
      ],
      "stateMutability": "view",
      "type": "function"
    },
    {
      "inputs": [],
      "name": "getOrderCount",
      "outputs": [
        {
          "internalType": "uint256",
          "name": "",
          "type": "uint256"
        }
      ],
      "stateMutability": "view",
      "type": "function"
    },
    {
      "inputs": [
        {
          "internalType": "string",
          "name": "id",
          "type": "string"
        }
      ],
      "name": "getOrderState",
      "outputs": [
        {
          "internalType": "enum OrderManager.OrderState",
          "name": "",
          "type": "uint8"
        }
      ],
      "stateMutability": "view",
      "type": "function"
    },
    {
      "inputs": [
        {
          "internalType": "address",
          "name": "_buyerAddress",
          "type": "address"
        }
      ],
      "name": "getOrdersByBuyer",
      "outputs": [
        {
          "components": [
            {
              "internalType": "string",
              "name": "id",
              "type": "string"
            },
            {
              "components": [
                {
                  "internalType": "address payable",
                  "name": "sellerAddress",
                  "type": "address"
                },
                {
                  "internalType": "address payable",
                  "name": "ownerAddress",
                  "type": "address"
                },
                {
                  "internalType": "uint256",
                  "name": "amount",
                  "type": "uint256"
                },
                {
                  "internalType": "uint256",
                  "name": "unlockCode",
                  "type": "uint256"
                },
                {
                  "internalType": "uint256",
                  "name": "timestamp",
                  "type": "uint256"
                },
                {
                  "internalType": "enum OrderManager.OrderState",
                  "name": "state",
                  "type": "uint8"
                }
              ],
              "internalType": "struct OrderManager.Order",
              "name": "order",
              "type": "tuple"
            }
          ],
          "internalType": "struct OrderManager.OrderTuple[]",
          "name": "",
          "type": "tuple[]"
        }
      ],
      "stateMutability": "view",
      "type": "function"
    },
    {
      "inputs": [
        {
          "internalType": "address",
          "name": "_sellerAddress",
          "type": "address"
        }
      ],
      "name": "getOrdersBySeller",
      "outputs": [
        {
          "components": [
            {
              "internalType": "string",
              "name": "id",
              "type": "string"
            },
            {
              "components": [
                {
                  "internalType": "address payable",
                  "name": "sellerAddress",
                  "type": "address"
                },
                {
                  "internalType": "address payable",
                  "name": "ownerAddress",
                  "type": "address"
                },
                {
                  "internalType": "uint256",
                  "name": "amount",
                  "type": "uint256"
                },
                {
                  "internalType": "uint256",
                  "name": "unlockCode",
                  "type": "uint256"
                },
                {
                  "internalType": "uint256",
                  "name": "timestamp",
                  "type": "uint256"
                },
                {
                  "internalType": "enum OrderManager.OrderState",
                  "name": "state",
                  "type": "uint8"
                }
              ],
              "internalType": "struct OrderManager.Order",
              "name": "order",
              "type": "tuple"
            }
          ],
          "internalType": "struct OrderManager.OrderTuple[]",
          "name": "",
          "type": "tuple[]"
        }
      ],
      "stateMutability": "view",
      "type": "function"
    },
    {
      "inputs": [
        {
          "internalType": "string",
          "name": "id",
          "type": "string"
        }
      ],
      "name": "getOwnerAddress",
      "outputs": [
        {
          "internalType": "address",
          "name": "",
          "type": "address"
        }
      ],
      "stateMutability": "view",
      "type": "function"
    },
    {
      "inputs": [
        {
          "internalType": "string",
          "name": "id",
          "type": "string"
        }
      ],
      "name": "getSellerAddress",
      "outputs": [
        {
          "internalType": "address",
          "name": "",
          "type": "address"
        }
      ],
      "stateMutability": "view",
      "type": "function"
    },
    {
      "inputs": [
        {
          "internalType": "string",
          "name": "id",
          "type": "string"
        }
      ],
      "name": "getUnlockCode",
      "outputs": [
        {
          "internalType": "uint256",
          "name": "",
          "type": "uint256"
        }
      ],
      "stateMutability": "view",
      "type": "function"
    },
    {
      "inputs": [
        {
          "internalType": "address payable",
          "name": "_seller",
          "type": "address"
        },
        {
          "internalType": "uint256",
          "name": "_amountIn",
          "type": "uint256"
        },
        {
          "internalType": "uint256[]",
          "name": "_amountOut",
          "type": "uint256[]"
        },
        {
          "internalType": "string",
          "name": "_orderId",
          "type": "string"
        }
      ],
      "name": "newOrder",
      "outputs": [],
      "stateMutability": "payable",
      "type": "function"
    },
    {
      "inputs": [
        {
          "internalType": "string",
          "name": "moneyBoxId",
          "type": "string"
        },
        {
          "internalType": "uint256",
          "name": "_amountIn",
          "type": "uint256"
        },
        {
          "internalType": "uint256",
          "name": "_amountOut",
          "type": "uint256"
        }
      ],
      "name": "newPayment",
      "outputs": [],
      "stateMutability": "payable",
      "type": "function"
    },
    {
      "inputs": [],
      "name": "owner",
      "outputs": [
        {
          "internalType": "address",
          "name": "",
          "type": "address"
        }
      ],
      "stateMutability": "view",
      "type": "function"
    },
    {
      "inputs": [
        {
          "internalType": "string",
          "name": "id",
          "type": "string"
        }
      ],
      "name": "refund",
      "outputs": [],
      "stateMutability": "nonpayable",
      "type": "function"
    },
    {
      "inputs": [],
      "name": "uniswapV2Router",
      "outputs": [
        {
          "internalType": "contract IUniswapV2Router02",
          "name": "",
          "type": "address"
        }
      ],
      "stateMutability": "view",
      "type": "function"
    }
  ],
  "bytecode": "0x60e06040527fa6ad18c2ac47803e193f75c3677b14bf19b948830000000000000000000000006080527ff1277d1ed8ad466beddf92ef448a13266195662100000000000000000000000060a052600080546001600160a01b03191673a70a572aa5489a5cdd0daa3bf0cf440a92f5040217815560035534801561008157600080fd5b503360601b60c05260805160601c60a05160601c60c05160601c6130336100cf60003960006114bf01526000818161066d01526117850152600081816105e9015261182c01526130336000f3fe6080604052600436106101405760003560e01c80638b7afe2e116100b6578063a0e68d1b1161006f578063a0e68d1b14610355578063afe7168f14610368578063bc6fea7114610388578063be3ac64b146103a8578063c5df16a0146103d5578063fe5f2e881461040257610140565b80638b7afe2e146102b45780638d0a5fbb146102c95780638da5cb5b146102de5780638fbf1370146102f3578063902947a11461031357806393a397761461034057610140565b806321dbe8761161010857806321dbe8761461020a5780632d902ce81461021f5780633a875a431461023f5780633dfaf3091461025f57806355b0f927146102745780637a202cc11461029457610140565b8063032e7411146101455780630e09e46a1461017b5780631694505e1461019b5780631cf708d4146101bd5780631d170e7c146101ea575b600080fd5b34801561015157600080fd5b50610165610160366004612790565b610422565b6040516101729190612a28565b60405180910390f35b34801561018757600080fd5b50610165610196366004612790565b61053a565b3480156101a757600080fd5b506101b06105e7565b60405161017291906129fb565b3480156101c957600080fd5b506101dd6101d83660046127c8565b61060b565b6040516101729190612e13565b3480156101f657600080fd5b506101b06102053660046127c8565b610636565b34801561021657600080fd5b506101b061066b565b34801561022b57600080fd5b506101dd61023a3660046127c8565b61068f565b34801561024b57600080fd5b5061016561025a3660046124cc565b610810565b61027261026d3660046124ef565b610ae2565b005b34801561028057600080fd5b5061027261028f366004612802565b610e39565b3480156102a057600080fd5b506101656102af3660046124cc565b6111e8565b3480156102c057600080fd5b506101dd6114b3565b3480156102d557600080fd5b506101dd6114b7565b3480156102ea57600080fd5b506101b06114bd565b3480156102ff57600080fd5b506101b061030e3660046127c8565b6114e1565b34801561031f57600080fd5b5061033361032e3660046127c8565b611513565b6040516101729190612aa8565b34801561034c57600080fd5b506101b06115b3565b610272610363366004612844565b6115c2565b34801561037457600080fd5b506101656103833660046124cc565b6119a3565b34801561039457600080fd5b506101dd6103a33660046127c8565b611c6e565b3480156103b457600080fd5b506103c86103c33660046127c8565b611c99565b6040516101729190612b0a565b3480156103e157600080fd5b506103f56103f03660046127c8565b611cc8565b6040516101729190612e05565b34801561040e57600080fd5b5061027261041d3660046127c8565b611d8a565b60606000836001600160a01b0316637a202cc1846040518263ffffffff1660e01b815260040161045291906129fb565b60006040518083038186803b15801561046a57600080fd5b505afa15801561047e573d6000803e3d6000fd5b505050506040513d6000823e601f3d908101601f191682016040526104a691908101906125c3565b604051637a202cc160e01b81529091506000903090637a202cc1906104cf9087906004016129fb565b60006040518083038186803b1580156104e757600080fd5b505afa1580156104fb573d6000803e3d6000fd5b505050506040513d6000823e601f3d908101601f1916820160405261052391908101906125c3565b905061052f828261218a565b925050505b92915050565b60606000836001600160a01b0316633a875a43846040518263ffffffff1660e01b815260040161056a91906129fb565b60006040518083038186803b15801561058257600080fd5b505afa158015610596573d6000803e3d6000fd5b505050506040513d6000823e601f3d908101601f191682016040526105be91908101906125c3565b604051633a875a4360e01b81529091506000903090633a875a43906104cf9087906004016129fb565b7f000000000000000000000000000000000000000000000000000000000000000081565b600060048260405161061d9190612944565b9081526020016040518091039020600301549050919050565b60006004826040516106489190612944565b908152604051908190036020019020600101546001600160a01b03169050919050565b7f000000000000000000000000000000000000000000000000000000000000000081565b60405163bc6fea7160e01b81526000908190309063bc6fea71906106b7908690600401612b18565b60206040518083038186803b1580156106cf57600080fd5b505afa1580156106e3573d6000803e3d6000fd5b505050506040513d601f19601f82011682018060405250810190610707919061288f565b905060008060058560405161071c9190612944565b9081526020016040518091039020805480602002602001604051908101604052809291908181526020016000905b8282101561079f576000848152602090819020604080516060810182526003860290920180546001600160a01b031683526001808201548486015260029091015491830191909152908352909201910161074a565b50505050905060005b81518110156107fc578181815181106107d157634e487b7160e01b600052603260045260246000fd5b602002602001015160200151836107e89190612f04565b9250806107f481612f9e565b9150506107a8565b506108078284612f1c565b95945050505050565b6001600160a01b038116600090815260016020526040812054606091906001600160401b0381111561085257634e487b7160e01b600052604160045260246000fd5b60405190808252806020026020018201604052801561088b57816020015b6108786122f4565b8152602001906001900390816108705790505b50905060005b6001600160a01b038416600090815260016020526040902054811015610adb57604051806040016040528060016000876001600160a01b03166001600160a01b03168152602001908152602001600020838154811061090057634e487b7160e01b600052603260045260246000fd5b90600052602060002001805461091590612f63565b80601f016020809104026020016040519081016040528092919081815260200182805461094190612f63565b801561098e5780601f106109635761010080835404028352916020019161098e565b820191906000526020600020905b81548152906001019060200180831161097157829003601f168201915b50505050508152602001600460016000886001600160a01b03166001600160a01b0316815260200190815260200160002084815481106109de57634e487b7160e01b600052603260045260246000fd5b906000526020600020016040516109f59190612960565b90815260408051918290036020908101832060c08401835280546001600160a01b03908116855260018201541691840191909152600281015491830191909152600381015460608301526004808201546080840152600582015460a084019160ff90911690811115610a7757634e487b7160e01b600052602160045260246000fd5b6004811115610a9657634e487b7160e01b600052602160045260246000fd5b81525050815250828281518110610abd57634e487b7160e01b600052603260045260246000fd5b60200260200101819052508080610ad390612f9e565b915050610891565b5092915050565b83336001600160a01b038216811415610b165760405162461bcd60e51b8152600401610b0d90612bbb565b60405180910390fd5b82600481604051610b279190612944565b9081526040519081900360200190206005015460ff166004811115610b5c57634e487b7160e01b600052602160045260246000fd5b15610b795760405162461bcd60e51b8152600401610b0d90612bfe565b60038054906000610b8983612f9e565b91905055506040518060c00160405280886001600160a01b03168152602001336001600160a01b0316815260200186600081518110610bd857634e487b7160e01b600052603260045260246000fd5b6020026020010151815260200143815260200142815260200160016004811115610c1257634e487b7160e01b600052602160045260246000fd5b815250600485604051610c259190612944565b9081526040805160209281900383019020835181546001600160a01b03199081166001600160a01b039283161783559385015160018084018054909616919092161790935590830151600282015560608301516003820155608083015160048083019190915560a084015160058301805493949193909260ff1990911691908490811115610cc357634e487b7160e01b600052602160045260246000fd5b0217905550503360009081526001602081815260408320805492830181558352918290208751610cf99450910191870190612313565b506001600160a01b038716600090815260026020908152604082208054600181018255908352918190208651610d36939190910191870190612313565b503415610dc957306001600160a01b031663a0e68d1b34863489600181518110610d7057634e487b7160e01b600052603260045260246000fd5b60200260200101516040518563ffffffff1660e01b8152600401610d9693929190612b96565b6000604051808303818588803b158015610daf57600080fd5b505af1158015610dc3573d6000803e3d6000fd5b50505050505b60014286600081518110610ded57634e487b7160e01b600052603260045260246000fd5b60200260200101517fc1276e236125b9af609d8f0ea4a3ed23d80d7c5db913c0528a7e8e5dab67308a878b33604051610e2893929190612b2b565b60405180910390a450505050505050565b81336001600160a01b0316600482604051610e549190612944565b908152604051908190036020019020600101546001600160a01b031614610e8d5760405162461bcd60e51b8152600401610b0d90612d6a565b826002600482604051610ea09190612944565b9081526040519081900360200190206005015460ff166004811115610ed557634e487b7160e01b600052602160045260246000fd5b816004811115610ef557634e487b7160e01b600052602160045260246000fd5b14610f125760405162461bcd60e51b8152600401610b0d90612d35565b6000600486604051610f249190612944565b90815260408051918290036020908101832060c08401835280546001600160a01b03908116855260018201541691840191909152600281015491830191909152600381015460608301526004808201546080840152600582015460a084019160ff90911690811115610fa657634e487b7160e01b600052602160045260246000fd5b6004811115610fc557634e487b7160e01b600052602160045260246000fd5b81525050905084816060015114610fee5760405162461bcd60e51b8152600401610b0d90612d08565b6000548151604080840151905163a9059cbb60e01b81526001600160a01b039093169263a9059cbb92611025929091600401612a0f565b602060405180830381600087803b15801561103f57600080fd5b505af1158015611053573d6000803e3d6000fd5b505050506040513d601f19601f820116820180604052508101906110779190612770565b6110935760405162461bcd60e51b8152600401610b0d90612ddb565b600360a082015260405181906004906110ad908990612944565b9081526040805160209281900383019020835181546001600160a01b03199081166001600160a01b039283161783559385015160018084018054909616919092161790935590830151600282015560608301516003820155608083015160048083019190915560a084015160058301805493949193909260ff199091169190849081111561114b57634e487b7160e01b600052602160045260246000fd5b02179055506003915061115b9050565b4260048860405161116c9190612944565b9081526020016040518091039020600201547f92920d559afffc5707482f79beeb2a17d437af72aa691ccd51ccc7c124a419528960048b6040516111b09190612944565b908152604051908190036020018120546111d892916001600160a01b03909116903390612b2b565b60405180910390a4505050505050565b6001600160a01b038116600090815260026020526040812054606091906001600160401b0381111561122a57634e487b7160e01b600052604160045260246000fd5b60405190808252806020026020018201604052801561126357816020015b6112506122f4565b8152602001906001900390816112485790505b50905060005b6001600160a01b038416600090815260026020526040902054811015610adb57604051806040016040528060026000876001600160a01b03166001600160a01b0316815260200190815260200160002083815481106112d857634e487b7160e01b600052603260045260246000fd5b9060005260206000200180546112ed90612f63565b80601f016020809104026020016040519081016040528092919081815260200182805461131990612f63565b80156113665780601f1061133b57610100808354040283529160200191611366565b820191906000526020600020905b81548152906001019060200180831161134957829003601f168201915b50505050508152602001600460026000886001600160a01b03166001600160a01b0316815260200190815260200160002084815481106113b657634e487b7160e01b600052603260045260246000fd5b906000526020600020016040516113cd9190612960565b90815260408051918290036020908101832060c08401835280546001600160a01b03908116855260018201541691840191909152600281015491830191909152600381015460608301526004808201546080840152600582015460a084019160ff9091169081111561144f57634e487b7160e01b600052602160045260246000fd5b600481111561146e57634e487b7160e01b600052602160045260246000fd5b8152505081525082828151811061149557634e487b7160e01b600052603260045260246000fd5b602002602001018190525080806114ab90612f9e565b915050611269565b4790565b60035490565b7f000000000000000000000000000000000000000000000000000000000000000081565b60006004826040516114f39190612944565b908152604051908190036020019020546001600160a01b03169050919050565b60606005826040516115259190612944565b9081526020016040518091039020805480602002602001604051908101604052809291908181526020016000905b828210156115a8576000848152602090819020604080516060810182526003860290920180546001600160a01b0316835260018082015484860152600290910154918301919091529083529092019101611553565b505050509050919050565b6000546001600160a01b031681565b328281318111156115e55760405162461bcd60e51b8152600401610b0d90612daf565b60408051606081018252328152602081018590524281830152905160059061160e908890612944565b90815260408051602092819003830190208054600180820183556000928352848320865160039093020180546001600160a01b0319166001600160a01b0390931692909217825585850151828201558584015160029092019190915532825260068452918120805492830181558152829020885161169493919092019190890190612313565b506040516305b2059d60e31b81526000903090632d902ce8906116bb908a90600401612b18565b60206040518083038186803b1580156116d357600080fd5b505afa1580156116e7573d6000803e3d6000fd5b505050506040513d601f19601f8201168201806040525081019061170b919061288f565b116117625760026004876040516117229190612944565b908152604051908190036020019020600501805460ff1916600183600481111561175c57634e487b7160e01b600052602160045260246000fd5b02179055505b6040805160028082526060820183526000926020830190803683370190505090507f0000000000000000000000000000000000000000000000000000000000000000816000815181106117c557634e487b7160e01b600052603260045260246000fd5b6001600160a01b03928316602091820292909201015260005482519116908290600190811061180457634e487b7160e01b600052603260045260246000fd5b6001600160a01b03928316602091820292909201015260405163fb3bdb4160e01b81526000917f0000000000000000000000000000000000000000000000000000000000000000169063fb3bdb41903490611869908a90879030904290600401612e1c565b6000604051808303818588803b15801561188257600080fd5b505af1158015611896573d6000803e3d6000fd5b50505050506040513d6000823e601f3d908101601f191682016040526118bf91908101906126e1565b905034816000815181106118e357634e487b7160e01b600052603260045260246000fd5b6020026020010151101561195c57326001600160a01b03166108fc8260008151811061191f57634e487b7160e01b600052603260045260246000fd5b6020026020010151346119329190612f1c565b6040518115909202916000818181858888f1935050505015801561195a573d6000803e3d6000fd5b505b7f84af6234059750953635ba8f6a9e20d936433bdb911371a4876783f6231f561f888732426040516119919493929190612b5e565b60405180910390a15050505050505050565b6001600160a01b038116600090815260066020526040812054606091906001600160401b038111156119e557634e487b7160e01b600052604160045260246000fd5b604051908082528060200260200182016040528015611a1e57816020015b611a0b6122f4565b815260200190600190039081611a035790505b50905060005b6001600160a01b038416600090815260066020526040902054811015610adb57604051806040016040528060066000876001600160a01b03166001600160a01b031681526020019081526020016000208381548110611a9357634e487b7160e01b600052603260045260246000fd5b906000526020600020018054611aa890612f63565b80601f0160208091040260200160405190810160405280929190818152602001828054611ad490612f63565b8015611b215780601f10611af657610100808354040283529160200191611b21565b820191906000526020600020905b815481529060010190602001808311611b0457829003601f168201915b50505050508152602001600460066000886001600160a01b03166001600160a01b031681526020019081526020016000208481548110611b7157634e487b7160e01b600052603260045260246000fd5b90600052602060002001604051611b889190612960565b90815260408051918290036020908101832060c08401835280546001600160a01b03908116855260018201541691840191909152600281015491830191909152600381015460608301526004808201546080840152600582015460a084019160ff90911690811115611c0a57634e487b7160e01b600052602160045260246000fd5b6004811115611c2957634e487b7160e01b600052602160045260246000fd5b81525050815250828281518110611c5057634e487b7160e01b600052603260045260246000fd5b60200260200101819052508080611c6690612f9e565b915050611a24565b6000600482604051611c809190612944565b9081526020016040518091039020600201549050919050565b6000600482604051611cab9190612944565b9081526040519081900360200190206005015460ff169050919050565b611cd0612397565b600482604051611ce09190612944565b90815260408051918290036020908101832060c08401835280546001600160a01b03908116855260018201541691840191909152600281015491830191909152600381015460608301526004808201546080840152600582015460a084019160ff90911690811115611d6257634e487b7160e01b600052602160045260246000fd5b6004811115611d8157634e487b7160e01b600052602160045260246000fd5b90525092915050565b80336001600160a01b0316600482604051611da59190612944565b908152604051908190036020019020546001600160a01b03161480611dfd5750336001600160a01b0316600482604051611ddf9190612944565b908152604051908190036020019020600101546001600160a01b0316145b611e195760405162461bcd60e51b8152600401610b0d90612c35565b816003600482604051611e2c9190612944565b9081526040519081900360200190206005015460ff166004811115611e6157634e487b7160e01b600052602160045260246000fd5b14158015611eb3575060048082604051611e7b9190612944565b9081526040519081900360200190206005015460ff166004811115611eb057634e487b7160e01b600052602160045260246000fd5b14155b611ecf5760405162461bcd60e51b8152600401610b0d90612c85565b6000600584604051611ee19190612944565b9081526020016040518091039020805480602002602001604051908101604052809291908181526020016000905b82821015611f64576000848152602090819020604080516060810182526003860290920180546001600160a01b0316835260018082015484860152600290910154918301919091529083529092019101611f0f565b50505050905060005b81518110156120825760005482516001600160a01b039091169063a9059cbb90849084908110611fad57634e487b7160e01b600052603260045260246000fd5b602002602001015160000151848481518110611fd957634e487b7160e01b600052603260045260246000fd5b6020026020010151602001516040518363ffffffff1660e01b8152600401612002929190612a0f565b602060405180830381600087803b15801561201c57600080fd5b505af1158015612030573d6000803e3d6000fd5b505050506040513d601f19601f820116820180604052508101906120549190612770565b6120705760405162461bcd60e51b8152600401610b0d90612ddb565b8061207a81612f9e565b915050611f6d565b50600480856040516120949190612944565b908152604051908190036020019020600501805460ff191660018360048111156120ce57634e487b7160e01b600052602160045260246000fd5b02179055506004426004866040516120e69190612944565b9081526020016040518091039020600201547fdeb1466d19b7c591c503778ea470cdd6e7f4880cee0e2dedcb46fe86025c9e918760048960405161212a9190612944565b908152604051908190036020018120546001600160a01b031690600490612152908c90612944565b9081526040519081900360200181206001015461217c9392916001600160a01b0390911690612b2b565b60405180910390a450505050565b606060008251845161219c9190612f04565b6001600160401b038111156121c157634e487b7160e01b600052604160045260246000fd5b6040519080825280602002602001820160405280156121fa57816020015b6121e76122f4565b8152602001906001900390816121df5790505b50905060005b845181101561226f5784818151811061222957634e487b7160e01b600052603260045260246000fd5b602002602001015182828151811061225157634e487b7160e01b600052603260045260246000fd5b6020026020010181905250808061226790612f9e565b915050612200565b60005b84518110156122ea57848161228681612f9e565b9250815181106122a657634e487b7160e01b600052603260045260246000fd5b60200260200101518383806122ba90612f9e565b9450815181106122da57634e487b7160e01b600052603260045260246000fd5b6020026020010181905250612272565b5090949350505050565b60405180604001604052806060815260200161230e612397565b905290565b82805461231f90612f63565b90600052602060002090601f0160209004810192826123415760008555612387565b82601f1061235a57805160ff1916838001178555612387565b82800160010185558215612387579182015b8281111561238757825182559160200191906001019061236c565b506123939291506123cc565b5090565b6040805160c08101825260008082526020820181905291810182905260608101829052608081018290529060a082019061230e565b5b8082111561239357600081556001016123cd565b600082601f8301126123f1578081fd5b81356124046123ff82612ed1565b612e85565b818152846020838601011115612418578283fd5b816020850160208301379081016020019190915292915050565b600060c08284031215612443578081fd5b60405160c081018181106001600160401b038211171561246557612465612fcf565b8060405250809150825161247881612fe5565b8152602083015161248881612fe5565b8060208301525060408301516040820152606083015160608201526080830151608082015260a0830151600581106124bf57600080fd5b60a0919091015292915050565b6000602082840312156124dd578081fd5b81356124e881612fe5565b9392505050565b60008060008060808587031215612504578283fd5b843561250f81612fe5565b9350602085810135935060408601356001600160401b0380821115612532578485fd5b818801915088601f830112612545578485fd5b81356125536123ff82612eae565b81815284810190848601868402860187018d101561256f578889fd5b8895505b83861015612591578035835260019590950194918601918601612573565b509650505060608801359250808311156125a9578384fd5b50506125b7878288016123e1565b91505092959194509250565b600060208083850312156125d5578182fd5b82516001600160401b03808211156125eb578384fd5b818501915085601f8301126125fe578384fd5b815161260c6123ff82612eae565b81815284810190848601875b848110156126d2578151870160e0818d03601f1901121561263757898afd5b60405160408101818110898211171561265257612652612fcf565b604052818a015188811115612665578b8cfd5b8201603f81018e13612675578b8cfd5b8a8101516126856123ff82612ed1565b8181528f6040838501011115612699578d8efd5b6126a9828e830160408601612f33565b8352506126bb90508d60408401612432565b818b01528552509287019290870190600101612618565b50909998505050505050505050565b600060208083850312156126f3578182fd5b82516001600160401b03811115612708578283fd5b8301601f81018513612718578283fd5b80516127266123ff82612eae565b8181528381019083850185840285018601891015612742578687fd5b8694505b83851015612764578051835260019490940193918501918501612746565b50979650505050505050565b600060208284031215612781578081fd5b815180151581146124e8578182fd5b600080604083850312156127a2578182fd5b82356127ad81612fe5565b915060208301356127bd81612fe5565b809150509250929050565b6000602082840312156127d9578081fd5b81356001600160401b038111156127ee578182fd5b6127fa848285016123e1565b949350505050565b60008060408385031215612814578182fd5b82356001600160401b03811115612829578283fd5b612835858286016123e1565b95602094909401359450505050565b600080600060608486031215612858578081fd5b83356001600160401b0381111561286d578182fd5b612879868287016123e1565b9660208601359650604090950135949350505050565b6000602082840312156128a0578081fd5b5051919050565b600581106128c557634e487b7160e01b600052602160045260246000fd5b9052565b600081518084526128e1816020860160208601612f33565b601f01601f19169290920160200192915050565b60018060a01b038082511683528060208301511660208401525060408101516040830152606081015160608301526080810151608083015260a081015161293f60a08401826128a7565b505050565b60008251612956818460208701612f33565b9190910192915050565b815460009081906002810460018083168061297c57607f831692505b602080841082141561299c57634e487b7160e01b87526022600452602487fd5b8180156129b057600181146129c1576129ed565b60ff198616895284890196506129ed565b6129ca8a612ef8565b885b868110156129e55781548b8201529085019083016129cc565b505084890196505b509498975050505050505050565b6001600160a01b0391909116815260200190565b6001600160a01b03929092168252602082015260400190565b6000602080830181845280855180835260408601915060408482028701019250838701855b82811015612a9b57603f19888603018452815160e08151818852612a73828901826128c9565b915050878201519150612a88888801836128f5565b9550509285019290850190600101612a4d565b5092979650505050505050565b602080825282518282018190526000919060409081850190868401855b82811015612afd57815180516001600160a01b0316855286810151878601528501518585015260609093019290850190600101612ac5565b5091979650505050505050565b6020810161053482846128a7565b6000602082526124e860208301846128c9565b600060608252612b3e60608301866128c9565b6001600160a01b0394851660208401529290931660409091015292915050565b600060808252612b7160808301876128c9565b6020830195909552506001600160a01b03929092166040830152606090910152919050565b600060608252612ba960608301866128c9565b60208301949094525060400152919050565b60208082526023908201527f7468652073656c6c657220616e642062757965722063616e27742062652065716040820152621d585b60ea1b606082015260800190565b60208082526017908201527f6f7264657220696420616c726561647920657869737473000000000000000000604082015260600190565b60208082526030908201527f796f75206d75737420626520746865206f776e6572206f72207468652073656c60408201526f3632b91037b3103a34329037b93232b960811b606082015260800190565b6020808252605e908201527f4d6f6e6579426f7820697320636c6f736564206f722063616e63656c6c65642c60408201527f20796f752063616e27742063616c6c20746869732066756e6374696f6e20776860608201527f656e206974277320696e206f6e65206f66207468657365207374617465730000608082015260a00190565b602080825260139082015272496e76616c696420756e6c6f636b20636f646560681b604082015260600190565b6020808252818101527f746865206f72646572206861736e2774207468652076616c6964207374617465604082015260600190565b60208082526025908201527f6f6e6c7920746865206f776e65722063616e2063616c6c20746869732066756e60408201526431ba34b7b760d91b606082015260800190565b602080825260129082015271696e73756666696369656e742066756e647360701b604082015260600190565b60208082526010908201526f2a3930b739b332b9103330b4b632b21760811b604082015260600190565b60c0810161053482846128f5565b90815260200190565b600060808201868352602060808185015281875180845260a0860191508289019350845b81811015612e655784516001600160a01b031683529383019391830191600101612e40565b50506001600160a01b039690961660408501525050506060015292915050565b6040518181016001600160401b0381118282101715612ea657612ea6612fcf565b604052919050565b60006001600160401b03821115612ec757612ec7612fcf565b5060209081020190565b60006001600160401b03821115612eea57612eea612fcf565b50601f01601f191660200190565b60009081526020902090565b60008219821115612f1757612f17612fb9565b500190565b600082821015612f2e57612f2e612fb9565b500390565b60005b83811015612f4e578181015183820152602001612f36565b83811115612f5d576000848401525b50505050565b600281046001821680612f7757607f821691505b60208210811415612f9857634e487b7160e01b600052602260045260246000fd5b50919050565b6000600019821415612fb257612fb2612fb9565b5060010190565b634e487b7160e01b600052601160045260246000fd5b634e487b7160e01b600052604160045260246000fd5b6001600160a01b0381168114612ffa57600080fd5b5056fea26469706673582212205bacff1761252d129a0779986e2dfef19c978e7e655ac5eca0492f4c1914a34e64736f6c63430008000033",
  "linkReferences": {},
  "deployedLinkReferences": {}
}