{
  "_format": "hh-sol-artifact-1",
  "contractName": "MoneyBoxManager",
  "sourceName": "contracts/MoneyBoxManager.sol",
  "abi": [
    {
      "anonymous": false,
      "inputs": [
        {
          "indexed": false,
          "internalType": "string",
          "name": "id",
          "type": "string"
        },
        {
          "indexed": false,
          "internalType": "address payable",
          "name": "sellerAddress",
          "type": "address"
        },
        {
          "indexed": false,
          "internalType": "address payable",
          "name": "ownerAddress",
          "type": "address"
        },
        {
          "indexed": true,
          "internalType": "uint256",
          "name": "amount",
          "type": "uint256"
        },
        {
          "indexed": true,
          "internalType": "uint256",
          "name": "timestamp",
          "type": "uint256"
        },
        {
          "indexed": true,
          "internalType": "enum OrderManager.OrderState",
          "name": "state",
          "type": "uint8"
        }
      ],
      "name": "ItemReceived",
      "type": "event"
    },
    {
      "anonymous": false,
      "inputs": [
        {
          "indexed": false,
          "internalType": "string",
          "name": "moneybox_id",
          "type": "string"
        },
        {
          "indexed": false,
          "internalType": "uint256",
          "name": "fee_amount",
          "type": "uint256"
        },
        {
          "indexed": false,
          "internalType": "address",
          "name": "owner",
          "type": "address"
        },
        {
          "indexed": false,
          "internalType": "uint256",
          "name": "timestamp",
          "type": "uint256"
        }
      ],
      "name": "NewPaymentCreated",
      "type": "event"
    },
    {
      "anonymous": false,
      "inputs": [
        {
          "indexed": false,
          "internalType": "string",
          "name": "id",
          "type": "string"
        },
        {
          "indexed": false,
          "internalType": "address payable",
          "name": "sellerAddress",
          "type": "address"
        },
        {
          "indexed": false,
          "internalType": "address payable",
          "name": "ownerAddress",
          "type": "address"
        },
        {
          "indexed": true,
          "internalType": "uint256",
          "name": "amount",
          "type": "uint256"
        },
        {
          "indexed": true,
          "internalType": "uint256",
          "name": "timestamp",
          "type": "uint256"
        },
        {
          "indexed": true,
          "internalType": "enum OrderManager.OrderState",
          "name": "state",
          "type": "uint8"
        }
      ],
      "name": "OrderConfirmed",
      "type": "event"
    },
    {
      "anonymous": false,
      "inputs": [
        {
          "indexed": false,
          "internalType": "string",
          "name": "id",
          "type": "string"
        },
        {
          "indexed": false,
          "internalType": "address payable",
          "name": "sellerAddress",
          "type": "address"
        },
        {
          "indexed": false,
          "internalType": "address payable",
          "name": "ownerAddress",
          "type": "address"
        },
        {
          "indexed": true,
          "internalType": "uint256",
          "name": "amount",
          "type": "uint256"
        },
        {
          "indexed": true,
          "internalType": "uint256",
          "name": "timestamp",
          "type": "uint256"
        },
        {
          "indexed": true,
          "internalType": "enum OrderManager.OrderState",
          "name": "state",
          "type": "uint8"
        }
      ],
      "name": "OrderCreated",
      "type": "event"
    },
    {
      "anonymous": false,
      "inputs": [
        {
          "indexed": false,
          "internalType": "string",
          "name": "id",
          "type": "string"
        },
        {
          "indexed": false,
          "internalType": "address payable",
          "name": "sellerAddress",
          "type": "address"
        },
        {
          "indexed": false,
          "internalType": "address payable",
          "name": "ownerAddress",
          "type": "address"
        },
        {
          "indexed": true,
          "internalType": "uint256",
          "name": "amount",
          "type": "uint256"
        },
        {
          "indexed": true,
          "internalType": "uint256",
          "name": "timestamp",
          "type": "uint256"
        },
        {
          "indexed": true,
          "internalType": "enum OrderManager.OrderState",
          "name": "state",
          "type": "uint8"
        }
      ],
      "name": "OwnerRefunded",
      "type": "event"
    },
    {
      "inputs": [],
      "name": "STABLECOIN",
      "outputs": [
        {
          "internalType": "address",
          "name": "",
          "type": "address"
        }
      ],
      "stateMutability": "view",
      "type": "function"
    },
    {
      "inputs": [],
      "name": "WFTM",
      "outputs": [
        {
          "internalType": "address",
          "name": "",
          "type": "address"
        }
      ],
      "stateMutability": "view",
      "type": "function"
    },
    {
      "inputs": [
        {
          "internalType": "string",
          "name": "id",
          "type": "string"
        },
        {
          "internalType": "uint256",
          "name": "_unlockCode",
          "type": "uint256"
        }
      ],
      "name": "confirmReceived",
      "outputs": [],
      "stateMutability": "nonpayable",
      "type": "function"
    },
    {
      "inputs": [],
      "name": "contractBalance",
      "outputs": [
        {
          "internalType": "uint256",
          "name": "",
          "type": "uint256"
        }
      ],
      "stateMutability": "view",
      "type": "function"
    },
    {
      "inputs": [
        {
          "internalType": "contract OrderManager",
          "name": "superContract",
          "type": "address"
        },
        {
          "internalType": "address",
          "name": "_buyerAddress",
          "type": "address"
        }
      ],
      "name": "getAllBuyerOrders",
      "outputs": [
        {
          "components": [
            {
              "internalType": "string",
              "name": "id",
              "type": "string"
            },
            {
              "components": [
                {
                  "internalType": "address payable",
                  "name": "sellerAddress",
                  "type": "address"
                },
                {
                  "internalType": "address payable",
                  "name": "ownerAddress",
                  "type": "address"
                },
                {
                  "internalType": "uint256",
                  "name": "amount",
                  "type": "uint256"
                },
                {
                  "internalType": "uint256",
                  "name": "unlockCode",
                  "type": "uint256"
                },
                {
                  "internalType": "uint256",
                  "name": "timestamp",
                  "type": "uint256"
                },
                {
                  "internalType": "enum OrderManager.OrderState",
                  "name": "state",
                  "type": "uint8"
                }
              ],
              "internalType": "struct OrderManager.Order",
              "name": "order",
              "type": "tuple"
            }
          ],
          "internalType": "struct OrderManager.OrderTuple[]",
          "name": "",
          "type": "tuple[]"
        }
      ],
      "stateMutability": "view",
      "type": "function"
    },
    {
      "inputs": [
        {
          "internalType": "contract OrderManager",
          "name": "superContract",
          "type": "address"
        },
        {
          "internalType": "address",
          "name": "_sellerAddress",
          "type": "address"
        }
      ],
      "name": "getAllSellerOrders",
      "outputs": [
        {
          "components": [
            {
              "internalType": "string",
              "name": "id",
              "type": "string"
            },
            {
              "components": [
                {
                  "internalType": "address payable",
                  "name": "sellerAddress",
                  "type": "address"
                },
                {
                  "internalType": "address payable",
                  "name": "ownerAddress",
                  "type": "address"
                },
                {
                  "internalType": "uint256",
                  "name": "amount",
                  "type": "uint256"
                },
                {
                  "internalType": "uint256",
                  "name": "unlockCode",
                  "type": "uint256"
                },
                {
                  "internalType": "uint256",
                  "name": "timestamp",
                  "type": "uint256"
                },
                {
                  "internalType": "enum OrderManager.OrderState",
                  "name": "state",
                  "type": "uint8"
                }
              ],
              "internalType": "struct OrderManager.Order",
              "name": "order",
              "type": "tuple"
            }
          ],
          "internalType": "struct OrderManager.OrderTuple[]",
          "name": "",
          "type": "tuple[]"
        }
      ],
      "stateMutability": "view",
      "type": "function"
    },
    {
      "inputs": [
        {
          "internalType": "string",
          "name": "id",
          "type": "string"
        }
      ],
      "name": "getAmountToFill",
      "outputs": [
        {
          "internalType": "uint256",
          "name": "",
          "type": "uint256"
        }
      ],
      "stateMutability": "view",
      "type": "function"
    },
    {
      "inputs": [
        {
          "internalType": "string",
          "name": "id",
          "type": "string"
        }
      ],
      "name": "getAmountToPay",
      "outputs": [
        {
          "internalType": "uint256",
          "name": "",
          "type": "uint256"
        }
      ],
      "stateMutability": "view",
      "type": "function"
    },
    {
      "inputs": [
        {
          "internalType": "string",
          "name": "id",
          "type": "string"
        }
      ],
      "name": "getMoneyBoxPayments",
      "outputs": [
        {
          "components": [
            {
              "internalType": "address payable",
              "name": "from",
              "type": "address"
            },
            {
              "internalType": "uint256",
              "name": "amount",
              "type": "uint256"
            },
            {
              "internalType": "uint256",
              "name": "timestamp",
              "type": "uint256"
            }
          ],
          "internalType": "struct MoneyBoxManager.Payment[]",
          "name": "",
          "type": "tuple[]"
        }
      ],
      "stateMutability": "view",
      "type": "function"
    },
    {
      "inputs": [
        {
          "internalType": "address",
          "name": "participantAddress",
          "type": "address"
        }
      ],
      "name": "getMoneyBoxesByParticipantAddress",
      "outputs": [
        {
          "components": [
            {
              "internalType": "string",
              "name": "id",
              "type": "string"
            },
            {
              "components": [
                {
                  "internalType": "address payable",
                  "name": "sellerAddress",
                  "type": "address"
                },
                {
                  "internalType": "address payable",
                  "name": "ownerAddress",
                  "type": "address"
                },
                {
                  "internalType": "uint256",
                  "name": "amount",
                  "type": "uint256"
                },
                {
                  "internalType": "uint256",
                  "name": "unlockCode",
                  "type": "uint256"
                },
                {
                  "internalType": "uint256",
                  "name": "timestamp",
                  "type": "uint256"
                },
                {
                  "internalType": "enum OrderManager.OrderState",
                  "name": "state",
                  "type": "uint8"
                }
              ],
              "internalType": "struct OrderManager.Order",
              "name": "order",
              "type": "tuple"
            }
          ],
          "internalType": "struct OrderManager.OrderTuple[]",
          "name": "",
          "type": "tuple[]"
        }
      ],
      "stateMutability": "view",
      "type": "function"
    },
    {
      "inputs": [
        {
          "internalType": "string",
          "name": "id",
          "type": "string"
        }
      ],
      "name": "getOrderById",
      "outputs": [
        {
          "components": [
            {
              "internalType": "address payable",
              "name": "sellerAddress",
              "type": "address"
            },
            {
              "internalType": "address payable",
              "name": "ownerAddress",
              "type": "address"
            },
            {
              "internalType": "uint256",
              "name": "amount",
              "type": "uint256"
            },
            {
              "internalType": "uint256",
              "name": "unlockCode",
              "type": "uint256"
            },
            {
              "internalType": "uint256",
              "name": "timestamp",
              "type": "uint256"
            },
            {
              "internalType": "enum OrderManager.OrderState",
              "name": "state",
              "type": "uint8"
            }
          ],
          "internalType": "struct OrderManager.Order",
          "name": "",
          "type": "tuple"
        }
      ],
      "stateMutability": "view",
      "type": "function"
    },
    {
      "inputs": [],
      "name": "getOrderCount",
      "outputs": [
        {
          "internalType": "uint256",
          "name": "",
          "type": "uint256"
        }
      ],
      "stateMutability": "view",
      "type": "function"
    },
    {
      "inputs": [
        {
          "internalType": "string",
          "name": "id",
          "type": "string"
        }
      ],
      "name": "getOrderState",
      "outputs": [
        {
          "internalType": "enum OrderManager.OrderState",
          "name": "",
          "type": "uint8"
        }
      ],
      "stateMutability": "view",
      "type": "function"
    },
    {
      "inputs": [
        {
          "internalType": "address",
          "name": "_buyerAddress",
          "type": "address"
        }
      ],
      "name": "getOrdersByBuyer",
      "outputs": [
        {
          "components": [
            {
              "internalType": "string",
              "name": "id",
              "type": "string"
            },
            {
              "components": [
                {
                  "internalType": "address payable",
                  "name": "sellerAddress",
                  "type": "address"
                },
                {
                  "internalType": "address payable",
                  "name": "ownerAddress",
                  "type": "address"
                },
                {
                  "internalType": "uint256",
                  "name": "amount",
                  "type": "uint256"
                },
                {
                  "internalType": "uint256",
                  "name": "unlockCode",
                  "type": "uint256"
                },
                {
                  "internalType": "uint256",
                  "name": "timestamp",
                  "type": "uint256"
                },
                {
                  "internalType": "enum OrderManager.OrderState",
                  "name": "state",
                  "type": "uint8"
                }
              ],
              "internalType": "struct OrderManager.Order",
              "name": "order",
              "type": "tuple"
            }
          ],
          "internalType": "struct OrderManager.OrderTuple[]",
          "name": "",
          "type": "tuple[]"
        }
      ],
      "stateMutability": "view",
      "type": "function"
    },
    {
      "inputs": [
        {
          "internalType": "address",
          "name": "_sellerAddress",
          "type": "address"
        }
      ],
      "name": "getOrdersBySeller",
      "outputs": [
        {
          "components": [
            {
              "internalType": "string",
              "name": "id",
              "type": "string"
            },
            {
              "components": [
                {
                  "internalType": "address payable",
                  "name": "sellerAddress",
                  "type": "address"
                },
                {
                  "internalType": "address payable",
                  "name": "ownerAddress",
                  "type": "address"
                },
                {
                  "internalType": "uint256",
                  "name": "amount",
                  "type": "uint256"
                },
                {
                  "internalType": "uint256",
                  "name": "unlockCode",
                  "type": "uint256"
                },
                {
                  "internalType": "uint256",
                  "name": "timestamp",
                  "type": "uint256"
                },
                {
                  "internalType": "enum OrderManager.OrderState",
                  "name": "state",
                  "type": "uint8"
                }
              ],
              "internalType": "struct OrderManager.Order",
              "name": "order",
              "type": "tuple"
            }
          ],
          "internalType": "struct OrderManager.OrderTuple[]",
          "name": "",
          "type": "tuple[]"
        }
      ],
      "stateMutability": "view",
      "type": "function"
    },
    {
      "inputs": [
        {
          "internalType": "string",
          "name": "id",
          "type": "string"
        }
      ],
      "name": "getOwnerAddress",
      "outputs": [
        {
          "internalType": "address",
          "name": "",
          "type": "address"
        }
      ],
      "stateMutability": "view",
      "type": "function"
    },
    {
      "inputs": [
        {
          "internalType": "string",
          "name": "id",
          "type": "string"
        }
      ],
      "name": "getSellerAddress",
      "outputs": [
        {
          "internalType": "address",
          "name": "",
          "type": "address"
        }
      ],
      "stateMutability": "view",
      "type": "function"
    },
    {
      "inputs": [
        {
          "internalType": "string",
          "name": "id",
          "type": "string"
        }
      ],
      "name": "getUnlockCode",
      "outputs": [
        {
          "internalType": "uint256",
          "name": "",
          "type": "uint256"
        }
      ],
      "stateMutability": "view",
      "type": "function"
    },
    {
      "inputs": [
        {
          "internalType": "address payable",
          "name": "_seller",
          "type": "address"
        },
        {
          "internalType": "uint256",
          "name": "_amountIn",
          "type": "uint256"
        },
        {
          "internalType": "uint256[]",
          "name": "_amountOut",
          "type": "uint256[]"
        },
        {
          "internalType": "string",
          "name": "_orderId",
          "type": "string"
        }
      ],
      "name": "newOrder",
      "outputs": [],
      "stateMutability": "payable",
      "type": "function"
    },
    {
      "inputs": [
        {
          "internalType": "string",
          "name": "moneyBoxId",
          "type": "string"
        },
        {
          "internalType": "uint256",
          "name": "_amountIn",
          "type": "uint256"
        },
        {
          "internalType": "uint256",
          "name": "_amountOut",
          "type": "uint256"
        }
      ],
      "name": "newPayment",
      "outputs": [],
      "stateMutability": "payable",
      "type": "function"
    },
    {
      "inputs": [],
      "name": "owner",
      "outputs": [
        {
          "internalType": "address",
          "name": "",
          "type": "address"
        }
      ],
      "stateMutability": "view",
      "type": "function"
    },
    {
      "inputs": [
        {
          "internalType": "string",
          "name": "id",
          "type": "string"
        }
      ],
      "name": "refund",
      "outputs": [],
      "stateMutability": "nonpayable",
      "type": "function"
    },
    {
      "inputs": [],
      "name": "uniswapV2Router",
      "outputs": [
        {
          "internalType": "contract IUniswapV2Router02",
          "name": "",
          "type": "address"
        }
      ],
      "stateMutability": "view",
      "type": "function"
    }
  ],
  "bytecode": "0x60e060405273a6ad18c2ac47803e193f75c3677b14bf19b9488373ffffffffffffffffffffffffffffffffffffffff1660809073ffffffffffffffffffffffffffffffffffffffff1660601b81525073f1277d1ed8ad466beddf92ef448a13266195662173ffffffffffffffffffffffffffffffffffffffff1660a09073ffffffffffffffffffffffffffffffffffffffff1660601b81525073a70a572aa5489a5cdd0daa3bf0cf440a92f504026000806101000a81548173ffffffffffffffffffffffffffffffffffffffff021916908373ffffffffffffffffffffffffffffffffffffffff1602179055506000600355348015620000fe57600080fd5b50620001337f3ff25e351425e4ab7770f994bcefe8cb4f7bf24e3f2e949cf4c572938bd452c260001b620001d860201b60201c565b620001677f8802ad793c05f0100e6ee19c7cf441b95057d98ca41530f85c456b0ecda2bf0d60001b620001d860201b60201c565b6200019b7f8938ceda2860d5b88007cc02dae27741a1c6dd99af88404bd23334d12ae78f0760001b620001d860201b60201c565b3373ffffffffffffffffffffffffffffffffffffffff1660c08173ffffffffffffffffffffffffffffffffffffffff1660601b81525050620001db565b50565b60805160601c60a05160601c60c05160601c6176d1620002226000396000613472015260008181610c6a0152613f04015260008181610ac801526140e001526176d16000f3fe6080604052600436106101405760003560e01c80638b7afe2e116100b6578063a0e68d1b1161006f578063a0e68d1b146104b1578063afe7168f146104cd578063bc6fea711461050a578063be3ac64b14610547578063c5df16a014610584578063fe5f2e88146105c157610140565b80638b7afe2e1461038b5780638d0a5fbb146103b65780638da5cb5b146103e15780638fbf13701461040c578063902947a11461044957806393a397761461048657610140565b806321dbe8761161010857806321dbe876146102645780632d902ce81461028f5780633a875a43146102cc5780633dfaf3091461030957806355b0f927146103255780637a202cc11461034e57610140565b8063032e7411146101455780630e09e46a146101825780631694505e146101bf5780631cf708d4146101ea5780631d170e7c14610227575b600080fd5b34801561015157600080fd5b5061016c6004803603810190610167919061647b565b6105ea565b6040516101799190616e2e565b60405180910390f35b34801561018e57600080fd5b506101a960048036038101906101a4919061647b565b610858565b6040516101b69190616e2e565b60405180910390f35b3480156101cb57600080fd5b506101d4610ac6565b6040516101e19190616e72565b60405180910390f35b3480156101f657600080fd5b50610211600480360381019061020c91906164b7565b610aea565b60405161021e91906170ed565b60405180910390f35b34801561023357600080fd5b5061024e600480360381019061024991906164b7565b610b99565b60405161025b9190616dea565b60405180910390f35b34801561027057600080fd5b50610279610c68565b6040516102869190616dea565b60405180910390f35b34801561029b57600080fd5b506102b660048036038101906102b191906164b7565b610c8c565b6040516102c391906170ed565b60405180910390f35b3480156102d857600080fd5b506102f360048036038101906102ee9190616314565b6110c3565b6040516103009190616e2e565b60405180910390f35b610323600480360381019061031e919061633d565b6116d6565b005b34801561033157600080fd5b5061034c600480360381019061034791906164f8565b61217a565b005b34801561035a57600080fd5b5061037560048036038101906103709190616314565b612d43565b6040516103829190616e2e565b60405180910390f35b34801561039757600080fd5b506103a0613356565b6040516103ad91906170ed565b60405180910390f35b3480156103c257600080fd5b506103cb6133e2565b6040516103d891906170ed565b60405180910390f35b3480156103ed57600080fd5b506103f6613470565b6040516104039190616dea565b60405180910390f35b34801561041857600080fd5b50610433600480360381019061042e91906164b7565b613494565b6040516104409190616dea565b60405180910390f35b34801561045557600080fd5b50610470600480360381019061046b91906164b7565b613563565b60405161047d9190616e50565b60405180910390f35b34801561049257600080fd5b5061049b6136ce565b6040516104a89190616dea565b60405180910390f35b6104cb60048036038101906104c6919061654c565b6136f2565b005b3480156104d957600080fd5b506104f460048036038101906104ef9190616314565b614420565b6040516105019190616e2e565b60405180910390f35b34801561051657600080fd5b50610531600480360381019061052c91906164b7565b614a33565b60405161053e91906170ed565b60405180910390f35b34801561055357600080fd5b5061056e600480360381019061056991906164b7565b614ae2565b60405161057b9190616e8d565b60405180910390f35b34801561059057600080fd5b506105ab60048036038101906105a691906164b7565b614b9e565b6040516105b891906170d2565b60405180910390f35b3480156105cd57600080fd5b506105e860048036038101906105e391906164b7565b614dab565b005b60606106187f220ba1d62a9bc51f52e58290b6219a08bb5a1e542bf409f3f3b7991bf752403060001b6158af565b6106447f025e7e7a41f58aec9b8c2d31bc2634184c8f0a4fe921d60dcd1345647afa9c7360001b6158af565b6106707fe57fd99e5bf0b8c477017ed766f8aba6bfc5a4408624414e7dba2adbdbc6d55860001b6158af565b60008373ffffffffffffffffffffffffffffffffffffffff16637a202cc1846040518263ffffffff1660e01b81526004016106ab9190616dea565b60006040518083038186803b1580156106c357600080fd5b505afa1580156106d7573d6000803e3d6000fd5b505050506040513d6000823e3d601f19601f8201168201806040525081019061070091906163d0565b905061072e7f5cc84abc85fa780a139e661517bf749cb354d95f43652bc01f847b168f6f532560001b6158af565b61075a7fde72d7f9d1e913a95067023e90c9869ca3dc5a2fb36b980871f6617a29be723f60001b6158af565b60003073ffffffffffffffffffffffffffffffffffffffff16637a202cc1856040518263ffffffff1660e01b81526004016107959190616dea565b60006040518083038186803b1580156107ad57600080fd5b505afa1580156107c1573d6000803e3d6000fd5b505050506040513d6000823e3d601f19601f820116820180604052508101906107ea91906163d0565b90506108187f0eefd8243e42d52fa4e288b0386d6f342841e621fa810e80db6a1a9a9b2ae12560001b6158af565b6108447f35324962cb8a7883b73471a5f2e3977f1141e33a5c89a738cc23a70add41851560001b6158af565b61084e82826158b2565b9250505092915050565b60606108867f4556d777901e67f2549944b024d34f3ee81bf236f1687426e19d44f664bd0a1b60001b6158af565b6108b27fe570d414beb97073232e2b9b41868736da97a118ddf8331645021e5ad82578e960001b6158af565b6108de7f88c34f1b84aecd39682296f3e52237a9721ad3f7e2da7c4c09940f1fd33b7f5560001b6158af565b60008373ffffffffffffffffffffffffffffffffffffffff16633a875a43846040518263ffffffff1660e01b81526004016109199190616dea565b60006040518083038186803b15801561093157600080fd5b505afa158015610945573d6000803e3d6000fd5b505050506040513d6000823e3d601f19601f8201168201806040525081019061096e91906163d0565b905061099c7f1d3fe029d7584702effb365e0649dbd0094f666cb4a7e0042602556114fe8c7c60001b6158af565b6109c87fd014c0d157d12fea5d615e0e2a210a45e80ec7c35886ef3fd1865dc8d2e4c9b760001b6158af565b60003073ffffffffffffffffffffffffffffffffffffffff16633a875a43856040518263ffffffff1660e01b8152600401610a039190616dea565b60006040518083038186803b158015610a1b57600080fd5b505afa158015610a2f573d6000803e3d6000fd5b505050506040513d6000823e3d601f19601f82011682018060405250810190610a5891906163d0565b9050610a867f44ccef8c13a7eaf3466a9ad0ffbfa50bbd2495acdfffa7e40617b8c1f38d8add60001b6158af565b610ab27f3079f0c90fee37507b53db1fffc48eb8b971bcbf2e40b4b834edbb9fd871fc8860001b6158af565b610abc82826158b2565b9250505092915050565b7f000000000000000000000000000000000000000000000000000000000000000081565b6000610b187fb213b3cfd5e888f00404ae6ed173b1153643c0d3ec4ab2d3e0ba01e06a36a8d460001b615d89565b610b447f13abf1f9fccbedef21de276af565497f3fef55aea0792def02bb53a9b01e12f960001b615d89565b610b707f0a42d55204646c2a61868572ed07f3c4f06ba86714cab31d809c989a9212742160001b615d89565b600482604051610b809190616dbc565b9081526020016040518091039020600301549050919050565b6000610bc77f8dd98c7b0c6a93be0e6343d4bc9296f4b60b62cb6ef68f9f9003432789f60ce460001b615d89565b610bf37f2ca7b2b56dc21e7aa3a5af3c80b590d5d23a4a256cdbcd606b1898a4f7fe85ba60001b615d89565b610c1f7fbae9ce520fc315ef2f85e6791b6d57fb5a24531fd86820568a1f23427fd74b2d60001b615d89565b600482604051610c2f9190616dbc565b908152602001604051809103902060010160009054906101000a900473ffffffffffffffffffffffffffffffffffffffff169050919050565b7f000000000000000000000000000000000000000000000000000000000000000081565b6000610cba7fd7739867b31d8b89c9929322af4ecfbd5c37568e8e990300a0a4ff2cdf05369960001b6158af565b610ce67fb79b1d85de349112f0a85db4743163b76ea6bd4c04a5b1c152962cb21c0fffb960001b6158af565b610d127f747ddbba4965e1a4f5e12f570be3c8543ae64e4a5896d7748f5cbed172dd183360001b6158af565b60003073ffffffffffffffffffffffffffffffffffffffff1663bc6fea71846040518263ffffffff1660e01b8152600401610d4d9190616ea8565b60206040518083038186803b158015610d6557600080fd5b505afa158015610d79573d6000803e3d6000fd5b505050506040513d601f19601f82011682018060405250810190610d9d91906165b3565b9050610dcb7fe795078e477aa53b4276660ed332177c9904dd22799822cee950482315ec57e060001b6158af565b610df77f9a26bfc7a84893feb524fe0bf2128c2992c692c0f081843abc3df57bdcf92d9a60001b6158af565b6000610e257f58b55f284b8dcf864ad3801c36b8a2ebe3ea4b246869dd558f8931172d71eb2f60001b6158af565b610e517ff30c6c72499611f17958921ea5dcec597643697df7ce23429a6467778ba9943e60001b6158af565b6000600585604051610e639190616dbc565b9081526020016040518091039020805480602002602001604051908101604052809291908181526020016000905b82821015610f2d57838290600052602060002090600302016040518060600160405290816000820160009054906101000a900473ffffffffffffffffffffffffffffffffffffffff1673ffffffffffffffffffffffffffffffffffffffff1673ffffffffffffffffffffffffffffffffffffffff1681526020016001820154815260200160028201548152505081526020019060010190610e91565b505050509050610f5f7f92e8702f7189e8a8c5b6926973a022e4e46bc1e829ba9924ae547dedd0e6d66260001b6158af565b610f8b7fc33705d5ac328c63cb5a4d149446b4399854fa614dc616436c5e92d68106e8b260001b6158af565b60005b815181101561105457610fc37fe1248d526a608a8c0a36e60950ce90209d58451e0e66add297c46ce6fa66c8f360001b6158af565b610fef7f6cc17623f4ec873554d5ee97d43196ef4bfca2f5ed2db3022c39eca0034f131b60001b6158af565b818181518110611028577f4e487b7100000000000000000000000000000000000000000000000000000000600052603260045260246000fd5b6020026020010151602001518361103f9190617305565b9250808061104c906174ee565b915050610f8e565b506110817f64e42853deffd3b3efa777605e1e36dd48b775f55f0f7282de87fa7d4a720b7160001b6158af565b6110ad7ff6267246108857e329305ba61e1d47b4ccd69ea0140c9d7c136275750094f7f860001b6158af565b81836110b9919061735b565b9350505050919050565b60606110f17f362b3bc7d4dd67ed56b7ce86c8c9020f18ce0d777f331c933605d1497bb0c0be60001b615d89565b61111d7f3bbba0bc56fcf1f1dd71462aca75605e06b17e3c17df71616a540a300f8cd64060001b615d89565b6111497f8df4926b1af19080734c84ae5bf76f8858238517a7279e49f3266abced2699ef60001b615d89565b6000600160008473ffffffffffffffffffffffffffffffffffffffff1673ffffffffffffffffffffffffffffffffffffffff1681526020019081526020016000208054905067ffffffffffffffff8111156111cd577f4e487b7100000000000000000000000000000000000000000000000000000000600052604160045260246000fd5b60405190808252806020026020018201604052801561120657816020015b6111f3615d8c565b8152602001906001900390816111eb5790505b5090506112357ffbe3cb03e0a4ec6568619cb5464149c992e26e3d33620239c9f9d045aaaa3b4960001b615d89565b6112617f2181ab8efafa4efbf28a1c692b26eda79f7fd4f9ad35b868ca9f618dc981f5e960001b615d89565b60005b600160008573ffffffffffffffffffffffffffffffffffffffff1673ffffffffffffffffffffffffffffffffffffffff16815260200190815260200160002080549050811015611674576112da7fb24e3c6fab41f4f5bed34fa86cadf57b52dbcba9f664832f5c4cde5e4f0a27c760001b615d89565b6113067f6635d615ed4c5ecc7b6da049dafbbdbc947363be68d5fc1fa35da19ee772650360001b615d89565b6040518060400160405280600160008773ffffffffffffffffffffffffffffffffffffffff1673ffffffffffffffffffffffffffffffffffffffff1681526020019081526020016000208381548110611388577f4e487b7100000000000000000000000000000000000000000000000000000000600052603260045260246000fd5b90600052602060002001805461139d906174bc565b80601f01602080910402602001604051908101604052809291908181526020018280546113c9906174bc565b80156114165780601f106113eb57610100808354040283529160200191611416565b820191906000526020600020905b8154815290600101906020018083116113f957829003601f168201915b505050505081526020016004600160008873ffffffffffffffffffffffffffffffffffffffff1673ffffffffffffffffffffffffffffffffffffffff1681526020019081526020016000208481548110611499577f4e487b7100000000000000000000000000000000000000000000000000000000600052603260045260246000fd5b906000526020600020016040516114b09190616dd3565b90815260200160405180910390206040518060c00160405290816000820160009054906101000a900473ffffffffffffffffffffffffffffffffffffffff1673ffffffffffffffffffffffffffffffffffffffff1673ffffffffffffffffffffffffffffffffffffffff1681526020016001820160009054906101000a900473ffffffffffffffffffffffffffffffffffffffff1673ffffffffffffffffffffffffffffffffffffffff1673ffffffffffffffffffffffffffffffffffffffff1681526020016002820154815260200160038201548152602001600482015481526020016005820160009054906101000a900460ff1660048111156115de577f4e487b7100000000000000000000000000000000000000000000000000000000600052602160045260246000fd5b6004811115611616577f4e487b7100000000000000000000000000000000000000000000000000000000600052602160045260246000fd5b81525050815250828281518110611656577f4e487b7100000000000000000000000000000000000000000000000000000000600052603260045260246000fd5b6020026020010181905250808061166c906174ee565b915050611264565b506116a17f115b5b5e90e673c61159a88fb96cdd07a3e0ee75c50599e46c1097befcffc61960001b615d89565b6116cd7fe75b04365a4cc02d6160612246b6a3630aebc712a7d1d12f159f9be8d77149f860001b615d89565b80915050919050565b83336117047f19a34b1fe509bac56162c8d72eb46fe2ddd130c390330aa00e675f35541ff3cc60001b615d89565b6117307f3c3710e302a6673ac3d0fb79532e9793b922518386d06e496b07d8e7a853075460001b615d89565b61175c7fdaaba3b4030fb6a44725a94d919429dd52b061f1b55a1e6d99d4968135b59fd360001b615d89565b6117887fb71ba503b7cc7b79565c0b698ddbc3319d0ca47311e7d5aa680a931e8c1a0ad360001b615d89565b8073ffffffffffffffffffffffffffffffffffffffff168273ffffffffffffffffffffffffffffffffffffffff1614156117f7576040517f08c379a00000000000000000000000000000000000000000000000000000000081526004016117ee90616f92565b60405180910390fd5b6118237f1f25d3c640865598b3c9d8752c47c383604e8e8271d30c61ee01e8421f152dc060001b615d89565b61184f7f3f24d45d21d052e1472582a83c0261367df52a275a13e12f00826eee8a509bc860001b615d89565b8261187c7f2b64bf8a6a938c0e5dcb73af3d59187b957828639d05c7e0143f9e7189b580a060001b615d89565b6118a87f7473a808ba505283fea114755fa5837d2deaee54981dc951e376007f7df8ea7a60001b615d89565b6118d47fe2a4fccae32e09d5a4f25e9bb169ef37de979436885176b05825b267ce4677f960001b615d89565b6119007fd83a4787de9f9b598b6155e50c50847c2d769eb88b1f2218c91a82e743f8bd1560001b615d89565b6004816040516119109190616dbc565b908152602001604051809103902060050160009054906101000a900460ff166004811115611967577f4e487b7100000000000000000000000000000000000000000000000000000000600052602160045260246000fd5b600060048111156119a1577f4e487b7100000000000000000000000000000000000000000000000000000000600052602160045260246000fd5b146119e1576040517f08c379a00000000000000000000000000000000000000000000000000000000081526004016119d890616fb2565b60405180910390fd5b611a0d7fe668a93ceb1d9e92ce71367c1119058b89eba67e4236494fb709d16c668effb360001b615d89565b611a397fd9fb025d24fdb6beedfce297f54d63cf568d5cf53431f4f70ead218bf32c6db660001b615d89565b611a657f3fca195d09525908b0ea9d6638e8b5c2febcfa4adc366db3adf5d4c84c8855ea60001b6158af565b611a917f5203bc54e4b93ff0890dac695afc0115b53b5ba22017db0e88e5aea2a7c2621d60001b6158af565b60036000815480929190611aa4906174ee565b9190505550611ad57fc36491a557bcaa5add144c171bff3a22bda164419c5d444a2e074db932824db160001b6158af565b611b017f1a6b456ad0ef78267959618f82a847d08fff6802ec753342026f41f8ba8c5bef60001b6158af565b6040518060c001604052808873ffffffffffffffffffffffffffffffffffffffff1681526020013373ffffffffffffffffffffffffffffffffffffffff16815260200186600081518110611b7e577f4e487b7100000000000000000000000000000000000000000000000000000000600052603260045260246000fd5b6020026020010151815260200143815260200142815260200160016004811115611bd1577f4e487b7100000000000000000000000000000000000000000000000000000000600052602160045260246000fd5b815250600485604051611be49190616dbc565b908152602001604051809103902060008201518160000160006101000a81548173ffffffffffffffffffffffffffffffffffffffff021916908373ffffffffffffffffffffffffffffffffffffffff16021790555060208201518160010160006101000a81548173ffffffffffffffffffffffffffffffffffffffff021916908373ffffffffffffffffffffffffffffffffffffffff16021790555060408201518160020155606082015181600301556080820151816004015560a08201518160050160006101000a81548160ff02191690836004811115611cef577f4e487b7100000000000000000000000000000000000000000000000000000000600052602160045260246000fd5b0217905550905050611d237fafa1104b955ddf5676e91138f49bf0ae7f019a494f28087e07b592e7d6a5151f60001b6158af565b611d4f7f223ce9aa143f624d71eba8714e2367edee803142954891a5638c31d0b26da15960001b6158af565b600160003373ffffffffffffffffffffffffffffffffffffffff1673ffffffffffffffffffffffffffffffffffffffff16815260200190815260200160002084908060018154018082558091505060019003906000526020600020016000909190919091509080519060200190611dc7929190615dac565b50611df47fc575225ad5da67ef1fa6c81fcf44c8e67ba6bb3f101d04d952888a06e74c320060001b6158af565b611e207fec16da58c3f4c0f71dbc01b89b24420b95b59165bca6ea3a97144f8499f5644560001b6158af565b600260008873ffffffffffffffffffffffffffffffffffffffff1673ffffffffffffffffffffffffffffffffffffffff16815260200190815260200160002084908060018154018082558091505060019003906000526020600020016000909190919091509080519060200190611e98929190615dac565b50611ec57fa8823ca63103528920da14d359cf54a78f6051d08bed1f4fc0ce99adec38122460001b6158af565b611ef17fb7825619b4358462e11816eebe496194bee4a7f4d78f194e3c3ee536037f532a60001b6158af565b600034111561203457611f267f9b6852367bad2fe08adbd2cbc7318eb77e283684ebd20b039ec303bf92b946cd60001b6158af565b611f527f6ec6d28efb08956d8fe1785b74875568b9555201fe94a9e4faaa72fd0b106e2460001b6158af565b611f7e7f405cb10b31d7dd5df29b18d8f0f8378e09ed5f4fcadc64e78d7afdcecf15b8de60001b6158af565b3073ffffffffffffffffffffffffffffffffffffffff1663a0e68d1b34863489600181518110611fd7577f4e487b7100000000000000000000000000000000000000000000000000000000600052603260045260246000fd5b60200260200101516040518563ffffffff1660e01b8152600401611ffd93929190616f54565b6000604051808303818588803b15801561201657600080fd5b505af115801561202a573d6000803e3d6000fd5b5050505050612061565b6120607f84525ad5c8441bd01ae2c1da1971b3e9b5f61db75351220c4b3585ac4b5e0f1260001b6158af565b5b61208d7f16e6b71d79049f2709e761011837eab998d7c3e9d2c214698895c455d749722260001b6158af565b6120b97f7d95126e8ab8ace32ad7c9ab73a5014dc4defa351cf1ef29522824d385f16a2460001b6158af565b600160048111156120f3577f4e487b7100000000000000000000000000000000000000000000000000000000600052602160045260246000fd5b428660008151811061212e577f4e487b7100000000000000000000000000000000000000000000000000000000600052603260045260246000fd5b60200260200101517fc1276e236125b9af609d8f0ea4a3ed23d80d7c5db913c0528a7e8e5dab67308a878b3360405161216993929190616eca565b60405180910390a450505050505050565b816121a77fb49915c86751e388f61d3b9560a00f5b7fd332bb05cfca8d86008aaf40c143a660001b615d89565b6121d37ff41608017ab812b55fbb5e5f950077fffdd97b31c3c6aa4a67d12827f50a420460001b615d89565b6121ff7fb1276417e70bd68d60ba8959a3bf195aa2cf0cc8c4d326e5ba74ffaa30992dd660001b615d89565b61222b7f8f17739cdc067e1fcc5c23c893fb9cebc01eb1151e0761f95659a6e104ffdd7760001b615d89565b3373ffffffffffffffffffffffffffffffffffffffff166004826040516122529190616dbc565b908152602001604051809103902060010160009054906101000a900473ffffffffffffffffffffffffffffffffffffffff1673ffffffffffffffffffffffffffffffffffffffff16146122da576040517f08c379a00000000000000000000000000000000000000000000000000000000081526004016122d190617052565b60405180910390fd5b6123067f5e1f7c0624909a28d987548afe390891eb009b6d137f3e98c04d13b8fd94ed1860001b615d89565b6123327fe52505330bae5a488230317d8e7af846e2511310715895dd2d10f4721e7f5da660001b615d89565b8260026123617ff50119ea614062745a4a8680f981b67e34ff6547b04415736ec7dbd039d0a34060001b615d89565b61238d7fb2878ce801d11df523f76d541d233100fbdf33f94fc30a27378bd44e7977d46460001b615d89565b6123b97f1fdd4c1fca20d69a171cda7b18bbd9f003f29aff7782ded4f45b62bc3996b59960001b615d89565b6123e57fea155d960a6b6f1b3b6ed1b1536de31ecfb30a62c9c6da7f90fc53179c7a3d2660001b615d89565b6004826040516123f59190616dbc565b908152602001604051809103902060050160009054906101000a900460ff16600481111561244c577f4e487b7100000000000000000000000000000000000000000000000000000000600052602160045260246000fd5b816004811115612485577f4e487b7100000000000000000000000000000000000000000000000000000000600052602160045260246000fd5b146124c5576040517f08c379a00000000000000000000000000000000000000000000000000000000081526004016124bc90617032565b60405180910390fd5b6124f17fe01ba4b3acd2e5f1b6a7ac0954d465235779d1d70a8d33ff78b3fb20ffa4657f60001b615d89565b61251d7f93eecfd0ec19dab39707dc2f3975b52761400ef72f3b66ef3d23f7f9d80d936960001b615d89565b6125497f5e9bb28deccd5b7eb7e21bc74a52b277b96b879b61cc17592f0c00671dc4641f60001b615d89565b6125757ff85879fb9562861eb8dec05e6f8764cf1be943b97b679a259277e6f89e9dd99e60001b615d89565b6125a17f08ff34abb700680dc03802680951bdba82962334b31010dae4ac5a29575d78f060001b615d89565b60006004866040516125b39190616dbc565b90815260200160405180910390206040518060c00160405290816000820160009054906101000a900473ffffffffffffffffffffffffffffffffffffffff1673ffffffffffffffffffffffffffffffffffffffff1673ffffffffffffffffffffffffffffffffffffffff1681526020016001820160009054906101000a900473ffffffffffffffffffffffffffffffffffffffff1673ffffffffffffffffffffffffffffffffffffffff1673ffffffffffffffffffffffffffffffffffffffff1681526020016002820154815260200160038201548152602001600482015481526020016005820160009054906101000a900460ff1660048111156126e1577f4e487b7100000000000000000000000000000000000000000000000000000000600052602160045260246000fd5b6004811115612719577f4e487b7100000000000000000000000000000000000000000000000000000000600052602160045260246000fd5b81525050905061274b7f35803d8635336305ab1108570fe7e55d94c1de8f643754de89392a0d11e2860d60001b615d89565b6127777f9e61cee7b7ed09f0585ebcb14e27060169677dddcfaf91f3eb4156e31cafce7f60001b615d89565b6127a37f853deb24d12c476741bb688d0bdad674d73ac84fec4c98a2a096633b9fe5a1a460001b615d89565b848160600151146127e9576040517f08c379a00000000000000000000000000000000000000000000000000000000081526004016127e090617012565b60405180910390fd5b6128157f9c5b97f02be0cac4ce8325ed1e5bd8cd964a90ddaf399dca4a291dafbe156ba760001b615d89565b6128417f0f356e4125354dd905ac9df1d34c8df9393f6dea2dff6eb687205bfb3539963a60001b615d89565b61286d7f0533b06825513a14e5505a9f75181d645ae3e261eae5b7eaed794610a627899b60001b615d89565b6128997f418596fa77a0c8c89bef074e72636893aa4e851b395dfb43b2307632b89c39bb60001b615d89565b60008054906101000a900473ffffffffffffffffffffffffffffffffffffffff1673ffffffffffffffffffffffffffffffffffffffff1663a9059cbb826000015183604001516040518363ffffffff1660e01b81526004016128fc929190616e05565b602060405180830381600087803b15801561291657600080fd5b505af115801561292a573d6000803e3d6000fd5b505050506040513d601f19601f8201168201806040525081019061294e9190616452565b61298d576040517f08c379a000000000000000000000000000000000000000000000000000000000815260040161298490617092565b60405180910390fd5b6129b97f85765565073560f9fa937c5512b3ef1e24ac7ae6d326c35b9f5fe214ac090f4a60001b615d89565b6129e57fbf31df2e1a1432518521c4bd2ae16efdd4561198a84c7c1adc1e847fd4d39d5b60001b615d89565b612a117f47086a2aa562818652518371d142993b94a80f83b4518a1cdc6f719bf11caf1860001b615d89565b60038160a001906004811115612a50577f4e487b7100000000000000000000000000000000000000000000000000000000600052602160045260246000fd5b90816004811115612a8a577f4e487b7100000000000000000000000000000000000000000000000000000000600052602160045260246000fd5b81525050612aba7f93f9899989472d0158f10e00104a4bb5c4d83b09f4c50fa565c39c234109ce4460001b615d89565b612ae67ff1de19cea530e52cb3d28c33248693791a4fa8a98981c08fdc91e2f5e9271cb860001b615d89565b80600487604051612af79190616dbc565b908152602001604051809103902060008201518160000160006101000a81548173ffffffffffffffffffffffffffffffffffffffff021916908373ffffffffffffffffffffffffffffffffffffffff16021790555060208201518160010160006101000a81548173ffffffffffffffffffffffffffffffffffffffff021916908373ffffffffffffffffffffffffffffffffffffffff16021790555060408201518160020155606082015181600301556080820151816004015560a08201518160050160006101000a81548160ff02191690836004811115612c02577f4e487b7100000000000000000000000000000000000000000000000000000000600052602160045260246000fd5b0217905550905050612c367f864a99f8f564eff95861fcd29a39d234c3463868b20c9202f58ff5cc6600027460001b615d89565b612c627ff3da63524e00cf947b83fa6e9aa7e8f3a24f8cbba228c8373deb2fb93c64045e60001b615d89565b60036004811115612c9c577f4e487b7100000000000000000000000000000000000000000000000000000000600052602160045260246000fd5b42600488604051612cad9190616dbc565b9081526020016040518091039020600201547f92920d559afffc5707482f79beeb2a17d437af72aa691ccd51ccc7c124a419528960048b604051612cf19190616dbc565b908152602001604051809103902060000160009054906101000a900473ffffffffffffffffffffffffffffffffffffffff1633604051612d3393929190616eca565b60405180910390a4505050505050565b6060612d717f769dd90a0b64e130c5f0588df30a9861df4d7995f8eb24408f45a3914017406e60001b615d89565b612d9d7fdf5389b1234be6db6466efaebab516d34a0dc3f73f44ddd6287cdb18d2b296aa60001b615d89565b612dc97f40e9a8e03402a0399058b5bbcbcf156cc0aae5dc4dffa532bb08aaa5e0727e3e60001b615d89565b6000600260008473ffffffffffffffffffffffffffffffffffffffff1673ffffffffffffffffffffffffffffffffffffffff1681526020019081526020016000208054905067ffffffffffffffff811115612e4d577f4e487b7100000000000000000000000000000000000000000000000000000000600052604160045260246000fd5b604051908082528060200260200182016040528015612e8657816020015b612e73615d8c565b815260200190600190039081612e6b5790505b509050612eb57f710424c9e9c56fd20c6355625447c74e380daeb1149a2266cc50b70fdc2d138b60001b615d89565b612ee17f987033a2d8101c33b26f03d0056dca75d7813e897ab5af34b9ad33d830a1734e60001b615d89565b60005b600260008573ffffffffffffffffffffffffffffffffffffffff1673ffffffffffffffffffffffffffffffffffffffff168152602001908152602001600020805490508110156132f457612f5a7f95f21870d6e6064c4e3a28e80ad9f735ba5ae2c259ca3c65e4dea81384f8a69060001b615d89565b612f867f77d479e10bf17f715beeabc525f762d842d538fb2b9a1facdc1f7d3bdaefb70860001b615d89565b6040518060400160405280600260008773ffffffffffffffffffffffffffffffffffffffff1673ffffffffffffffffffffffffffffffffffffffff1681526020019081526020016000208381548110613008577f4e487b7100000000000000000000000000000000000000000000000000000000600052603260045260246000fd5b90600052602060002001805461301d906174bc565b80601f0160208091040260200160405190810160405280929190818152602001828054613049906174bc565b80156130965780601f1061306b57610100808354040283529160200191613096565b820191906000526020600020905b81548152906001019060200180831161307957829003601f168201915b505050505081526020016004600260008873ffffffffffffffffffffffffffffffffffffffff1673ffffffffffffffffffffffffffffffffffffffff1681526020019081526020016000208481548110613119577f4e487b7100000000000000000000000000000000000000000000000000000000600052603260045260246000fd5b906000526020600020016040516131309190616dd3565b90815260200160405180910390206040518060c00160405290816000820160009054906101000a900473ffffffffffffffffffffffffffffffffffffffff1673ffffffffffffffffffffffffffffffffffffffff1673ffffffffffffffffffffffffffffffffffffffff1681526020016001820160009054906101000a900473ffffffffffffffffffffffffffffffffffffffff1673ffffffffffffffffffffffffffffffffffffffff1673ffffffffffffffffffffffffffffffffffffffff1681526020016002820154815260200160038201548152602001600482015481526020016005820160009054906101000a900460ff16600481111561325e577f4e487b7100000000000000000000000000000000000000000000000000000000600052602160045260246000fd5b6004811115613296577f4e487b7100000000000000000000000000000000000000000000000000000000600052602160045260246000fd5b815250508152508282815181106132d6577f4e487b7100000000000000000000000000000000000000000000000000000000600052603260045260246000fd5b602002602001018190525080806132ec906174ee565b915050612ee4565b506133217f29a176824a48d8af7c7be8fa64dfb431ed8fcbe2c34154ce36456f055e1f843660001b615d89565b61334d7fc92a641e3106f74a11b986ff437f2e56367f8ec8a5ac771d670ddd64ab82534260001b615d89565b80915050919050565b60006133847ff0a5c733c01da5782de6e69c2ac4825665bac6ba81bc334f21fa747614a191cf60001b615d89565b6133b07f850a1670c9a027e44e50805219e75e35280095b941dc57a9cb9e4d67db3c309360001b615d89565b6133dc7f8db0491563e4b54504a7e27ca6fb2d8709a48f4f07eb2abe162dd098ff8c803c60001b615d89565b47905090565b60006134107f34e9e42d7945cb0272a1b20c38e2ae3b5dc8a451b38d8fd0c71e2ab424b1d5ca60001b615d89565b61343c7fef0bacbeb35f53e415e3b6d92e636b377af503833302a93379180517d6c6ba7c60001b615d89565b6134687f4c51188c3dde22162eb5ef9e0e67a198e95b5a2012bc59e6a7227aec876b37c660001b615d89565b600354905090565b7f000000000000000000000000000000000000000000000000000000000000000081565b60006134c27f542d7039a4f89f9849d99850b2a3b5c02133b1d030310aa2a4a671c51ea35e6d60001b615d89565b6134ee7fc4684e3c3c886adc808b5817c7bf8c764abf9999a465cbe01a397d2d6ffd32b860001b615d89565b61351a7f5208904dd423fe7bcd0bcd6d906e590cac2b97fc16e332eba8d7d2a44ab9e87d60001b615d89565b60048260405161352a9190616dbc565b908152602001604051809103902060000160009054906101000a900473ffffffffffffffffffffffffffffffffffffffff169050919050565b60606135917fe181d46eff6bc9ddfb3c752f9de11635383f26473d2eded18ef0f5dd5ba521f360001b6158af565b6135bd7fe585805a3827d44946763fd7d874c14a5a68a21966c6c621a19c1c79f038e82a60001b6158af565b6135e97fba0d707748a1373dd981d1b3ae85848955937556448fc0066c5dfd4259c1998260001b6158af565b6005826040516135f99190616dbc565b9081526020016040518091039020805480602002602001604051908101604052809291908181526020016000905b828210156136c357838290600052602060002090600302016040518060600160405290816000820160009054906101000a900473ffffffffffffffffffffffffffffffffffffffff1673ffffffffffffffffffffffffffffffffffffffff1673ffffffffffffffffffffffffffffffffffffffff1681526020016001820154815260200160028201548152505081526020019060010190613627565b505050509050919050565b60008054906101000a900473ffffffffffffffffffffffffffffffffffffffff1681565b32826137207f8914ea3d02937292e79c48752336eae1bbf64f02a88285f3a8d274cff303287160001b615d89565b61374c7fe5ebfd70713e5ddfa6aad918d82c1755e51ae2cfc033a5c341d860cded1cba7b60001b615d89565b6137787f80d791ed5cd63d10e42cfe5ab4d00474b7fe41daa75249d977868eb96c7b646060001b615d89565b6137a47fac89d8bbb84cd65a4e95b864b09bf5dab8d107a8833071af291e5124f9525d9660001b615d89565b808273ffffffffffffffffffffffffffffffffffffffff163110156137fe576040517f08c379a00000000000000000000000000000000000000000000000000000000081526004016137f590617072565b60405180910390fd5b61382a7f237c351a0dc9a977163455f7bdb1fa9cbe56cd3006fe44416d20e3eb3e063ee260001b615d89565b6138567f6bd8c8af6be7ebad23a49a1a2d6903f18db9e998e968e8df42414d7983e9086460001b615d89565b6138827fc03a316900e65258c166e335ab842968e8677d7827977a4ab630dda2744d4d6a60001b6158af565b6138ae7f6eab5c60f80ae45beb77150ab599f2c80053b7ae3481c95d44c4551b6351b7d560001b6158af565b6138da7f544e2c88136f1a901dcceba0f509c8412924b46e7b9878f78822cad00049f12060001b6158af565b6139067fe05fdacb6930282fac76d21cebec191fadbec829934e478d2a30af7ca994ad5460001b6158af565b60003411613949576040517f08c379a0000000000000000000000000000000000000000000000000000000008152600401613940906170b2565b60405180910390fd5b6139757f3ca0de9a34ddbbd37834c4ce3cdd69735100bf0ddfd1f40fe886dcbdd1671fc660001b6158af565b6139a17fbe2bd6e018c0673449c8ff82bb37a71f335aabe9955a65d38b14d298d2167a7e60001b6158af565b6139cd7f5ae92ce4b2399dd93074d81feb20bc2dbff35b63b2a923e65eb49b608e38d88760001b6158af565b600060405180606001604052803273ffffffffffffffffffffffffffffffffffffffff168152602001858152602001428152509050613a2e7fd659197f75645dada69dda544bfe858e8fad34a840fbad463fa337788117e97060001b6158af565b613a5a7f2da95e6b6952644b1669b10082578edd2f89399c7c89ccb38c34da37286cc5ac60001b6158af565b600586604051613a6a9190616dbc565b908152602001604051809103902081908060018154018082558091505060019003906000526020600020906003020160009091909190915060008201518160000160006101000a81548173ffffffffffffffffffffffffffffffffffffffff021916908373ffffffffffffffffffffffffffffffffffffffff16021790555060208201518160010155604082015181600201555050613b2b7f3d8233ad5e51ae432ee6bd50540a79d1a8dfe481d4a1bfddb11f8c13275592cf60001b6158af565b613b577fc025f2205ad33badf764453be764405f3a3a9e1b2546c1021dca55df32a5c8be60001b6158af565b600660003273ffffffffffffffffffffffffffffffffffffffff1673ffffffffffffffffffffffffffffffffffffffff16815260200190815260200160002086908060018154018082558091505060019003906000526020600020016000909190919091509080519060200190613bcf929190615dac565b50613bfc7f044cf6ac0b139d2f9fe4967f4f36ede596e288733b2d339fff1f2d913f6709bf60001b6158af565b613c287fec6a34968e5408329a3b5c125c2e8ebd6c227dfe4f6daa78be0b397de6b4e6d060001b6158af565b60003073ffffffffffffffffffffffffffffffffffffffff16632d902ce8886040518263ffffffff1660e01b8152600401613c639190616ea8565b60206040518083038186803b158015613c7b57600080fd5b505afa158015613c8f573d6000803e3d6000fd5b505050506040513d601f19601f82011682018060405250810190613cb391906165b3565b11613db157613ce47ffe16e58e8ca7c87dedcd98eccf6afd9d52dc89ab098f1e30b1fa91cfb12e311160001b6158af565b613d107fc380be9ccc979905344a1d77bb9c46fa8bdd33b5c7749f7ed1df39a3560a8b8d60001b6158af565b613d3c7faf08050b48474992da386bb98831f7b35fa59e7a9ce7beedb688a3a139202c0f60001b6158af565b6002600487604051613d4e9190616dbc565b908152602001604051809103902060050160006101000a81548160ff02191690836004811115613da7577f4e487b7100000000000000000000000000000000000000000000000000000000600052602160045260246000fd5b0217905550613dde565b613ddd7f7d1f7e75d5f6b21fc89db3703f31601123f335f356f9dd0e5c37f15a8079561360001b6158af565b5b613e0a7f677449bce286ca9ef3fc1d3918213eef0cfc1f4d17cd985f99240182c515683460001b6158af565b613e367f8f0a0b017a980e4deeaf5ce20635810dddb7d4d102f850942e0585f2215f278f60001b6158af565b6000600267ffffffffffffffff811115613e79577f4e487b7100000000000000000000000000000000000000000000000000000000600052604160045260246000fd5b604051908082528060200260200182016040528015613ea75781602001602082028036833780820191505090505b509050613ed67f0f1ed5bd3de55933be3f6e56d57320aa6ea89cbb1297e2f4c593d84839ac837860001b6158af565b613f027f9813e5d6edeaabb09ba4c0529e26d0bd003f47502777ab8bdabb2d46a8f20ed660001b6158af565b7f000000000000000000000000000000000000000000000000000000000000000081600081518110613f5d577f4e487b7100000000000000000000000000000000000000000000000000000000600052603260045260246000fd5b602002602001019073ffffffffffffffffffffffffffffffffffffffff16908173ffffffffffffffffffffffffffffffffffffffff1681525050613fc37f2e9cfb0e011c6699006ecb2c42d6adbc85068a30573e9f42fcd06eb9727af2f160001b6158af565b613fef7fa2a9906a1d02aa8553a86a89a5bfe3a22ccbeacca01acd1f786c47f9662cec4160001b6158af565b60008054906101000a900473ffffffffffffffffffffffffffffffffffffffff168160018151811061404a577f4e487b7100000000000000000000000000000000000000000000000000000000600052603260045260246000fd5b602002602001019073ffffffffffffffffffffffffffffffffffffffff16908173ffffffffffffffffffffffffffffffffffffffff16815250506140b07f502b4a6a370949c8ef6d39d0beb557edfa2e4edc20e4260c3ee7cff8654a7ebf60001b6158af565b6140dc7f950355a7a8333bb56b035e8d1ffb7feb725bb58e922cf973e93aad4e380bb8a760001b6158af565b60007f000000000000000000000000000000000000000000000000000000000000000073ffffffffffffffffffffffffffffffffffffffff1663fb3bdb4134888530426040518663ffffffff1660e01b815260040161413e9493929190617108565b6000604051808303818588803b15801561415757600080fd5b505af115801561416b573d6000803e3d6000fd5b50505050506040513d6000823e3d601f19601f820116820180604052508101906141959190616411565b90506141c37fe26a895f0f91d755b2e8dea87d90c074f54a6e5d450fa5b3656316fe9420c8cc60001b6158af565b6141ef7f3febe5f45da060872c2b4c4c8893feba2678f16cc7650c43aead26974ae729d360001b6158af565b348160008151811061422a577f4e487b7100000000000000000000000000000000000000000000000000000000600052603260045260246000fd5b60200260200101511015614354576142647fa422a1e8c4f82928cf7e954b03170b4b238f24e82746f711f25c44d8d4196ac860001b6158af565b6142907fc96414ceaa466fcc944cad3b1c71ab2aa02c595ea1dc966fa95e8b8f0c94be7460001b6158af565b6142bc7f7979b019641e1cdf498f65c789c44cd5f40d80be3e8e97bf518c5a828f8274fe60001b6158af565b3273ffffffffffffffffffffffffffffffffffffffff166108fc82600081518110614310577f4e487b7100000000000000000000000000000000000000000000000000000000600052603260045260246000fd5b602002602001015134614323919061735b565b9081150290604051600060405180830381858888f1935050505015801561434e573d6000803e3d6000fd5b50614381565b6143807f5419c102044eb70af19f41ab1ab1c9a16877112e26c4109b829a73f75e7eaa4860001b6158af565b5b6143ad7fb6531fb12cec064b16d2e1dcbe43cb14a8f478d7cdd78b5c2ee3efd3cbec6e4a60001b6158af565b6143d97f0398f172f27943f07c885ff97483d77dadd90b9a747a427ba1695b18e2d5e9b660001b6158af565b7f84af6234059750953635ba8f6a9e20d936433bdb911371a4876783f6231f561f8887324260405161440e9493929190616f08565b60405180910390a15050505050505050565b606061444e7ff967fea2229829f9dafc428a1985eda899e707fe12c918ab15fc7473d8a26d0a60001b6158af565b61447a7f64964e36ab90478ecdf915810d1eb22b11c09e580184e6876fa1aa438ea1151160001b6158af565b6144a67f527430b35a02e31af450dcee56962825e40001175138de782f3bf543fee732ad60001b6158af565b6000600660008473ffffffffffffffffffffffffffffffffffffffff1673ffffffffffffffffffffffffffffffffffffffff1681526020019081526020016000208054905067ffffffffffffffff81111561452a577f4e487b7100000000000000000000000000000000000000000000000000000000600052604160045260246000fd5b60405190808252806020026020018201604052801561456357816020015b614550615d8c565b8152602001906001900390816145485790505b5090506145927fd6e652322d16761a9049c74caf67c58da58df3c85daa4e0c9e3342b6630157e160001b6158af565b6145be7faea601690d70268675a49339a506d06922b53d818d6cbcc2af56eee6009e1bb460001b6158af565b60005b600660008573ffffffffffffffffffffffffffffffffffffffff1673ffffffffffffffffffffffffffffffffffffffff168152602001908152602001600020805490508110156149d1576146377facbdf186671d2fd8bc2ecfc46827db2c2bad2f586297cf50c2831e09ccdb335b60001b6158af565b6146637fb25f77b40b0dabd6784fd351b9a45bac4875c1732bf1444d27b70a9c3c8220e060001b6158af565b6040518060400160405280600660008773ffffffffffffffffffffffffffffffffffffffff1673ffffffffffffffffffffffffffffffffffffffff16815260200190815260200160002083815481106146e5577f4e487b7100000000000000000000000000000000000000000000000000000000600052603260045260246000fd5b9060005260206000200180546146fa906174bc565b80601f0160208091040260200160405190810160405280929190818152602001828054614726906174bc565b80156147735780601f1061474857610100808354040283529160200191614773565b820191906000526020600020905b81548152906001019060200180831161475657829003601f168201915b505050505081526020016004600660008873ffffffffffffffffffffffffffffffffffffffff1673ffffffffffffffffffffffffffffffffffffffff16815260200190815260200160002084815481106147f6577f4e487b7100000000000000000000000000000000000000000000000000000000600052603260045260246000fd5b9060005260206000200160405161480d9190616dd3565b90815260200160405180910390206040518060c00160405290816000820160009054906101000a900473ffffffffffffffffffffffffffffffffffffffff1673ffffffffffffffffffffffffffffffffffffffff1673ffffffffffffffffffffffffffffffffffffffff1681526020016001820160009054906101000a900473ffffffffffffffffffffffffffffffffffffffff1673ffffffffffffffffffffffffffffffffffffffff1673ffffffffffffffffffffffffffffffffffffffff1681526020016002820154815260200160038201548152602001600482015481526020016005820160009054906101000a900460ff16600481111561493b577f4e487b7100000000000000000000000000000000000000000000000000000000600052602160045260246000fd5b6004811115614973577f4e487b7100000000000000000000000000000000000000000000000000000000600052602160045260246000fd5b815250508152508282815181106149b3577f4e487b7100000000000000000000000000000000000000000000000000000000600052603260045260246000fd5b602002602001018190525080806149c9906174ee565b9150506145c1565b506149fe7fdf05dd6667fa713a4543068dde32b76a6d38898ffe9ca0116978421f8577263b60001b6158af565b614a2a7f122b6008b5305dc1954d8e7319520c2e5435df02ebc15278a911a9cf4663299160001b6158af565b80915050919050565b6000614a617f456cf2b94acd32e349bb79d518d8b7171e88771215e0f2100d047c23bcdc6f4860001b615d89565b614a8d7f8d8090eec8fa6f29166dd50c605d0b4032fc72e533c9b549646177f503ea90cb60001b615d89565b614ab97f2b75bc3d85170bc7bcde6cf488cd9df896cceacdcf9767d37ed0dd98aae9780460001b615d89565b600482604051614ac99190616dbc565b9081526020016040518091039020600201549050919050565b6000614b107f8b2f8eab952dd07c556bafe0b3774dae2ecab1483d33cc9ad6d558506242442760001b615d89565b614b3c7f2424d58dcb8ecedca093d16f7b1353146694485db774b6c3e136364fba71986e60001b615d89565b614b687fa60301e46a3842881b3f5448b4ee5990d902e4b9c9b35c4b8ba40cef0ade4f0160001b615d89565b600482604051614b789190616dbc565b908152602001604051809103902060050160009054906101000a900460ff169050919050565b614ba6615e32565b614bd27fae8d8a7bc7818ccbf692f7d443b2de722bdcceb4afea322d46c20de24771c73160001b615d89565b614bfe7fce36bdd6861596de31d9ec22c1563c4c392355cbcf51f67dacf16f6503b3c7a060001b615d89565b614c2a7f49ce992063bae81ad9af9856329eeb200d4e2873c4866e0fddff44c5328bd28b60001b615d89565b600482604051614c3a9190616dbc565b90815260200160405180910390206040518060c00160405290816000820160009054906101000a900473ffffffffffffffffffffffffffffffffffffffff1673ffffffffffffffffffffffffffffffffffffffff1673ffffffffffffffffffffffffffffffffffffffff1681526020016001820160009054906101000a900473ffffffffffffffffffffffffffffffffffffffff1673ffffffffffffffffffffffffffffffffffffffff1673ffffffffffffffffffffffffffffffffffffffff1681526020016002820154815260200160038201548152602001600482015481526020016005820160009054906101000a900460ff166004811115614d68577f4e487b7100000000000000000000000000000000000000000000000000000000600052602160045260246000fd5b6004811115614da0577f4e487b7100000000000000000000000000000000000000000000000000000000600052602160045260246000fd5b815250509050919050565b80614dd87f972c3af7081e2c470a777436fc120ace68fb995bcef8afbb347a2762c02032a860001b615d89565b614e047f932d34212270379a95200ccfcd5e993b108360f36bc63ad73261b49ef3f2512960001b615d89565b614e307fbfa8d745f6bdc1672a40ebb7b3d0f90ae01d2a7e3aebf9a51c87f99eb55f4d7d60001b615d89565b614e5c7f73e36e6bc966bec816eaf3817eff579917a387025147af775c594feece58b32060001b615d89565b3373ffffffffffffffffffffffffffffffffffffffff16600482604051614e839190616dbc565b908152602001604051809103902060000160009054906101000a900473ffffffffffffffffffffffffffffffffffffffff1673ffffffffffffffffffffffffffffffffffffffff161480614f4357503373ffffffffffffffffffffffffffffffffffffffff16600482604051614ef99190616dbc565b908152602001604051809103902060010160009054906101000a900473ffffffffffffffffffffffffffffffffffffffff1673ffffffffffffffffffffffffffffffffffffffff16145b614f82576040517f08c379a0000000000000000000000000000000000000000000000000000000008152600401614f7990616fd2565b60405180910390fd5b614fae7f85a20b3f25badceac82216b459b2c01aadddeeaf01c91fbb9e14eec5730d687660001b615d89565b614fda7f435a97b6ac6769c5d76a0c6f8b4dd4f0a9cbbee5963bf44948b3066cd36fdfed60001b615d89565b816150077f98c6ee011223e054bd1ab59d1aa2d3f1e112a4088c4d6803c220e3e8275abad560001b6158af565b6150337f42cbc6f905b921c6ccff6e3d04de5c6736303d39c9dcb7ba9b0a7713850a218560001b6158af565b61505f7f8490778144d73376a29dde9028fa55986c9dfea3d32efddd835f7abf4009748260001b6158af565b61508b7f58b8b0abd30a5f60a5f662f4acc729fc93a473bb7d0002b67280ca421887756060001b6158af565b600360048111156150c5577f4e487b7100000000000000000000000000000000000000000000000000000000600052602160045260246000fd5b6004826040516150d59190616dbc565b908152602001604051809103902060050160009054906101000a900460ff16600481111561512c577f4e487b7100000000000000000000000000000000000000000000000000000000600052602160045260246000fd5b141580156151d8575060048081111561516e577f4e487b7100000000000000000000000000000000000000000000000000000000600052602160045260246000fd5b60048260405161517e9190616dbc565b908152602001604051809103902060050160009054906101000a900460ff1660048111156151d5577f4e487b7100000000000000000000000000000000000000000000000000000000600052602160045260246000fd5b14155b615217576040517f08c379a000000000000000000000000000000000000000000000000000000000815260040161520e90616ff2565b60405180910390fd5b6152437f07be30b1901a52ae38a69b2fb6d3e5c4436abf1db1dbcaef5e32de28e5856df260001b6158af565b61526f7fb63904fc065c9eccf37cf3c8d480438726c1603aea135c04edd45b1de7a42cb160001b6158af565b61529b7f4951f66887903c64c7b082971e8a1c8ad6f0fa8d64d01424818cf31e71a4c72d60001b6158af565b6152c77fa294cf983e57a753c962dafc6932d12eea5a7869c3cda5d396afcbbea536253360001b6158af565b6152f37f0507a6f35a91e4e289975184a7671de3e3f380df177b6d700db6ae691f99c2b360001b6158af565b60006005846040516153059190616dbc565b9081526020016040518091039020805480602002602001604051908101604052809291908181526020016000905b828210156153cf57838290600052602060002090600302016040518060600160405290816000820160009054906101000a900473ffffffffffffffffffffffffffffffffffffffff1673ffffffffffffffffffffffffffffffffffffffff1673ffffffffffffffffffffffffffffffffffffffff1681526020016001820154815260200160028201548152505081526020019060010190615333565b5050505090506154017f1b168aec8da5766906242c1543d88a7e52832e72b6b70efbdabbfaff6a9a80d760001b6158af565b61542d7f03e01f54f9537c4c874b636d68d1f18c34f18cdb2fe44c7b01d16440aa4e376c60001b6158af565b60005b8151811015615670576154657f47f9b0ba166aad1a22c98ed7667f580679a7d1de89a096735f8e91fc6a084f6760001b6158af565b6154917ffa5b782d4293ff7587e1995bac88071f43281fcf898fb8416c59759b928869fc60001b6158af565b6154bd7fc27b9850363921690d77dd07fc32c14769bf1f1c842c363a66e31a13f23a604c60001b6158af565b60008054906101000a900473ffffffffffffffffffffffffffffffffffffffff1673ffffffffffffffffffffffffffffffffffffffff1663a9059cbb838381518110615532577f4e487b7100000000000000000000000000000000000000000000000000000000600052603260045260246000fd5b602002602001015160000151848481518110615577577f4e487b7100000000000000000000000000000000000000000000000000000000600052603260045260246000fd5b6020026020010151602001516040518363ffffffff1660e01b81526004016155a0929190616e05565b602060405180830381600087803b1580156155ba57600080fd5b505af11580156155ce573d6000803e3d6000fd5b505050506040513d601f19601f820116820180604052508101906155f29190616452565b615631576040517f08c379a000000000000000000000000000000000000000000000000000000000815260040161562890617092565b60405180910390fd5b61565d7f0f6ad96c88142f302ca158c20946a5a25fe81961d4dfad112507222f91c250dc60001b6158af565b8080615668906174ee565b915050615430565b5061569d7fdd4f603f7957020f7617c3198361fde83a4e28be7576daf0cf35d2484166ffa860001b6158af565b6156c97f7cfb8293963ad00d3cc76cb371116a8cc79e86894a7e651842b2a262f68e1a5160001b6158af565b600480856040516156da9190616dbc565b908152602001604051809103902060050160006101000a81548160ff02191690836004811115615733577f4e487b7100000000000000000000000000000000000000000000000000000000600052602160045260246000fd5b02179055506157647f5f5f41b5114e6b056e7abc5e0f25dc087ccc4d51d74965505c53ce5cab3d4cc360001b6158af565b6157907f27c13a31ce3870c44b79448ef63abc106a3e10e65af1fa95604025fdea505e5860001b6158af565b6004808111156157c9577f4e487b7100000000000000000000000000000000000000000000000000000000600052602160045260246000fd5b426004866040516157da9190616dbc565b9081526020016040518091039020600201547fdeb1466d19b7c591c503778ea470cdd6e7f4880cee0e2dedcb46fe86025c9e918760048960405161581e9190616dbc565b908152602001604051809103902060000160009054906101000a900473ffffffffffffffffffffffffffffffffffffffff1660048a6040516158609190616dbc565b908152602001604051809103902060010160009054906101000a900473ffffffffffffffffffffffffffffffffffffffff166040516158a193929190616eca565b60405180910390a450505050565b50565b60606158e07fe8a043e866d497e949838c8716469d0fa1fd0a7a0d1e110eee472ef52b07f73660001b6158af565b61590c7fe54552d7702c8b11349af10a414bb452c6ff143f6cb4ac5811f711651094ae0e60001b6158af565b6159387f5999195cb231131bd340a8af2d9e629cd7cd7cef6ffbe498f6f4d3040a02821360001b6158af565b6000825184516159489190617305565b67ffffffffffffffff811115615987577f4e487b7100000000000000000000000000000000000000000000000000000000600052604160045260246000fd5b6040519080825280602002602001820160405280156159c057816020015b6159ad615d8c565b8152602001906001900390816159a55790505b5090506159ef7f3c1618c7aef48c09ca15939bfbb7020b5061052c0741e592076aa5597809a75760001b6158af565b615a1b7f218553fc3f092b539bd0a81ff5f1ff7d2d6de949cf4baef0cddaa128c12d921d60001b6158af565b6000615a497f99bdb21eb0af7dbcb6dc85e9498b95d6f529ee619e06f14e18dcb41a23317a2860001b6158af565b615a757fbff91225cf683aaaaf1bf164d42554342a9e0f14dcdb1148f927c52a779d44fb60001b6158af565b5b8451811015615b6f57615aab7fd7aade629daa99ec6d80706d9f96fa346f99a2c94c4991491eeb8f05b6fff8a860001b6158af565b615ad77fc30f4c76e8af53337b0fc26c96f42968766cb7d3e89ea1039983e2657adde63e60001b6158af565b848181518110615b10577f4e487b7100000000000000000000000000000000000000000000000000000000600052603260045260246000fd5b6020026020010151828281518110615b51577f4e487b7100000000000000000000000000000000000000000000000000000000600052603260045260246000fd5b60200260200101819052508080615b67906174ee565b915050615a76565b615b9b7f3bce410d330c1bc7b82218256c06d7862cbffef3087f24c3179027fc72cb8da460001b6158af565b615bc77fc537a9bc5cfde132eac53c4ca03963465eb7dbd8acf124c0f9bc725c67ae08b860001b6158af565b6000615bf57fcc4654eb9a605a2e0a9ab506e90077976fae4f74e56be1cdf94c6422aa77abb360001b6158af565b615c217f3f36adda50fe248ad97f0a603c5a9dcaaa4ea6063c219b833c3e02a7f33fb57360001b6158af565b5b8451811015615d2557615c577f81750f4a3154ff568316ec9397d97ed1ed68c5784071c30316aefff2abaaca9960001b6158af565b615c837f81f0959547fc0438cb4cc40a771e202d7900f36231e300564e4bace93bcbc37f60001b6158af565b848180615c8f906174ee565b925081518110615cc8577f4e487b7100000000000000000000000000000000000000000000000000000000600052603260045260246000fd5b6020026020010151838380615cdc906174ee565b945081518110615d15577f4e487b7100000000000000000000000000000000000000000000000000000000600052603260045260246000fd5b6020026020010181905250615c22565b615d517fa1de9d49a9794752c0328929073f38d1774af7187e2066cedb596623b6463d1860001b6158af565b615d7d7fa03ff15fca825abc260fb884ae17a07e7ed1e5c027088d675831cfcd822170c560001b6158af565b82935050505092915050565b50565b604051806040016040528060608152602001615da6615e32565b81525090565b828054615db8906174bc565b90600052602060002090601f016020900481019282615dda5760008555615e21565b82601f10615df357805160ff1916838001178555615e21565b82800160010185558215615e21579182015b82811115615e20578251825591602001919060010190615e05565b5b509050615e2e9190615ecc565b5090565b6040518060c00160405280600073ffffffffffffffffffffffffffffffffffffffff168152602001600073ffffffffffffffffffffffffffffffffffffffff16815260200160008152602001600081526020016000815260200160006004811115615ec6577f4e487b7100000000000000000000000000000000000000000000000000000000600052602160045260246000fd5b81525090565b5b80821115615ee5576000816000905550600101615ecd565b5090565b6000615efc615ef784617185565b617154565b9050808382526020820190508260005b85811015615f3c5781518501615f2288826161ea565b845260208401935060208301925050600181019050615f0c565b5050509392505050565b6000615f59615f54846171b1565b617154565b90508083825260208201905082856020860282011115615f7857600080fd5b60005b85811015615fa85781615f8e88826162ea565b845260208401935060208301925050600181019050615f7b565b5050509392505050565b6000615fc5615fc0846171b1565b617154565b90508083825260208201905082856020860282011115615fe457600080fd5b60005b858110156160145781615ffa88826162ff565b845260208401935060208301925050600181019050615fe7565b5050509392505050565b600061603161602c846171dd565b617154565b90508281526020810184848401111561604957600080fd5b61605484828561747a565b509392505050565b600061606f61606a846171dd565b617154565b90508281526020810184848401111561608757600080fd5b616092848285617489565b509392505050565b6000813590506160a981617618565b92915050565b6000813590506160be8161762f565b92915050565b6000815190506160d38161762f565b92915050565b600082601f8301126160ea57600080fd5b81516160fa848260208601615ee9565b91505092915050565b600082601f83011261611457600080fd5b8135616124848260208601615f46565b91505092915050565b600082601f83011261613e57600080fd5b815161614e848260208601615fb2565b91505092915050565b60008151905061616681617646565b92915050565b60008135905061617b8161765d565b92915050565b60008151905061619081617674565b92915050565b600082601f8301126161a757600080fd5b81356161b784826020860161601e565b91505092915050565b600082601f8301126161d157600080fd5b81516161e184826020860161605c565b91505092915050565b600060e082840312156161fc57600080fd5b6162066040617154565b9050600082015167ffffffffffffffff81111561622257600080fd5b61622e848285016161c0565b60008301525060206162428482850161624e565b60208301525092915050565b600060c0828403121561626057600080fd5b61626a60c0617154565b9050600061627a848285016160c4565b600083015250602061628e848285016160c4565b60208301525060406162a2848285016162ff565b60408301525060606162b6848285016162ff565b60608301525060806162ca848285016162ff565b60808301525060a06162de84828501616181565b60a08301525092915050565b6000813590506162f981617684565b92915050565b60008151905061630e81617684565b92915050565b60006020828403121561632657600080fd5b60006163348482850161609a565b91505092915050565b6000806000806080858703121561635357600080fd5b6000616361878288016160af565b9450506020616372878288016162ea565b935050604085013567ffffffffffffffff81111561638f57600080fd5b61639b87828801616103565b925050606085013567ffffffffffffffff8111156163b857600080fd5b6163c487828801616196565b91505092959194509250565b6000602082840312156163e257600080fd5b600082015167ffffffffffffffff8111156163fc57600080fd5b616408848285016160d9565b91505092915050565b60006020828403121561642357600080fd5b600082015167ffffffffffffffff81111561643d57600080fd5b6164498482850161612d565b91505092915050565b60006020828403121561646457600080fd5b600061647284828501616157565b91505092915050565b6000806040838503121561648e57600080fd5b600061649c8582860161616c565b92505060206164ad8582860161609a565b9150509250929050565b6000602082840312156164c957600080fd5b600082013567ffffffffffffffff8111156164e357600080fd5b6164ef84828501616196565b91505092915050565b6000806040838503121561650b57600080fd5b600083013567ffffffffffffffff81111561652557600080fd5b61653185828601616196565b9250506020616542858286016162ea565b9150509250929050565b60008060006060848603121561656157600080fd5b600084013567ffffffffffffffff81111561657b57600080fd5b61658786828701616196565b9350506020616598868287016162ea565b92505060406165a9868287016162ea565b9150509250925092565b6000602082840312156165c557600080fd5b60006165d3848285016162ff565b91505092915050565b60006165e8838361664d565b60208301905092915050565b60006166008383616c29565b905092915050565b60006166148383616d5c565b60608301905092915050565b6166298161740e565b82525050565b616638816173a1565b82525050565b616647816173a1565b82525050565b6166568161738f565b82525050565b6166658161738f565b82525050565b600061667682617252565b61668081856172a5565b935061668b8361720d565b8060005b838110156166bc5781516166a388826165dc565b97506166ae8361727e565b92505060018101905061668f565b5085935050505092915050565b60006166d48261725d565b6166de81856172b6565b9350836020820285016166f08561721d565b8060005b8581101561672c578484038952815161670d85826165f4565b94506167188361728b565b925060208a019950506001810190506166f4565b50829750879550505050505092915050565b600061674982617268565b61675381856172c7565b935061675e8361722d565b8060005b8381101561678f5781516167768882616608565b975061678183617298565b925050600181019050616762565b5085935050505092915050565b6167a581617420565b82525050565b6167b481617444565b82525050565b6167c381617444565b82525050565b60006167d482617273565b6167de81856172d8565b93506167ee818560208601617489565b6167f7816175f3565b840191505092915050565b600061680d82617273565b61681781856172e9565b9350616827818560208601617489565b616830816175f3565b840191505092915050565b600061684682617273565b61685081856172fa565b9350616860818560208601617489565b80840191505092915050565b60008154616879816174bc565b61688381866172fa565b9450600182166000811461689e57600181146168af576168e2565b60ff198316865281860193506168e2565b6168b88561723d565b60005b838110156168da578154818901526001820191506020810190506168bb565b838801955050505b50505092915050565b60006168f86023836172e9565b91507f7468652073656c6c657220616e642062757965722063616e277420626520657160008301527f75616c00000000000000000000000000000000000000000000000000000000006020830152604082019050919050565b600061695e6017836172e9565b91507f6f7264657220696420616c7265616479206578697374730000000000000000006000830152602082019050919050565b600061699e6030836172e9565b91507f796f75206d75737420626520746865206f776e6572206f72207468652073656c60008301527f6c6572206f6620746865206f72646572000000000000000000000000000000006020830152604082019050919050565b6000616a04605e836172e9565b91507f4d6f6e6579426f7820697320636c6f736564206f722063616e63656c6c65642c60008301527f20796f752063616e27742063616c6c20746869732066756e6374696f6e20776860208301527f656e206974277320696e206f6e65206f662074686573652073746174657300006040830152606082019050919050565b6000616a906013836172e9565b91507f496e76616c696420756e6c6f636b20636f6465000000000000000000000000006000830152602082019050919050565b6000616ad06020836172e9565b91507f746865206f72646572206861736e2774207468652076616c69642073746174656000830152602082019050919050565b6000616b106025836172e9565b91507f6f6e6c7920746865206f776e65722063616e2063616c6c20746869732066756e60008301527f6374696f6e0000000000000000000000000000000000000000000000000000006020830152604082019050919050565b6000616b766012836172e9565b91507f696e73756666696369656e742066756e647300000000000000000000000000006000830152602082019050919050565b6000616bb66010836172e9565b91507f5472616e73666572206661696c65642e000000000000000000000000000000006000830152602082019050919050565b6000616bf66017836172e9565b91507f496e73756666696369656e7420636f696e2076616c75650000000000000000006000830152602082019050919050565b600060e0830160008301518482036000860152616c4682826167c9565b9150506020830151616c5b6020860182616c66565b508091505092915050565b60c082016000820151616c7c600085018261662f565b506020820151616c8f602085018261662f565b506040820151616ca26040850182616d9e565b506060820151616cb56060850182616d9e565b506080820151616cc86080850182616d9e565b5060a0820151616cdb60a08501826167ab565b50505050565b60c082016000820151616cf7600085018261662f565b506020820151616d0a602085018261662f565b506040820151616d1d6040850182616d9e565b506060820151616d306060850182616d9e565b506080820151616d436080850182616d9e565b5060a0820151616d5660a08501826167ab565b50505050565b606082016000820151616d72600085018261662f565b506020820151616d856020850182616d9e565b506040820151616d986040850182616d9e565b50505050565b616da781617404565b82525050565b616db681617404565b82525050565b6000616dc8828461683b565b915081905092915050565b6000616ddf828461686c565b915081905092915050565b6000602082019050616dff600083018461665c565b92915050565b6000604082019050616e1a6000830185616620565b616e276020830184616dad565b9392505050565b60006020820190508181036000830152616e4881846166c9565b905092915050565b60006020820190508181036000830152616e6a818461673e565b905092915050565b6000602082019050616e87600083018461679c565b92915050565b6000602082019050616ea260008301846167ba565b92915050565b60006020820190508181036000830152616ec28184616802565b905092915050565b60006060820190508181036000830152616ee48186616802565b9050616ef3602083018561663e565b616f00604083018461663e565b949350505050565b60006080820190508181036000830152616f228187616802565b9050616f316020830186616dad565b616f3e604083018561665c565b616f4b6060830184616dad565b95945050505050565b60006060820190508181036000830152616f6e8186616802565b9050616f7d6020830185616dad565b616f8a6040830184616dad565b949350505050565b60006020820190508181036000830152616fab816168eb565b9050919050565b60006020820190508181036000830152616fcb81616951565b9050919050565b60006020820190508181036000830152616feb81616991565b9050919050565b6000602082019050818103600083015261700b816169f7565b9050919050565b6000602082019050818103600083015261702b81616a83565b9050919050565b6000602082019050818103600083015261704b81616ac3565b9050919050565b6000602082019050818103600083015261706b81616b03565b9050919050565b6000602082019050818103600083015261708b81616b69565b9050919050565b600060208201905081810360008301526170ab81616ba9565b9050919050565b600060208201905081810360008301526170cb81616be9565b9050919050565b600060c0820190506170e76000830184616ce1565b92915050565b60006020820190506171026000830184616dad565b92915050565b600060808201905061711d6000830187616dad565b818103602083015261712f818661666b565b905061713e604083018561665c565b61714b6060830184616dad565b95945050505050565b6000604051905081810181811067ffffffffffffffff8211171561717b5761717a6175c4565b5b8060405250919050565b600067ffffffffffffffff8211156171a05761719f6175c4565b5b602082029050602081019050919050565b600067ffffffffffffffff8211156171cc576171cb6175c4565b5b602082029050602081019050919050565b600067ffffffffffffffff8211156171f8576171f76175c4565b5b601f19601f8301169050602081019050919050565b6000819050602082019050919050565b6000819050602082019050919050565b6000819050602082019050919050565b60008190508160005260206000209050919050565b600081519050919050565b600081519050919050565b600081519050919050565b600081519050919050565b6000602082019050919050565b6000602082019050919050565b6000602082019050919050565b600082825260208201905092915050565b600082825260208201905092915050565b600082825260208201905092915050565b600082825260208201905092915050565b600082825260208201905092915050565b600081905092915050565b600061731082617404565b915061731b83617404565b9250827fffffffffffffffffffffffffffffffffffffffffffffffffffffffffffffffff038211156173505761734f617537565b5b828201905092915050565b600061736682617404565b915061737183617404565b92508282101561738457617383617537565b5b828203905092915050565b600061739a826173e4565b9050919050565b60006173ac826173e4565b9050919050565b60008115159050919050565b60006173ca8261738f565b9050919050565b60008190506173df82617604565b919050565b600073ffffffffffffffffffffffffffffffffffffffff82169050919050565b6000819050919050565b600061741982617456565b9050919050565b600061742b82617432565b9050919050565b600061743d826173e4565b9050919050565b600061744f826173d1565b9050919050565b600061746182617468565b9050919050565b6000617473826173e4565b9050919050565b82818337600083830152505050565b60005b838110156174a757808201518184015260208101905061748c565b838111156174b6576000848401525b50505050565b600060028204905060018216806174d457607f821691505b602082108114156174e8576174e7617595565b5b50919050565b60006174f982617404565b91507fffffffffffffffffffffffffffffffffffffffffffffffffffffffffffffffff82141561752c5761752b617537565b5b600182019050919050565b7f4e487b7100000000000000000000000000000000000000000000000000000000600052601160045260246000fd5b7f4e487b7100000000000000000000000000000000000000000000000000000000600052602160045260246000fd5b7f4e487b7100000000000000000000000000000000000000000000000000000000600052602260045260246000fd5b7f4e487b7100000000000000000000000000000000000000000000000000000000600052604160045260246000fd5b6000601f19601f8301169050919050565b6005811061761557617614617566565b5b50565b6176218161738f565b811461762c57600080fd5b50565b617638816173a1565b811461764357600080fd5b50565b61764f816173b3565b811461765a57600080fd5b50565b617666816173bf565b811461767157600080fd5b50565b6005811061768157600080fd5b50565b61768d81617404565b811461769857600080fd5b5056fea2646970667358221220f585afe7ea02da14dc25137249b86bc319933b4a236234eb255177671389189464736f6c63430008000033",
  "linkReferences": {},
  "deployedLinkReferences": {}
}