{
  "contractName": "MoneyBox",
  "abi": [
    {
      "inputs": [],
      "name": "InvalidState",
      "type": "error"
    },
    {
      "inputs": [],
      "name": "OnlyOwner",
      "type": "error"
    },
    {
      "inputs": [],
      "name": "OnlySeller",
      "type": "error"
    },
    {
      "anonymous": false,
      "inputs": [],
      "name": "Aborted",
      "type": "event"
    },
    {
      "anonymous": false,
      "inputs": [
        {
          "indexed": false,
          "internalType": "uint256",
          "name": "id",
          "type": "uint256"
        }
      ],
      "name": "ItemReceived",
      "type": "event"
    },
    {
      "anonymous": false,
      "inputs": [
        {
          "indexed": false,
          "internalType": "uint256",
          "name": "id",
          "type": "uint256"
        },
        {
          "indexed": false,
          "internalType": "address payable",
          "name": "sellerAddress",
          "type": "address"
        },
        {
          "indexed": false,
          "internalType": "address payable",
          "name": "ownerAddress",
          "type": "address"
        },
        {
          "indexed": false,
          "internalType": "uint256",
          "name": "amount",
          "type": "uint256"
        },
        {
          "indexed": false,
          "internalType": "uint256",
          "name": "unlockCode",
          "type": "uint256"
        },
        {
          "indexed": false,
          "internalType": "enum SinglePayment.OrderState",
          "name": "state",
          "type": "uint8"
        }
      ],
      "name": "OrderConfirmed",
      "type": "event"
    },
    {
      "anonymous": false,
      "inputs": [
        {
          "indexed": false,
          "internalType": "uint256",
          "name": "id",
          "type": "uint256"
        }
      ],
      "name": "OrderCreated",
      "type": "event"
    },
    {
      "anonymous": false,
      "inputs": [
        {
          "indexed": false,
          "internalType": "uint256",
          "name": "id",
          "type": "uint256"
        }
      ],
      "name": "OwnerRefunded",
      "type": "event"
    },
    {
      "inputs": [
        {
          "internalType": "uint256",
          "name": "id",
          "type": "uint256"
        },
        {
          "internalType": "uint256",
          "name": "_unlockCode",
          "type": "uint256"
        }
      ],
      "name": "confirmReceived",
      "outputs": [],
      "stateMutability": "nonpayable",
      "type": "function"
    },
    {
      "inputs": [],
      "name": "contractBalance",
      "outputs": [
        {
          "internalType": "uint256",
          "name": "",
          "type": "uint256"
        }
      ],
      "stateMutability": "view",
      "type": "function"
    },
    {
      "inputs": [
        {
          "internalType": "uint256",
          "name": "id",
          "type": "uint256"
        }
      ],
      "name": "getAmountToPay",
      "outputs": [
        {
          "internalType": "uint256",
          "name": "",
          "type": "uint256"
        }
      ],
      "stateMutability": "view",
      "type": "function"
    },
    {
      "inputs": [
        {
          "internalType": "uint256",
          "name": "id",
          "type": "uint256"
        }
      ],
      "name": "getOrderById",
      "outputs": [
        {
          "components": [
            {
              "internalType": "address payable",
              "name": "sellerAddress",
              "type": "address"
            },
            {
              "internalType": "address payable",
              "name": "ownerAddress",
              "type": "address"
            },
            {
              "internalType": "uint256",
              "name": "amount",
              "type": "uint256"
            },
            {
              "internalType": "uint256",
              "name": "unlockCode",
              "type": "uint256"
            },
            {
              "internalType": "enum SinglePayment.OrderState",
              "name": "state",
              "type": "uint8"
            },
            {
              "internalType": "string",
              "name": "orderGUID",
              "type": "string"
            }
          ],
          "internalType": "struct SinglePayment.Order",
          "name": "",
          "type": "tuple"
        }
      ],
      "stateMutability": "view",
      "type": "function"
    },
    {
      "inputs": [],
      "name": "getOrderCount",
      "outputs": [
        {
          "internalType": "uint256",
          "name": "",
          "type": "uint256"
        }
      ],
      "stateMutability": "view",
      "type": "function"
    },
    {
      "inputs": [
        {
          "internalType": "uint256",
          "name": "id",
          "type": "uint256"
        }
      ],
      "name": "getOrderState",
      "outputs": [
        {
          "internalType": "enum SinglePayment.OrderState",
          "name": "",
          "type": "uint8"
        }
      ],
      "stateMutability": "view",
      "type": "function"
    },
    {
      "inputs": [
        {
          "internalType": "uint256",
          "name": "id",
          "type": "uint256"
        }
      ],
      "name": "getOwnerAddress",
      "outputs": [
        {
          "internalType": "address",
          "name": "",
          "type": "address"
        }
      ],
      "stateMutability": "view",
      "type": "function"
    },
    {
      "inputs": [
        {
          "internalType": "uint256",
          "name": "id",
          "type": "uint256"
        }
      ],
      "name": "getSellerAddress",
      "outputs": [
        {
          "internalType": "address",
          "name": "",
          "type": "address"
        }
      ],
      "stateMutability": "view",
      "type": "function"
    },
    {
      "inputs": [
        {
          "internalType": "uint256",
          "name": "id",
          "type": "uint256"
        }
      ],
      "name": "getUnlockCode",
      "outputs": [
        {
          "internalType": "uint256",
          "name": "",
          "type": "uint256"
        }
      ],
      "stateMutability": "view",
      "type": "function"
    },
    {
      "inputs": [
        {
          "internalType": "address payable",
          "name": "_seller",
          "type": "address"
        },
        {
          "internalType": "uint256",
          "name": "_amount",
          "type": "uint256"
        },
        {
          "internalType": "string",
          "name": "_orderGUID",
          "type": "string"
        }
      ],
      "name": "newOrder",
      "outputs": [],
      "stateMutability": "payable",
      "type": "function"
    },
    {
      "inputs": [
        {
          "internalType": "uint256",
          "name": "id",
          "type": "uint256"
        }
      ],
      "name": "refundOwner",
      "outputs": [],
      "stateMutability": "nonpayable",
      "type": "function"
    }
  ],
  "bytecode": "0x6080604052600060025534801561001557600080fd5b50611077806100256000396000f3fe60806040526004361061009c5760003560e01c80638d0a5fbb116100645780638d0a5fbb14610187578063a675364d1461019c578063d7062e27146101ea578063dd550958146101fd578063f000fd0c14610236578063f47ab6801461025657600080fd5b8063263ab5a0146100a157806342b50a7a146100e55780635a51430714610112578063810bd6af146101345780638b7afe2e14610174575b600080fd5b3480156100ad57600080fd5b506100d26100bc366004610d37565b6000908152600360208190526040909120015490565b6040519081526020015b60405180910390f35b3480156100f157600080fd5b50610105610100366004610d37565b610286565b6040516100dc9190610d88565b34801561011e57600080fd5b5061013261012d366004610e2f565b6103d8565b005b34801561014057600080fd5b5061016761014f366004610d37565b60009081526003602052604090206004015460ff1690565b6040516100dc9190610e51565b34801561018057600080fd5b50476100d2565b34801561019357600080fd5b506002546100d2565b3480156101a857600080fd5b506101d26101b7366004610d37565b6000908152600360205260409020546001600160a01b031690565b6040516001600160a01b0390911681526020016100dc565b6101326101f8366004610e7b565b61071d565b34801561020957600080fd5b506101d2610218366004610d37565b6000908152600360205260409020600101546001600160a01b031690565b34801561024257600080fd5b50610132610251366004610d37565b6109ae565b34801561026257600080fd5b506100d2610271366004610d37565b60009081526003602052604090206002015490565b6102bf6040805160c081018252600080825260208201819052918101829052606081018290529060808201908152602001606081525090565b600082815260036020818152604092839020835160c08101855281546001600160a01b039081168252600183015416928101929092526002810154938201939093528282015460608201526004830154909291608084019160ff169081111561032a5761032a610d50565b600381111561033b5761033b610d50565b815260200160058201805461034f90610f54565b80601f016020809104026020016040519081016040528092919081815260200182805461037b90610f54565b80156103c85780601f1061039d576101008083540402835291602001916103c8565b820191906000526020600020905b8154815290600101906020018083116103ab57829003601f168201915b5050505050815250509050919050565b60008281526003602052604090206001015482906001600160a01b0316331461041c5760405162461bcd60e51b815260040161041390610f8f565b60405180910390fd5b8260018060008381526003602081905260409091206004015460ff169081111561044857610448610d50565b146104955760405162461bcd60e51b815260206004820181905260248201527f746865206f72646572206861736e2774207468652076616c69642073746174656044820152606401610413565b6000858152600360208181526040808420815160c08101835281546001600160a01b03908116825260018301541693810193909352600281015491830191909152808301546060830152600481015491929091608084019160ff9091169081111561050257610502610d50565b600381111561051357610513610d50565b815260200160058201805461052790610f54565b80601f016020809104026020016040519081016040528092919081815260200182805461055390610f54565b80156105a05780601f10610575576101008083540402835291602001916105a0565b820191906000526020600020905b81548152906001019060200180831161058357829003601f168201915b5050505050815250509050806060015185146105f45760405162461bcd60e51b8152602060048201526013602482015272496e76616c696420756e6c6f636b20636f646560681b6044820152606401610413565b805160408083015190516001600160a01b039092169181156108fc0291906000818181858888f19350505050158015610631573d6000803e3d6000fd5b5060026080820181905250600086815260036020818152604092839020845181546001600160a01b039182166001600160a01b03199182161783559286015160018084018054929093169190941617905592840151600284015560608401518383015560808401516004840180548695949293919260ff19909116919084908111156106bf576106bf610d50565b021790555060a082015180516106df916005840191602090910190610c9e565b50506040518781527f01e74d1f4f418e68629246efc4a29d98199e9c9b9c3653bdbfee74d2ad4ac6a3915060200160405180910390a1505050505050565b82336001600160a01b0382168114156107845760405162461bcd60e51b815260206004820152602360248201527f7468652073656c6c657220616e642062757965722063616e27742062652065716044820152621d585b60ea1b6064820152608401610413565b338481318111156107cc5760405162461bcd60e51b8152602060048201526012602482015271696e73756666696369656e742066756e647360701b6044820152606401610413565b8534101561081c5760405162461bcd60e51b815260206004820152601760248201527f496e73756666696369656e7420636f696e2076616c75650000000000000000006044820152606401610413565b6000861161086c5760405162461bcd60e51b815260206004820152601760248201527f6f7264657220616d6f756e7420697320696e76616c69640000000000000000006044820152606401610413565b6002805490600061087c83610fd4565b90915550506040805160c0810182526001600160a01b0389168152336020820152908101879052436060820152608081016001815260209081018790526002805460009081526003808452604091829020855181546001600160a01b039182166001600160a01b0319918216178355958701516001808401805492909316919097161790559185015192820192909255606084015181830155608084015160048201805492949193909260ff19169190849081111561093d5761093d610d50565b021790555060a0820151805161095d916005840191602090910190610c9e565b509050507f78c6c9a259dd2b28f232bb3c4900a90a44c8dbea36e17d755c275c205b99f60960025488338943600160405161099d96959493929190610ffd565b60405180910390a150505050505050565b60008181526003602052604090206001015481906001600160a01b031633146109e95760405162461bcd60e51b815260040161041390610f8f565b8160018060008381526003602081905260409091206004015460ff1690811115610a1557610a15610d50565b14610a625760405162461bcd60e51b815260206004820181905260248201527f746865206f72646572206861736e2774207468652076616c69642073746174656044820152606401610413565b6000848152600360208181526040808420815160c08101835281546001600160a01b03908116825260018301541693810193909352600281015491830191909152808301546060830152600481015491929091608084019160ff90911690811115610acf57610acf610d50565b6003811115610ae057610ae0610d50565b8152602001600582018054610af490610f54565b80601f0160208091040260200160405190810160405280929190818152602001828054610b2090610f54565b8015610b6d5780601f10610b4257610100808354040283529160200191610b6d565b820191906000526020600020905b815481529060010190602001808311610b5057829003601f168201915b505050505081525050905080602001516001600160a01b03166108fc82604001519081150290604051600060405180830381858888f19350505050158015610bb9573d6000803e3d6000fd5b5060036080820181815260008781526020838152604091829020855181546001600160a01b03199081166001600160a01b03928316178355928701516001808401805490951691909216179092559185015160028301556060850151828501559151600482018054869593949293919260ff19909116918490811115610c4157610c41610d50565b021790555060a08201518051610c61916005840191602090910190610c9e565b50506040518681527fe30b4047fe3f241feaa6f773d660f129072aaf8b1fb1ef2d6c19131ff475b773915060200160405180910390a15050505050565b828054610caa90610f54565b90600052602060002090601f016020900481019282610ccc5760008555610d12565b82601f10610ce557805160ff1916838001178555610d12565b82800160010185558215610d12579182015b82811115610d12578251825591602001919060010190610cf7565b50610d1e929150610d22565b5090565b5b80821115610d1e5760008155600101610d23565b600060208284031215610d4957600080fd5b5035919050565b634e487b7160e01b600052602160045260246000fd5b60048110610d8457634e487b7160e01b600052602160045260246000fd5b9052565b6000602080835260018060a01b03808551168285015280828601511660408501525060408401516060840152606084015160808401526080840151610dd060a0850182610d66565b5060a084015160c08085015280518060e086015260005b81811015610e045782810184015186820161010001528301610de7565b81811115610e1757600061010083880101525b50601f01601f19169390930161010001949350505050565b60008060408385031215610e4257600080fd5b50508035926020909101359150565b60208101610e5f8284610d66565b92915050565b634e487b7160e01b600052604160045260246000fd5b600080600060608486031215610e9057600080fd5b83356001600160a01b0381168114610ea757600080fd5b925060208401359150604084013567ffffffffffffffff80821115610ecb57600080fd5b818601915086601f830112610edf57600080fd5b813581811115610ef157610ef1610e65565b604051601f8201601f19908116603f01168101908382118183101715610f1957610f19610e65565b81604052828152896020848701011115610f3257600080fd5b8260208601602083013760006020848301015280955050505050509250925092565b600181811c90821680610f6857607f821691505b60208210811415610f8957634e487b7160e01b600052602260045260246000fd5b50919050565b60208082526025908201527f6f6e6c7920746865206f776e65722063616e2063616c6c20746869732066756e60408201526431ba34b7b760d91b606082015260800190565b6000600019821415610ff657634e487b7160e01b600052601160045260246000fd5b5060010190565b8681526001600160a01b03868116602083015285166040820152606081018490526080810183905260c0810161103660a0830184610d66565b97965050505050505056fea2646970667358221220144c78eb1bc245b039e3b55e9708d0da73dc08fa06147d6709e0ec24484df6f464736f6c634300080a0033",
  "immutableReferences": {},
  "source": "// SPDX-License-Identifier: GPL-3.0\n// define which compiler to use\n// VERSION = 1.0.0\npragma solidity >=0.7.0 <0.9.0;\nimport \"./SinglePayment.sol\";\n \ncontract MoneyBox is SinglePayment {\n\n\n\n}",
  "sourcePath": "/home/lubu/Scrivania/Universit/Ingegneria_del_software/ShopChain/smart-contract/contracts/MoneyBox.sol",
  "compiler": {
    "name": "solc",
    "version": "0.8.10+commit.fc410830.Emscripten.clang"
  },
  "schemaVersion": "3.4.4",
  "updatedAt": "2022-02-08T15:37:39.409Z",
  "devdoc": {
    "kind": "dev",
    "methods": {},
    "version": 1
  },
  "userdoc": {
    "errors": {
      "InvalidState()": [
        {
          "notice": "The function cannot be called at the current state."
        }
      ],
      "OnlyOwner()": [
        {
          "notice": "only the owner of the contract can call this function"
        }
      ],
      "OnlySeller()": [
        {
          "notice": "only the seller can call this function"
        }
      ]
    },
    "kind": "user",
    "methods": {
      "confirmReceived(uint256,uint256)": {
        "notice": "Confirm that the smart contract's owner received the item. This will release the locked ether."
      },
      "newOrder(address,uint256,string)": {
        "notice": "Confirm the purchase as buyer. The ether will be locked until confirmReceived is called."
      },
      "refundOwner(uint256)": {
        "notice": "Refound owner if he decided to cancel the order before the Closed state (before unlock)"
      }
    },
    "version": 1
  }
}