{
  "contractName": "MoneyBox",
  "abi": [
    {
      "inputs": [],
      "name": "InvalidState",
      "type": "error"
    },
    {
      "inputs": [],
      "name": "OnlyOwner",
      "type": "error"
    },
    {
      "inputs": [],
      "name": "OnlySeller",
      "type": "error"
    },
    {
      "anonymous": false,
      "inputs": [],
      "name": "Aborted",
      "type": "event"
    },
    {
      "anonymous": false,
      "inputs": [
        {
          "indexed": false,
          "internalType": "uint256",
          "name": "id",
          "type": "uint256"
        }
      ],
      "name": "ItemReceived",
      "type": "event"
    },
    {
      "anonymous": false,
      "inputs": [
        {
          "indexed": false,
          "internalType": "uint256",
          "name": "id",
          "type": "uint256"
        },
        {
          "indexed": false,
          "internalType": "address payable",
          "name": "sellerAddress",
          "type": "address"
        },
        {
          "indexed": false,
          "internalType": "address payable",
          "name": "ownerAddress",
          "type": "address"
        },
        {
          "indexed": false,
          "internalType": "uint256",
          "name": "amount",
          "type": "uint256"
        },
        {
          "indexed": false,
          "internalType": "uint256",
          "name": "unlockCode",
          "type": "uint256"
        },
        {
          "indexed": false,
          "internalType": "enum SinglePayment.OrderState",
          "name": "state",
          "type": "uint8"
        }
      ],
      "name": "OrderConfirmed",
      "type": "event"
    },
    {
      "anonymous": false,
      "inputs": [
        {
          "indexed": false,
          "internalType": "uint256",
          "name": "id",
          "type": "uint256"
        }
      ],
      "name": "OrderCreated",
      "type": "event"
    },
    {
      "anonymous": false,
      "inputs": [
        {
          "indexed": false,
          "internalType": "uint256",
          "name": "id",
          "type": "uint256"
        }
      ],
      "name": "OwnerRefunded",
      "type": "event"
    },
    {
      "inputs": [
        {
          "internalType": "uint256",
          "name": "id",
          "type": "uint256"
        },
        {
          "internalType": "uint256",
          "name": "_unlockCode",
          "type": "uint256"
        }
      ],
      "name": "confirmReceived",
      "outputs": [],
      "stateMutability": "nonpayable",
      "type": "function"
    },
    {
      "inputs": [],
      "name": "contractBalance",
      "outputs": [
        {
          "internalType": "uint256",
          "name": "",
          "type": "uint256"
        }
      ],
      "stateMutability": "view",
      "type": "function"
    },
    {
      "inputs": [
        {
          "internalType": "uint256",
          "name": "id",
          "type": "uint256"
        }
      ],
      "name": "getAmountToPay",
      "outputs": [
        {
          "internalType": "uint256",
          "name": "",
          "type": "uint256"
        }
      ],
      "stateMutability": "view",
      "type": "function"
    },
    {
      "inputs": [
        {
          "internalType": "uint256",
          "name": "id",
          "type": "uint256"
        }
      ],
      "name": "getOrderById",
      "outputs": [
        {
          "components": [
            {
              "internalType": "address payable",
              "name": "sellerAddress",
              "type": "address"
            },
            {
              "internalType": "address payable",
              "name": "ownerAddress",
              "type": "address"
            },
            {
              "internalType": "uint256",
              "name": "amount",
              "type": "uint256"
            },
            {
              "internalType": "uint256",
              "name": "unlockCode",
              "type": "uint256"
            },
            {
              "internalType": "enum SinglePayment.OrderState",
              "name": "state",
              "type": "uint8"
            }
          ],
          "internalType": "struct SinglePayment.Order",
          "name": "",
          "type": "tuple"
        }
      ],
      "stateMutability": "view",
      "type": "function"
    },
    {
      "inputs": [],
      "name": "getOrderCount",
      "outputs": [
        {
          "internalType": "uint256",
          "name": "",
          "type": "uint256"
        }
      ],
      "stateMutability": "view",
      "type": "function"
    },
    {
      "inputs": [
        {
          "internalType": "uint256",
          "name": "id",
          "type": "uint256"
        }
      ],
      "name": "getOrderState",
      "outputs": [
        {
          "internalType": "enum SinglePayment.OrderState",
          "name": "",
          "type": "uint8"
        }
      ],
      "stateMutability": "view",
      "type": "function"
    },
    {
      "inputs": [
        {
          "internalType": "uint256",
          "name": "id",
          "type": "uint256"
        }
      ],
      "name": "getOwnerAddress",
      "outputs": [
        {
          "internalType": "address",
          "name": "",
          "type": "address"
        }
      ],
      "stateMutability": "view",
      "type": "function"
    },
    {
      "inputs": [
        {
          "internalType": "uint256",
          "name": "id",
          "type": "uint256"
        }
      ],
      "name": "getSellerAddress",
      "outputs": [
        {
          "internalType": "address",
          "name": "",
          "type": "address"
        }
      ],
      "stateMutability": "view",
      "type": "function"
    },
    {
      "inputs": [
        {
          "internalType": "uint256",
          "name": "id",
          "type": "uint256"
        }
      ],
      "name": "getUnlockCode",
      "outputs": [
        {
          "internalType": "uint256",
          "name": "",
          "type": "uint256"
        }
      ],
      "stateMutability": "view",
      "type": "function"
    },
    {
      "inputs": [
        {
          "internalType": "address payable",
          "name": "_seller",
          "type": "address"
        },
        {
          "internalType": "uint256",
          "name": "_amount",
          "type": "uint256"
        }
      ],
      "name": "newOrder",
      "outputs": [],
      "stateMutability": "payable",
      "type": "function"
    },
    {
      "inputs": [
        {
          "internalType": "uint256",
          "name": "id",
          "type": "uint256"
        }
      ],
      "name": "refundOwner",
      "outputs": [],
      "stateMutability": "nonpayable",
      "type": "function"
    }
  ],
  "bytecode": "0x6080604052600060025534801561001557600080fd5b50610c69806100256000396000f3fe60806040526004361061009c5760003560e01c80638d0a5fbb116100645780638d0a5fbb14610187578063a675364d1461019c578063dd550958146101ea578063ebf7c3de14610223578063f000fd0c14610236578063f47ab6801461025657600080fd5b8063263ab5a0146100a157806342b50a7a146100e55780635a51430714610112578063810bd6af146101345780638b7afe2e14610174575b600080fd5b3480156100ad57600080fd5b506100d26100bc366004610a74565b6000908152600360208190526040909120015490565b6040519081526020015b60405180910390f35b3480156100f157600080fd5b50610105610100366004610a74565b610286565b6040516100dc9190610ac5565b34801561011e57600080fd5b5061013261012d366004610b13565b61033a565b005b34801561014057600080fd5b5061016761014f366004610a74565b60009081526003602052604090206004015460ff1690565b6040516100dc9190610b35565b34801561018057600080fd5b50476100d2565b34801561019357600080fd5b506002546100d2565b3480156101a857600080fd5b506101d26101b7366004610a74565b6000908152600360205260409020546001600160a01b031690565b6040516001600160a01b0390911681526020016100dc565b3480156101f657600080fd5b506101d2610205366004610a74565b6000908152600360205260409020600101546001600160a01b031690565b610132610231366004610b49565b6105d2565b34801561024257600080fd5b50610132610251366004610a74565b610832565b34801561026257600080fd5b506100d2610271366004610a74565b60009081526003602052604090206002015490565b6102b56040805160a0810182526000808252602082018190529181018290526060810182905290608082015290565b600082815260036020818152604092839020835160a08101855281546001600160a01b039081168252600183015416928101929092526002810154938201939093528282015460608201526004830154909291608084019160ff169081111561032057610320610a8d565b600381111561033157610331610a8d565b90525092915050565b60008281526003602052604090206001015482906001600160a01b0316331461037e5760405162461bcd60e51b815260040161037590610b81565b60405180910390fd5b8260018060008381526003602081905260409091206004015460ff16908111156103aa576103aa610a8d565b146103f75760405162461bcd60e51b815260206004820181905260248201527f746865206f72646572206861736e2774207468652076616c69642073746174656044820152606401610375565b6000858152600360208181526040808420815160a08101835281546001600160a01b03908116825260018301541693810193909352600281015491830191909152808301546060830152600481015491929091608084019160ff9091169081111561046457610464610a8d565b600381111561047557610475610a8d565b815250509050806060015185146104c45760405162461bcd60e51b8152602060048201526013602482015272496e76616c696420756e6c6f636b20636f646560681b6044820152606401610375565b805160408083015190516001600160a01b039092169181156108fc0291906000818181858888f19350505050158015610501573d6000803e3d6000fd5b5060026080820181905250600086815260036020818152604092839020845181546001600160a01b039182166001600160a01b03199182161783559286015160018084018054929093169190941617905592840151600284015560608401518383015560808401516004840180548695949293919260ff199091169190849081111561058f5761058f610a8d565b0217905550506040518781527f01e74d1f4f418e68629246efc4a29d98199e9c9b9c3653bdbfee74d2ad4ac6a391506020015b60405180910390a1505050505050565b81336001600160a01b0382168114156106395760405162461bcd60e51b815260206004820152602360248201527f7468652073656c6c657220616e642062757965722063616e27742062652065716044820152621d585b60ea1b6064820152608401610375565b338381318111156106815760405162461bcd60e51b8152602060048201526012602482015271696e73756666696369656e742066756e647360701b6044820152606401610375565b843410156106d15760405162461bcd60e51b815260206004820152601760248201527f496e73756666696369656e7420636f696e2076616c75650000000000000000006044820152606401610375565b600085116107215760405162461bcd60e51b815260206004820152601760248201527f6f7264657220616d6f756e7420697320696e76616c69640000000000000000006044820152606401610375565b6002805490600061073183610bc6565b90915550506040805160a0810182526001600160a01b0388168152336020820152908101869052436060820152608081016001905260028054600090815260036020818152604092839020855181546001600160a01b039182166001600160a01b0319918216178355928701516001808401805492909316919094161790559285015193830193909355606084015182820155608084015160048301805493949193909260ff19909116919084908111156107ee576107ee610a8d565b02179055509050507f78c6c9a259dd2b28f232bb3c4900a90a44c8dbea36e17d755c275c205b99f6096002548733884360016040516105c296959493929190610bef565b60008181526003602052604090206001015481906001600160a01b0316331461086d5760405162461bcd60e51b815260040161037590610b81565b8160018060008381526003602081905260409091206004015460ff169081111561089957610899610a8d565b146108e65760405162461bcd60e51b815260206004820181905260248201527f746865206f72646572206861736e2774207468652076616c69642073746174656044820152606401610375565b6000848152600360208181526040808420815160a08101835281546001600160a01b03908116825260018301541693810193909352600281015491830191909152808301546060830152600481015491929091608084019160ff9091169081111561095357610953610a8d565b600381111561096457610964610a8d565b81525050905080602001516001600160a01b03166108fc82604001519081150290604051600060405180830381858888f193505050501580156109ab573d6000803e3d6000fd5b5060036080820181815260008781526020838152604091829020855181546001600160a01b03199081166001600160a01b03928316178355928701516001808401805490951691909216179092559185015160028301556060850151828501559151600482018054869593949293919260ff19909116918490811115610a3357610a33610a8d565b0217905550506040518681527fe30b4047fe3f241feaa6f773d660f129072aaf8b1fb1ef2d6c19131ff475b773915060200160405180910390a15050505050565b600060208284031215610a8657600080fd5b5035919050565b634e487b7160e01b600052602160045260246000fd5b60048110610ac157634e487b7160e01b600052602160045260246000fd5b9052565b81516001600160a01b03908116825260208084015190911690820152604080830151908201526060808301519082015260808083015160a0830191610b0c90840182610aa3565b5092915050565b60008060408385031215610b2657600080fd5b50508035926020909101359150565b60208101610b438284610aa3565b92915050565b60008060408385031215610b5c57600080fd5b82356001600160a01b0381168114610b7357600080fd5b946020939093013593505050565b60208082526025908201527f6f6e6c7920746865206f776e65722063616e2063616c6c20746869732066756e60408201526431ba34b7b760d91b606082015260800190565b6000600019821415610be857634e487b7160e01b600052601160045260246000fd5b5060010190565b8681526001600160a01b03868116602083015285166040820152606081018490526080810183905260c08101610c2860a0830184610aa3565b97965050505050505056fea2646970667358221220e41212ba04d280dd41b8fbb0fd460afb22eddbc75e11cd2fac0fdf5cf736224864736f6c634300080a0033",
  "immutableReferences": {},
  "source": "// SPDX-License-Identifier: GPL-3.0\n// define which compiler to use\n// VERSION = 1.0.0\npragma solidity >=0.7.0 <0.9.0;\nimport \"./SinglePayment.sol\";\n \ncontract MoneyBox is SinglePayment {\n\n\n\n}",
  "sourcePath": "/home/matteo/GitHubRepositories/swe-repos/smart-contract/contracts/MoneyBox.sol",
  "compiler": {
    "name": "solc",
    "version": "0.8.10+commit.fc410830.Emscripten.clang"
  },
  "schemaVersion": "3.4.4",
  "updatedAt": "2022-02-07T17:12:27.791Z",
  "devdoc": {
    "kind": "dev",
    "methods": {},
    "version": 1
  },
  "userdoc": {
    "errors": {
      "InvalidState()": [
        {
          "notice": "The function cannot be called at the current state."
        }
      ],
      "OnlyOwner()": [
        {
          "notice": "only the owner of the contract can call this function"
        }
      ],
      "OnlySeller()": [
        {
          "notice": "only the seller can call this function"
        }
      ]
    },
    "kind": "user",
    "methods": {
      "confirmReceived(uint256,uint256)": {
        "notice": "Confirm that the smart contract's owner received the item. This will release the locked ether."
      },
      "newOrder(address,uint256)": {
        "notice": "Confirm the purchase as buyer. The ether will be locked until confirmReceived is called."
      },
      "refundOwner(uint256)": {
        "notice": "Refound owner if he decided to cancel the order before the Closed state (before unlock)"
      }
    },
    "version": 1
  }
}