{
  "contractName": "vecchio",
  "abi": [
    {
      "inputs": [
        {
          "internalType": "address payable",
          "name": "_sellerAddress",
          "type": "address"
        },
        {
          "internalType": "uint256",
          "name": "_amount",
          "type": "uint256"
        }
      ],
      "stateMutability": "payable",
      "type": "constructor"
    },
    {
      "inputs": [],
      "name": "InvalidState",
      "type": "error"
    },
    {
      "inputs": [],
      "name": "OnlyOwner",
      "type": "error"
    },
    {
      "inputs": [],
      "name": "OnlySeller",
      "type": "error"
    },
    {
      "anonymous": false,
      "inputs": [],
      "name": "Aborted",
      "type": "event"
    },
    {
      "anonymous": false,
      "inputs": [],
      "name": "ItemReceived",
      "type": "event"
    },
    {
      "anonymous": false,
      "inputs": [],
      "name": "OwnerRefunded",
      "type": "event"
    },
    {
      "anonymous": false,
      "inputs": [],
      "name": "PurchaseConfirmed",
      "type": "event"
    },
    {
      "inputs": [],
      "name": "abort",
      "outputs": [],
      "stateMutability": "nonpayable",
      "type": "function"
    },
    {
      "inputs": [],
      "name": "confirmPurchase",
      "outputs": [],
      "stateMutability": "payable",
      "type": "function"
    },
    {
      "inputs": [
        {
          "internalType": "uint256",
          "name": "_unlockCode",
          "type": "uint256"
        }
      ],
      "name": "confirmReceived",
      "outputs": [],
      "stateMutability": "nonpayable",
      "type": "function"
    },
    {
      "inputs": [],
      "name": "refundOwner",
      "outputs": [],
      "stateMutability": "nonpayable",
      "type": "function"
    },
    {
      "inputs": [],
      "name": "balanceOf",
      "outputs": [
        {
          "internalType": "uint256",
          "name": "",
          "type": "uint256"
        }
      ],
      "stateMutability": "view",
      "type": "function"
    },
    {
      "inputs": [],
      "name": "getOwnerAddress",
      "outputs": [
        {
          "internalType": "address",
          "name": "",
          "type": "address"
        }
      ],
      "stateMutability": "view",
      "type": "function"
    },
    {
      "inputs": [],
      "name": "getSellerAddress",
      "outputs": [
        {
          "internalType": "address",
          "name": "",
          "type": "address"
        }
      ],
      "stateMutability": "view",
      "type": "function"
    },
    {
      "inputs": [],
      "name": "getAmountToPay",
      "outputs": [
        {
          "internalType": "uint256",
          "name": "",
          "type": "uint256"
        }
      ],
      "stateMutability": "view",
      "type": "function"
    },
    {
      "inputs": [],
      "name": "getContractState",
      "outputs": [
        {
          "internalType": "enum vecchio.ContractState",
          "name": "",
          "type": "uint8"
        }
      ],
      "stateMutability": "view",
      "type": "function"
    },
    {
      "inputs": [],
      "name": "getUnlockCode",
      "outputs": [
        {
          "internalType": "uint256",
          "name": "",
          "type": "uint256"
        }
      ],
      "stateMutability": "view",
      "type": "function"
    }
  ],
  "bytecode": "0x60806040526040516105ff3803806105ff83398101604081905261002291610063565b60018054336001600160a01b031991821617909155600080549091166001600160a01b0393909316929092179091556002556004805460ff1916905561009d565b6000806040838503121561007657600080fd5b82516001600160a01b038116811461008d57600080fd5b6020939093015192949293505050565b610553806100ac6000396000f3fe6080604052600436106100915760003560e01c80637f4e4849116100595780637f4e48491461013657806384b09e86146101565780638c47ddcc146101745780639de111b014610189578063d69606971461019e57600080fd5b80630c4f65bd1461009657806327dac36d146100cd57806335a063b4146100ef578063447f964814610104578063722713f714610123575b600080fd5b3480156100a257600080fd5b506001546001600160a01b03165b6040516001600160a01b0390911681526020015b60405180910390f35b3480156100d957600080fd5b506100ed6100e83660046104c6565b6101a6565b005b3480156100fb57600080fd5b506100ed61028f565b34801561011057600080fd5b506003545b6040519081526020016100c4565b34801561012f57600080fd5b5047610115565b34801561014257600080fd5b5060045460ff166040516100c491906104f5565b34801561016257600080fd5b506000546001600160a01b03166100b0565b34801561018057600080fd5b506100ed610367565b34801561019557600080fd5b50600254610115565b6100ed610440565b6001546001600160a01b031633146101d157604051635fc483c560e01b815260040160405180910390fd5b60018060045460ff1660038111156101eb576101eb6104df565b146102095760405163baf3f0f760e01b815260040160405180910390fd5b60035482148061021857600080fd5b600080546002546040516001600160a01b039092169281156108fc029290818181858888f19350505050158015610253573d6000803e3d6000fd5b506040517fe89152acd703c9d8c7d28829d443260b411454d45394e7995815140c8cbcbcf790600090a150506004805460ff1916600217905550565b6001546001600160a01b031633146102ba57604051635fc483c560e01b815260040160405180910390fd5b60008060045460ff1660038111156102d4576102d46104df565b146102f25760405163baf3f0f760e01b815260040160405180910390fd5b6040517f72c874aeff0b183a56e2b79c71b46e1aed4dee5e09862134b8821ba2fddbf8bf90600090a160048054600360ff199091161790556001546040516001600160a01b03909116904780156108fc02916000818181858888f19350505050158015610363573d6000803e3d6000fd5b5050565b6001546001600160a01b0316331461039257604051635fc483c560e01b815260040160405180910390fd5b60018060045460ff1660038111156103ac576103ac6104df565b146103ca5760405163baf3f0f760e01b815260040160405180910390fd5b6001546002546040516001600160a01b039092169181156108fc0291906000818181858888f19350505050158015610406573d6000803e3d6000fd5b506040517ff32fba586068b9a4ce3fc1eadeff0d08b9996db21f578389dca195a4f7c7a4ff90600090a1506004805460ff19166003179055565b60008060045460ff16600381111561045a5761045a6104df565b146104785760405163baf3f0f760e01b815260040160405180910390fd5b6002543410158061048857600080fd5b6040517fd5d55c8a68912e9a110618df8d5e2e83b8d83211c57a8ddd1203df92885dc88190600090a15050436003556004805460ff19166001179055565b6000602082840312156104d857600080fd5b5035919050565b634e487b7160e01b600052602160045260246000fd5b602081016004831061051757634e487b7160e01b600052602160045260246000fd5b9190529056fea26469706673582212207578785922fe210a25301aa34a39081a0ad0f2ff6fb178d13ee39115cb33871c64736f6c634300080a0033",
  "immutableReferences": {},
  "source": "// SPDX-License-Identifier: GPL-3.0\n// define which compiler to use\n// VERSION = 1.0.0\npragma solidity >=0.7.0 <0.9.0;\n \ncontract vecchio {\n    \n    address payable private sellerAddress;\n    address payable private contractOwnerAddress;\n    uint private amount;\n    uint private unlockCode;\n\n    enum ContractState {Created, Filled, Closed, Canceled}\n\n    ContractState private state;\n\n    /// only the owner of the contract can call this function\n    error OnlyOwner();\n    /// only the seller can call this function\n    error OnlySeller();\n    /// The function cannot be called at the current state.\n    error InvalidState();\n\n    modifier onlyOwner() {\n        if (msg.sender != contractOwnerAddress)\n            revert OnlyOwner();\n        _;\n    }\n\n    modifier onlySeller() {\n        if (msg.sender != sellerAddress)\n            revert OnlySeller();\n        _;\n    }\n\n    modifier inState(ContractState state_) {\n        if (state != state_)\n            revert InvalidState();\n        _;\n    }\n\n    modifier condition(bool condition_) {\n        require(condition_);\n        _;\n    }\n\n    /**************************************\n     *              EVENTS\n     *************************************/\n    event Aborted();\n    event PurchaseConfirmed();\n    event ItemReceived();\n    event OwnerRefunded();\n\n    /**************************************\n     *             FUNCTIONS\n     *************************************/\n\n    constructor(address payable _sellerAddress, uint _amount) payable {\n        contractOwnerAddress = payable(msg.sender);\n        sellerAddress = _sellerAddress;\n        amount = _amount;\n        state = ContractState.Created;\n    }\n\n    /// Abort the purchase and reclaim the ether (timer/dashboard)\n    /// Can only be called by the smart contract owner before\n    /// the contract is filled.\n    function abort()\n        external\n        onlyOwner\n        inState(ContractState.Created)\n    {\n        emit Aborted();\n        state = ContractState.Canceled;\n        // We use transfer here directly. It is\n        // reentrancy-safe, because it is the\n        // last call in this function and we\n        // already changed the state.\n        contractOwnerAddress.transfer(address(this).balance);\n    }\n\n    /// Confirm the purchase as buyer.\n    /// Transaction has to include `2 * value` ether.\n    /// The ether will be locked until confirmReceived\n    /// is called.\n    function confirmPurchase()\n        external\n        inState(ContractState.Created)\n        condition(msg.value >= amount)\n        payable\n    {\n        //address(this).transfer(msg.value);        // this transfer is implicit\n        emit PurchaseConfirmed();\n        unlockCode = block.number;\n        state = ContractState.Filled;\n    }\n\n    /// Confirm that the smart contract's owner received the item.\n    /// This will release the locked ether.\n    function confirmReceived(uint _unlockCode)\n        external\n        onlyOwner\n        inState(ContractState.Filled)\n        condition(_unlockCode == unlockCode)\n    {\n        sellerAddress.transfer(amount);\n        emit ItemReceived();\n        // It is important to change the state first because\n        // otherwise, the contracts called using `send` below\n        // can call in again here.\n        state = ContractState.Closed;\n    }\n\n    /// This function refunds the seller, i.e.\n    /// pays back the locked funds of the seller.\n    function refundOwner()\n        external\n        onlyOwner\n        inState(ContractState.Filled)\n    {\n        contractOwnerAddress.transfer(amount);\n        emit OwnerRefunded();\n        // It is important to change the state first because\n        // otherwise, the contracts called using `send` below\n        // can call in again here.\n        state = ContractState.Canceled;\n    }\n\n    /**************************************\n     *             UTILITY\n     *************************************/\n    /*\n    function stringCompare (string memory str1, string memory str2) internal pure returns(bool) {\n        return keccak256(abi.encodePacked(str1)) == keccak256(abi.encodePacked(str2));\n    }\n    */\n\n\n    /**************************************\n     *             GETTER\n     *************************************/\n\n    function balanceOf() external view returns(uint) {\n        return address(this).balance;\n    }\n\n    function getOwnerAddress() external view returns(address) {\n        return contractOwnerAddress;\n    }\n\n    function getSellerAddress() external view returns(address) {\n        return sellerAddress;\n    }\n\n    function getAmountToPay() external view returns(uint) {\n        return amount;\n    }\n\n    function getContractState() external view returns(ContractState) {\n        return state;\n    }\n\n    function getUnlockCode() external view returns(uint) {\n        return unlockCode;\n    }\n\n    /*\n    event UnlockContract (\n        uint date,\n        address to,\n        uint amount\n    );\n\n    function setParameters(address payable _sellerAddress, uint _amount) public {\n        sellerAddress = _sellerAddress;\n        amount = _amount;\n    }\n\n    function getSellerAddress() public view returns (address) {\n        return sellerAddress;\n    }\n\n    function getAmount() public view returns (uint) {\n        return amount;\n    }\n\n    function sendToContract() public payable {\n        //address(this).transfer(msg.value);  // msg.sender is implicity\n    }\n\n    function unlockToSeller(string memory unlockCode) external {\n        require(\n            keccak256(abi.encodePacked(unlockCode)) == keccak256(abi.encodePacked(\"12345\")),\n            \"Wrong unlock code\"\n        );\n\n        sellerAddress.transfer(amount);\n        emit UnlockContract(block.timestamp, sellerAddress, amount);\n    }\n\n    */\n\n}\n\n// Helper functions are defined outside of a contract\n",
  "sourcePath": "/home/matteo/GitHubRepositories/swe-repos/smart-contract/contracts/vecchio.sol",
  "compiler": {
    "name": "solc",
    "version": "0.8.10+commit.fc410830.Emscripten.clang"
  },
  "schemaVersion": "3.4.4",
  "updatedAt": "2022-02-07T17:12:27.799Z",
  "devdoc": {
    "kind": "dev",
    "methods": {},
    "version": 1
  },
  "userdoc": {
    "errors": {
      "InvalidState()": [
        {
          "notice": "The function cannot be called at the current state."
        }
      ],
      "OnlyOwner()": [
        {
          "notice": "only the owner of the contract can call this function"
        }
      ],
      "OnlySeller()": [
        {
          "notice": "only the seller can call this function"
        }
      ]
    },
    "kind": "user",
    "methods": {
      "abort()": {
        "notice": "Abort the purchase and reclaim the ether (timer/dashboard) Can only be called by the smart contract owner before the contract is filled."
      },
      "confirmPurchase()": {
        "notice": "Confirm the purchase as buyer. Transaction has to include `2 * value` ether. The ether will be locked until confirmReceived is called."
      },
      "confirmReceived(uint256)": {
        "notice": "Confirm that the smart contract's owner received the item. This will release the locked ether."
      },
      "refundOwner()": {
        "notice": "This function refunds the seller, i.e. pays back the locked funds of the seller."
      }
    },
    "version": 1
  }
}