{
  "_format": "hh-sol-artifact-1",
  "contractName": "OrderManager",
  "sourceName": "contracts/OrderManager.sol",
  "abi": [
    {
      "inputs": [],
      "stateMutability": "nonpayable",
      "type": "constructor"
    },
    {
      "anonymous": false,
      "inputs": [
        {
          "indexed": false,
          "internalType": "string",
          "name": "id",
          "type": "string"
        },
        {
          "indexed": false,
          "internalType": "address payable",
          "name": "sellerAddress",
          "type": "address"
        },
        {
          "indexed": false,
          "internalType": "address payable",
          "name": "ownerAddress",
          "type": "address"
        },
        {
          "indexed": true,
          "internalType": "uint256",
          "name": "amount",
          "type": "uint256"
        },
        {
          "indexed": true,
          "internalType": "uint256",
          "name": "timestamp",
          "type": "uint256"
        },
        {
          "indexed": true,
          "internalType": "enum OrderManager.OrderState",
          "name": "state",
          "type": "uint8"
        }
      ],
      "name": "ItemReceived",
      "type": "event"
    },
    {
      "anonymous": false,
      "inputs": [
        {
          "indexed": false,
          "internalType": "string",
          "name": "id",
          "type": "string"
        },
        {
          "indexed": false,
          "internalType": "address payable",
          "name": "sellerAddress",
          "type": "address"
        },
        {
          "indexed": false,
          "internalType": "address payable",
          "name": "ownerAddress",
          "type": "address"
        },
        {
          "indexed": true,
          "internalType": "uint256",
          "name": "amount",
          "type": "uint256"
        },
        {
          "indexed": true,
          "internalType": "uint256",
          "name": "timestamp",
          "type": "uint256"
        },
        {
          "indexed": true,
          "internalType": "enum OrderManager.OrderState",
          "name": "state",
          "type": "uint8"
        }
      ],
      "name": "OrderConfirmed",
      "type": "event"
    },
    {
      "anonymous": false,
      "inputs": [
        {
          "indexed": false,
          "internalType": "string",
          "name": "id",
          "type": "string"
        },
        {
          "indexed": false,
          "internalType": "address payable",
          "name": "sellerAddress",
          "type": "address"
        },
        {
          "indexed": false,
          "internalType": "address payable",
          "name": "ownerAddress",
          "type": "address"
        },
        {
          "indexed": true,
          "internalType": "uint256",
          "name": "amount",
          "type": "uint256"
        },
        {
          "indexed": true,
          "internalType": "uint256",
          "name": "timestamp",
          "type": "uint256"
        },
        {
          "indexed": true,
          "internalType": "enum OrderManager.OrderState",
          "name": "state",
          "type": "uint8"
        }
      ],
      "name": "OrderCreated",
      "type": "event"
    },
    {
      "anonymous": false,
      "inputs": [
        {
          "indexed": false,
          "internalType": "string",
          "name": "id",
          "type": "string"
        },
        {
          "indexed": false,
          "internalType": "address payable",
          "name": "sellerAddress",
          "type": "address"
        },
        {
          "indexed": false,
          "internalType": "address payable",
          "name": "ownerAddress",
          "type": "address"
        },
        {
          "indexed": true,
          "internalType": "uint256",
          "name": "amount",
          "type": "uint256"
        },
        {
          "indexed": true,
          "internalType": "uint256",
          "name": "timestamp",
          "type": "uint256"
        },
        {
          "indexed": true,
          "internalType": "enum OrderManager.OrderState",
          "name": "state",
          "type": "uint8"
        }
      ],
      "name": "OwnerRefunded",
      "type": "event"
    },
    {
      "inputs": [],
      "name": "STABLECOIN",
      "outputs": [
        {
          "internalType": "address",
          "name": "",
          "type": "address"
        }
      ],
      "stateMutability": "view",
      "type": "function"
    },
    {
      "inputs": [],
      "name": "WFTM",
      "outputs": [
        {
          "internalType": "address",
          "name": "",
          "type": "address"
        }
      ],
      "stateMutability": "view",
      "type": "function"
    },
    {
      "inputs": [
        {
          "internalType": "string",
          "name": "id",
          "type": "string"
        },
        {
          "internalType": "uint256",
          "name": "_unlockCode",
          "type": "uint256"
        }
      ],
      "name": "confirmReceived",
      "outputs": [],
      "stateMutability": "nonpayable",
      "type": "function"
    },
    {
      "inputs": [],
      "name": "contractBalance",
      "outputs": [
        {
          "internalType": "uint256",
          "name": "",
          "type": "uint256"
        }
      ],
      "stateMutability": "view",
      "type": "function"
    },
    {
      "inputs": [
        {
          "internalType": "string",
          "name": "id",
          "type": "string"
        }
      ],
      "name": "getAmountToPay",
      "outputs": [
        {
          "internalType": "uint256",
          "name": "",
          "type": "uint256"
        }
      ],
      "stateMutability": "view",
      "type": "function"
    },
    {
      "inputs": [
        {
          "internalType": "string",
          "name": "id",
          "type": "string"
        }
      ],
      "name": "getOrderById",
      "outputs": [
        {
          "components": [
            {
              "internalType": "address payable",
              "name": "sellerAddress",
              "type": "address"
            },
            {
              "internalType": "address payable",
              "name": "ownerAddress",
              "type": "address"
            },
            {
              "internalType": "uint256",
              "name": "amount",
              "type": "uint256"
            },
            {
              "internalType": "uint256",
              "name": "unlockCode",
              "type": "uint256"
            },
            {
              "internalType": "uint256",
              "name": "timestamp",
              "type": "uint256"
            },
            {
              "internalType": "enum OrderManager.OrderState",
              "name": "state",
              "type": "uint8"
            }
          ],
          "internalType": "struct OrderManager.Order",
          "name": "",
          "type": "tuple"
        }
      ],
      "stateMutability": "view",
      "type": "function"
    },
    {
      "inputs": [],
      "name": "getOrderCount",
      "outputs": [
        {
          "internalType": "uint256",
          "name": "",
          "type": "uint256"
        }
      ],
      "stateMutability": "view",
      "type": "function"
    },
    {
      "inputs": [
        {
          "internalType": "string",
          "name": "id",
          "type": "string"
        }
      ],
      "name": "getOrderState",
      "outputs": [
        {
          "internalType": "enum OrderManager.OrderState",
          "name": "",
          "type": "uint8"
        }
      ],
      "stateMutability": "view",
      "type": "function"
    },
    {
      "inputs": [
        {
          "internalType": "address",
          "name": "_buyerAddress",
          "type": "address"
        }
      ],
      "name": "getOrdersByBuyer",
      "outputs": [
        {
          "components": [
            {
              "internalType": "string",
              "name": "id",
              "type": "string"
            },
            {
              "components": [
                {
                  "internalType": "address payable",
                  "name": "sellerAddress",
                  "type": "address"
                },
                {
                  "internalType": "address payable",
                  "name": "ownerAddress",
                  "type": "address"
                },
                {
                  "internalType": "uint256",
                  "name": "amount",
                  "type": "uint256"
                },
                {
                  "internalType": "uint256",
                  "name": "unlockCode",
                  "type": "uint256"
                },
                {
                  "internalType": "uint256",
                  "name": "timestamp",
                  "type": "uint256"
                },
                {
                  "internalType": "enum OrderManager.OrderState",
                  "name": "state",
                  "type": "uint8"
                }
              ],
              "internalType": "struct OrderManager.Order",
              "name": "order",
              "type": "tuple"
            }
          ],
          "internalType": "struct OrderManager.OrderTuple[]",
          "name": "",
          "type": "tuple[]"
        }
      ],
      "stateMutability": "view",
      "type": "function"
    },
    {
      "inputs": [
        {
          "internalType": "address",
          "name": "_sellerAddress",
          "type": "address"
        }
      ],
      "name": "getOrdersBySeller",
      "outputs": [
        {
          "components": [
            {
              "internalType": "string",
              "name": "id",
              "type": "string"
            },
            {
              "components": [
                {
                  "internalType": "address payable",
                  "name": "sellerAddress",
                  "type": "address"
                },
                {
                  "internalType": "address payable",
                  "name": "ownerAddress",
                  "type": "address"
                },
                {
                  "internalType": "uint256",
                  "name": "amount",
                  "type": "uint256"
                },
                {
                  "internalType": "uint256",
                  "name": "unlockCode",
                  "type": "uint256"
                },
                {
                  "internalType": "uint256",
                  "name": "timestamp",
                  "type": "uint256"
                },
                {
                  "internalType": "enum OrderManager.OrderState",
                  "name": "state",
                  "type": "uint8"
                }
              ],
              "internalType": "struct OrderManager.Order",
              "name": "order",
              "type": "tuple"
            }
          ],
          "internalType": "struct OrderManager.OrderTuple[]",
          "name": "",
          "type": "tuple[]"
        }
      ],
      "stateMutability": "view",
      "type": "function"
    },
    {
      "inputs": [
        {
          "internalType": "string",
          "name": "id",
          "type": "string"
        }
      ],
      "name": "getOwnerAddress",
      "outputs": [
        {
          "internalType": "address",
          "name": "",
          "type": "address"
        }
      ],
      "stateMutability": "view",
      "type": "function"
    },
    {
      "inputs": [
        {
          "internalType": "string",
          "name": "id",
          "type": "string"
        }
      ],
      "name": "getSellerAddress",
      "outputs": [
        {
          "internalType": "address",
          "name": "",
          "type": "address"
        }
      ],
      "stateMutability": "view",
      "type": "function"
    },
    {
      "inputs": [
        {
          "internalType": "string",
          "name": "id",
          "type": "string"
        }
      ],
      "name": "getUnlockCode",
      "outputs": [
        {
          "internalType": "uint256",
          "name": "",
          "type": "uint256"
        }
      ],
      "stateMutability": "view",
      "type": "function"
    },
    {
      "inputs": [
        {
          "internalType": "address payable",
          "name": "_seller",
          "type": "address"
        },
        {
          "internalType": "uint256",
          "name": "_amountIn",
          "type": "uint256"
        },
        {
          "internalType": "uint256",
          "name": "_amountOut",
          "type": "uint256"
        },
        {
          "internalType": "string",
          "name": "_orderId",
          "type": "string"
        }
      ],
      "name": "newOrder",
      "outputs": [],
      "stateMutability": "payable",
      "type": "function"
    },
    {
      "inputs": [],
      "name": "owner",
      "outputs": [
        {
          "internalType": "address",
          "name": "",
          "type": "address"
        }
      ],
      "stateMutability": "view",
      "type": "function"
    },
    {
      "inputs": [
        {
          "internalType": "string",
          "name": "id",
          "type": "string"
        }
      ],
      "name": "refund",
      "outputs": [],
      "stateMutability": "nonpayable",
      "type": "function"
    },
    {
      "inputs": [],
      "name": "uniswapV2Router",
      "outputs": [
        {
          "internalType": "contract IUniswapV2Router02",
          "name": "",
          "type": "address"
        }
      ],
      "stateMutability": "view",
      "type": "function"
    }
  ],
  "bytecode": "0x60e060405273a6ad18c2ac47803e193f75c3677b14bf19b9488373ffffffffffffffffffffffffffffffffffffffff1660809073ffffffffffffffffffffffffffffffffffffffff1660601b81525073f1277d1ed8ad466beddf92ef448a13266195662173ffffffffffffffffffffffffffffffffffffffff1660a09073ffffffffffffffffffffffffffffffffffffffff1660601b81525073a70a572aa5489a5cdd0daa3bf0cf440a92f504026000806101000a81548173ffffffffffffffffffffffffffffffffffffffff021916908373ffffffffffffffffffffffffffffffffffffffff16021790555060006003553480156100fd57600080fd5b503373ffffffffffffffffffffffffffffffffffffffff1660c08173ffffffffffffffffffffffffffffffffffffffff1660601b8152505060805160601c60a05160601c60c05160601c61396361017b6000396000611d730152600081816104f70152610a4001526000818161045d0152610b6c01526139636000f3fe6080604052600436106100fe5760003560e01c80638b7afe2e1161009557806393a397761161006457806393a3977614610350578063bc6fea711461037b578063be3ac64b146103b8578063c5df16a0146103f5578063fe5f2e8814610432576100fe565b80638b7afe2e146102925780638d0a5fbb146102bd5780638da5cb5b146102e85780638fbf137014610313576100fe565b80632d45b849116100d15780632d45b849146101d35780633a875a43146101ef57806355b0f9271461022c5780637a202cc114610255576100fe565b80631694505e146101035780631cf708d41461012e5780631d170e7c1461016b57806321dbe876146101a8575b600080fd5b34801561010f57600080fd5b5061011861045b565b60405161012591906132c4565b60405180910390f35b34801561013a57600080fd5b5061015560048036038101906101509190612aff565b61047f565b6040516101629190613473565b60405180910390f35b34801561017757600080fd5b50610192600480360381019061018d9190612aff565b6104aa565b60405161019f919061325e565b60405180910390f35b3480156101b457600080fd5b506101bd6104f5565b6040516101ca919061325e565b60405180910390f35b6101ed60048036038101906101e89190612a1a565b610519565b005b3480156101fb57600080fd5b50610216600480360381019061021191906129f1565b610d84565b60405161022391906132a2565b60405180910390f35b34801561023857600080fd5b50610253600480360381019061024e9190612b40565b61120b565b005b34801561026157600080fd5b5061027c600480360381019061027791906129f1565b6118d8565b60405161028991906132a2565b60405180910390f35b34801561029e57600080fd5b506102a7611d5f565b6040516102b49190613473565b60405180910390f35b3480156102c957600080fd5b506102d2611d67565b6040516102df9190613473565b60405180910390f35b3480156102f457600080fd5b506102fd611d71565b60405161030a919061325e565b60405180910390f35b34801561031f57600080fd5b5061033a60048036038101906103359190612aff565b611d95565b604051610347919061325e565b60405180910390f35b34801561035c57600080fd5b50610365611de0565b604051610372919061325e565b60405180910390f35b34801561038757600080fd5b506103a2600480360381019061039d9190612aff565b611e04565b6040516103af9190613473565b60405180910390f35b3480156103c457600080fd5b506103df60048036038101906103da9190612aff565b611e2f565b6040516103ec91906132df565b60405180910390f35b34801561040157600080fd5b5061041c60048036038101906104179190612aff565b611e67565b6040516104299190613458565b60405180910390f35b34801561043e57600080fd5b5061045960048036038101906104549190612aff565b611ff0565b005b7f000000000000000000000000000000000000000000000000000000000000000081565b60006004826040516104919190613230565b9081526020016040518091039020600301549050919050565b60006004826040516104bc9190613230565b908152602001604051809103902060010160009054906101000a900473ffffffffffffffffffffffffffffffffffffffff169050919050565b7f000000000000000000000000000000000000000000000000000000000000000081565b83338073ffffffffffffffffffffffffffffffffffffffff168273ffffffffffffffffffffffffffffffffffffffff16141561058a576040517f08c379a000000000000000000000000000000000000000000000000000000000815260040161058190613338565b60405180910390fd5b3385808273ffffffffffffffffffffffffffffffffffffffff163110156105e6576040517f08c379a00000000000000000000000000000000000000000000000000000000081526004016105dd906133f8565b60405180910390fd5b846004816040516105f79190613230565b908152602001604051809103902060050160009054906101000a900460ff16600481111561064e577f4e487b7100000000000000000000000000000000000000000000000000000000600052602160045260246000fd5b60006004811115610688577f4e487b7100000000000000000000000000000000000000000000000000000000600052602160045260246000fd5b146106c8576040517f08c379a00000000000000000000000000000000000000000000000000000000081526004016106bf90613358565b60405180910390fd5b8734101561070b576040517f08c379a000000000000000000000000000000000000000000000000000000000815260040161070290613438565b60405180910390fd5b6003600081548092919061071e906137a7565b91905055506040518060c001604052808a73ffffffffffffffffffffffffffffffffffffffff1681526020013373ffffffffffffffffffffffffffffffffffffffff168152602001888152602001438152602001428152602001600260048111156107b2577f4e487b7100000000000000000000000000000000000000000000000000000000600052602160045260246000fd5b8152506004876040516107c59190613230565b908152602001604051809103902060008201518160000160006101000a81548173ffffffffffffffffffffffffffffffffffffffff021916908373ffffffffffffffffffffffffffffffffffffffff16021790555060208201518160010160006101000a81548173ffffffffffffffffffffffffffffffffffffffff021916908373ffffffffffffffffffffffffffffffffffffffff16021790555060408201518160020155606082015181600301556080820151816004015560a08201518160050160006101000a81548160ff021916908360048111156108d0577f4e487b7100000000000000000000000000000000000000000000000000000000600052602160045260246000fd5b0217905550905050600160003373ffffffffffffffffffffffffffffffffffffffff1673ffffffffffffffffffffffffffffffffffffffff1681526020019081526020016000208690806001815401808255809150506001900390600052602060002001600090919091909150908051906020019061095092919061272d565b50600260008a73ffffffffffffffffffffffffffffffffffffffff1673ffffffffffffffffffffffffffffffffffffffff168152602001908152602001600020869080600181540180825580915050600190039060005260206000200160009091909190915090805190602001906109c992919061272d565b506000600267ffffffffffffffff811115610a0d577f4e487b7100000000000000000000000000000000000000000000000000000000600052604160045260246000fd5b604051908082528060200260200182016040528015610a3b5781602001602082028036833780820191505090505b5090507f000000000000000000000000000000000000000000000000000000000000000081600081518110610a99577f4e487b7100000000000000000000000000000000000000000000000000000000600052603260045260246000fd5b602002602001019073ffffffffffffffffffffffffffffffffffffffff16908173ffffffffffffffffffffffffffffffffffffffff168152505060008054906101000a900473ffffffffffffffffffffffffffffffffffffffff1681600181518110610b2e577f4e487b7100000000000000000000000000000000000000000000000000000000600052603260045260246000fd5b602002602001019073ffffffffffffffffffffffffffffffffffffffff16908173ffffffffffffffffffffffffffffffffffffffff168152505060007f000000000000000000000000000000000000000000000000000000000000000073ffffffffffffffffffffffffffffffffffffffff1663fb3bdb41348b8530426040518663ffffffff1660e01b8152600401610bca949392919061348e565b6000604051808303818588803b158015610be357600080fd5b505af1158015610bf7573d6000803e3d6000fd5b50505050506040513d6000823e3d601f19601f82011682018060405250810190610c219190612a95565b90503481600081518110610c5e577f4e487b7100000000000000000000000000000000000000000000000000000000600052603260045260246000fd5b60200260200101511015610d00573373ffffffffffffffffffffffffffffffffffffffff166108fc82600081518110610cc0577f4e487b7100000000000000000000000000000000000000000000000000000000600052603260045260246000fd5b602002602001015134610cd39190613626565b9081150290604051600060405180830381858888f19350505050158015610cfe573d6000803e3d6000fd5b505b60026004811115610d3a577f4e487b7100000000000000000000000000000000000000000000000000000000600052602160045260246000fd5b428a7faf1d38d12bff33324cb899bc12ec520f0e2affc2efaafb256b3ef57ce9b703e08b8f33604051610d6f939291906132fa565b60405180910390a45050505050505050505050565b60606000600160008473ffffffffffffffffffffffffffffffffffffffff1673ffffffffffffffffffffffffffffffffffffffff1681526020019081526020016000208054905067ffffffffffffffff811115610e0a577f4e487b7100000000000000000000000000000000000000000000000000000000600052604160045260246000fd5b604051908082528060200260200182016040528015610e4357816020015b610e306127b3565b815260200190600190039081610e285790505b50905060005b600160008573ffffffffffffffffffffffffffffffffffffffff1673ffffffffffffffffffffffffffffffffffffffff16815260200190815260200160002080549050811015611201576040518060400160405280600160008773ffffffffffffffffffffffffffffffffffffffff1673ffffffffffffffffffffffffffffffffffffffff1681526020019081526020016000208381548110610f15577f4e487b7100000000000000000000000000000000000000000000000000000000600052603260045260246000fd5b906000526020600020018054610f2a90613775565b80601f0160208091040260200160405190810160405280929190818152602001828054610f5690613775565b8015610fa35780601f10610f7857610100808354040283529160200191610fa3565b820191906000526020600020905b815481529060010190602001808311610f8657829003601f168201915b505050505081526020016004600160008873ffffffffffffffffffffffffffffffffffffffff1673ffffffffffffffffffffffffffffffffffffffff1681526020019081526020016000208481548110611026577f4e487b7100000000000000000000000000000000000000000000000000000000600052603260045260246000fd5b9060005260206000200160405161103d9190613247565b90815260200160405180910390206040518060c00160405290816000820160009054906101000a900473ffffffffffffffffffffffffffffffffffffffff1673ffffffffffffffffffffffffffffffffffffffff1673ffffffffffffffffffffffffffffffffffffffff1681526020016001820160009054906101000a900473ffffffffffffffffffffffffffffffffffffffff1673ffffffffffffffffffffffffffffffffffffffff1673ffffffffffffffffffffffffffffffffffffffff1681526020016002820154815260200160038201548152602001600482015481526020016005820160009054906101000a900460ff16600481111561116b577f4e487b7100000000000000000000000000000000000000000000000000000000600052602160045260246000fd5b60048111156111a3577f4e487b7100000000000000000000000000000000000000000000000000000000600052602160045260246000fd5b815250508152508282815181106111e3577f4e487b7100000000000000000000000000000000000000000000000000000000600052603260045260246000fd5b602002602001018190525080806111f9906137a7565b915050610e49565b5080915050919050565b813373ffffffffffffffffffffffffffffffffffffffff166004826040516112339190613230565b908152602001604051809103902060010160009054906101000a900473ffffffffffffffffffffffffffffffffffffffff1673ffffffffffffffffffffffffffffffffffffffff16146112bb576040517f08c379a00000000000000000000000000000000000000000000000000000000081526004016112b2906133d8565b60405180910390fd5b8260026004826040516112ce9190613230565b908152602001604051809103902060050160009054906101000a900460ff166004811115611325577f4e487b7100000000000000000000000000000000000000000000000000000000600052602160045260246000fd5b81600481111561135e577f4e487b7100000000000000000000000000000000000000000000000000000000600052602160045260246000fd5b1461139e576040517f08c379a0000000000000000000000000000000000000000000000000000000008152600401611395906133b8565b60405180910390fd5b60006004866040516113b09190613230565b90815260200160405180910390206040518060c00160405290816000820160009054906101000a900473ffffffffffffffffffffffffffffffffffffffff1673ffffffffffffffffffffffffffffffffffffffff1673ffffffffffffffffffffffffffffffffffffffff1681526020016001820160009054906101000a900473ffffffffffffffffffffffffffffffffffffffff1673ffffffffffffffffffffffffffffffffffffffff1673ffffffffffffffffffffffffffffffffffffffff1681526020016002820154815260200160038201548152602001600482015481526020016005820160009054906101000a900460ff1660048111156114de577f4e487b7100000000000000000000000000000000000000000000000000000000600052602160045260246000fd5b6004811115611516577f4e487b7100000000000000000000000000000000000000000000000000000000600052602160045260246000fd5b81525050905084816060015114611562576040517f08c379a000000000000000000000000000000000000000000000000000000000815260040161155990613398565b60405180910390fd5b60008054906101000a900473ffffffffffffffffffffffffffffffffffffffff1673ffffffffffffffffffffffffffffffffffffffff1663a9059cbb826000015183604001516040518363ffffffff1660e01b81526004016115c5929190613279565b602060405180830381600087803b1580156115df57600080fd5b505af11580156115f3573d6000803e3d6000fd5b505050506040513d601f19601f820116820180604052508101906116179190612ad6565b611656576040517f08c379a000000000000000000000000000000000000000000000000000000000815260040161164d90613418565b60405180910390fd5b60038160a001906004811115611695577f4e487b7100000000000000000000000000000000000000000000000000000000600052602160045260246000fd5b908160048111156116cf577f4e487b7100000000000000000000000000000000000000000000000000000000600052602160045260246000fd5b81525050806004876040516116e49190613230565b908152602001604051809103902060008201518160000160006101000a81548173ffffffffffffffffffffffffffffffffffffffff021916908373ffffffffffffffffffffffffffffffffffffffff16021790555060208201518160010160006101000a81548173ffffffffffffffffffffffffffffffffffffffff021916908373ffffffffffffffffffffffffffffffffffffffff16021790555060408201518160020155606082015181600301556080820151816004015560a08201518160050160006101000a81548160ff021916908360048111156117ef577f4e487b7100000000000000000000000000000000000000000000000000000000600052602160045260246000fd5b021790555090505060036004811115611831577f4e487b7100000000000000000000000000000000000000000000000000000000600052602160045260246000fd5b426004886040516118429190613230565b9081526020016040518091039020600201547f92920d559afffc5707482f79beeb2a17d437af72aa691ccd51ccc7c124a419528960048b6040516118869190613230565b908152602001604051809103902060000160009054906101000a900473ffffffffffffffffffffffffffffffffffffffff16336040516118c8939291906132fa565b60405180910390a4505050505050565b60606000600260008473ffffffffffffffffffffffffffffffffffffffff1673ffffffffffffffffffffffffffffffffffffffff1681526020019081526020016000208054905067ffffffffffffffff81111561195e577f4e487b7100000000000000000000000000000000000000000000000000000000600052604160045260246000fd5b60405190808252806020026020018201604052801561199757816020015b6119846127b3565b81526020019060019003908161197c5790505b50905060005b600260008573ffffffffffffffffffffffffffffffffffffffff1673ffffffffffffffffffffffffffffffffffffffff16815260200190815260200160002080549050811015611d55576040518060400160405280600260008773ffffffffffffffffffffffffffffffffffffffff1673ffffffffffffffffffffffffffffffffffffffff1681526020019081526020016000208381548110611a69577f4e487b7100000000000000000000000000000000000000000000000000000000600052603260045260246000fd5b906000526020600020018054611a7e90613775565b80601f0160208091040260200160405190810160405280929190818152602001828054611aaa90613775565b8015611af75780601f10611acc57610100808354040283529160200191611af7565b820191906000526020600020905b815481529060010190602001808311611ada57829003601f168201915b505050505081526020016004600260008873ffffffffffffffffffffffffffffffffffffffff1673ffffffffffffffffffffffffffffffffffffffff1681526020019081526020016000208481548110611b7a577f4e487b7100000000000000000000000000000000000000000000000000000000600052603260045260246000fd5b90600052602060002001604051611b919190613247565b90815260200160405180910390206040518060c00160405290816000820160009054906101000a900473ffffffffffffffffffffffffffffffffffffffff1673ffffffffffffffffffffffffffffffffffffffff1673ffffffffffffffffffffffffffffffffffffffff1681526020016001820160009054906101000a900473ffffffffffffffffffffffffffffffffffffffff1673ffffffffffffffffffffffffffffffffffffffff1673ffffffffffffffffffffffffffffffffffffffff1681526020016002820154815260200160038201548152602001600482015481526020016005820160009054906101000a900460ff166004811115611cbf577f4e487b7100000000000000000000000000000000000000000000000000000000600052602160045260246000fd5b6004811115611cf7577f4e487b7100000000000000000000000000000000000000000000000000000000600052602160045260246000fd5b81525050815250828281518110611d37577f4e487b7100000000000000000000000000000000000000000000000000000000600052603260045260246000fd5b60200260200101819052508080611d4d906137a7565b91505061199d565b5080915050919050565b600047905090565b6000600354905090565b7f000000000000000000000000000000000000000000000000000000000000000081565b6000600482604051611da79190613230565b908152602001604051809103902060000160009054906101000a900473ffffffffffffffffffffffffffffffffffffffff169050919050565b60008054906101000a900473ffffffffffffffffffffffffffffffffffffffff1681565b6000600482604051611e169190613230565b9081526020016040518091039020600201549050919050565b6000600482604051611e419190613230565b908152602001604051809103902060050160009054906101000a900460ff169050919050565b611e6f6127d3565b600482604051611e7f9190613230565b90815260200160405180910390206040518060c00160405290816000820160009054906101000a900473ffffffffffffffffffffffffffffffffffffffff1673ffffffffffffffffffffffffffffffffffffffff1673ffffffffffffffffffffffffffffffffffffffff1681526020016001820160009054906101000a900473ffffffffffffffffffffffffffffffffffffffff1673ffffffffffffffffffffffffffffffffffffffff1673ffffffffffffffffffffffffffffffffffffffff1681526020016002820154815260200160038201548152602001600482015481526020016005820160009054906101000a900460ff166004811115611fad577f4e487b7100000000000000000000000000000000000000000000000000000000600052602160045260246000fd5b6004811115611fe5577f4e487b7100000000000000000000000000000000000000000000000000000000600052602160045260246000fd5b815250509050919050565b803373ffffffffffffffffffffffffffffffffffffffff166004826040516120189190613230565b908152602001604051809103902060000160009054906101000a900473ffffffffffffffffffffffffffffffffffffffff1673ffffffffffffffffffffffffffffffffffffffff1614806120d857503373ffffffffffffffffffffffffffffffffffffffff1660048260405161208e9190613230565b908152602001604051809103902060010160009054906101000a900473ffffffffffffffffffffffffffffffffffffffff1673ffffffffffffffffffffffffffffffffffffffff16145b612117576040517f08c379a000000000000000000000000000000000000000000000000000000000815260040161210e90613378565b60405180910390fd5b81600260048260405161212a9190613230565b908152602001604051809103902060050160009054906101000a900460ff166004811115612181577f4e487b7100000000000000000000000000000000000000000000000000000000600052602160045260246000fd5b8160048111156121ba577f4e487b7100000000000000000000000000000000000000000000000000000000600052602160045260246000fd5b146121fa576040517f08c379a00000000000000000000000000000000000000000000000000000000081526004016121f1906133b8565b60405180910390fd5b600060048560405161220c9190613230565b90815260200160405180910390206040518060c00160405290816000820160009054906101000a900473ffffffffffffffffffffffffffffffffffffffff1673ffffffffffffffffffffffffffffffffffffffff1673ffffffffffffffffffffffffffffffffffffffff1681526020016001820160009054906101000a900473ffffffffffffffffffffffffffffffffffffffff1673ffffffffffffffffffffffffffffffffffffffff1673ffffffffffffffffffffffffffffffffffffffff1681526020016002820154815260200160038201548152602001600482015481526020016005820160009054906101000a900460ff16600481111561233a577f4e487b7100000000000000000000000000000000000000000000000000000000600052602160045260246000fd5b6004811115612372577f4e487b7100000000000000000000000000000000000000000000000000000000600052602160045260246000fd5b81525050905060008054906101000a900473ffffffffffffffffffffffffffffffffffffffff1673ffffffffffffffffffffffffffffffffffffffff1663a9059cbb826020015183604001516040518363ffffffff1660e01b81526004016123db929190613279565b602060405180830381600087803b1580156123f557600080fd5b505af1158015612409573d6000803e3d6000fd5b505050506040513d601f19601f8201168201806040525081019061242d9190612ad6565b61246c576040517f08c379a000000000000000000000000000000000000000000000000000000000815260040161246390613418565b60405180910390fd5b60048160a0019060048111156124ab577f4e487b7100000000000000000000000000000000000000000000000000000000600052602160045260246000fd5b908160048111156124e5577f4e487b7100000000000000000000000000000000000000000000000000000000600052602160045260246000fd5b81525050806004866040516124fa9190613230565b908152602001604051809103902060008201518160000160006101000a81548173ffffffffffffffffffffffffffffffffffffffff021916908373ffffffffffffffffffffffffffffffffffffffff16021790555060208201518160010160006101000a81548173ffffffffffffffffffffffffffffffffffffffff021916908373ffffffffffffffffffffffffffffffffffffffff16021790555060408201518160020155606082015181600301556080820151816004015560a08201518160050160006101000a81548160ff02191690836004811115612605577f4e487b7100000000000000000000000000000000000000000000000000000000600052602160045260246000fd5b0217905550905050600480811115612646577f4e487b7100000000000000000000000000000000000000000000000000000000600052602160045260246000fd5b426004876040516126579190613230565b9081526020016040518091039020600201547fdeb1466d19b7c591c503778ea470cdd6e7f4880cee0e2dedcb46fe86025c9e918860048a60405161269b9190613230565b908152602001604051809103902060000160009054906101000a900473ffffffffffffffffffffffffffffffffffffffff1660048b6040516126dd9190613230565b908152602001604051809103902060010160009054906101000a900473ffffffffffffffffffffffffffffffffffffffff1660405161271e939291906132fa565b60405180910390a45050505050565b82805461273990613775565b90600052602060002090601f01602090048101928261275b57600085556127a2565b82601f1061277457805160ff19168380011785556127a2565b828001600101855582156127a2579182015b828111156127a1578251825591602001919060010190612786565b5b5090506127af919061286d565b5090565b6040518060400160405280606081526020016127cd6127d3565b81525090565b6040518060c00160405280600073ffffffffffffffffffffffffffffffffffffffff168152602001600073ffffffffffffffffffffffffffffffffffffffff16815260200160008152602001600081526020016000815260200160006004811115612867577f4e487b7100000000000000000000000000000000000000000000000000000000600052602160045260246000fd5b81525090565b5b8082111561288657600081600090555060010161286e565b5090565b600061289d6128988461350b565b6134da565b905080838252602082019050828560208602820111156128bc57600080fd5b60005b858110156128ec57816128d288826129dc565b8452602084019350602083019250506001810190506128bf565b5050509392505050565b600061290961290484613537565b6134da565b90508281526020810184848401111561292157600080fd5b61292c848285613733565b509392505050565b600081359050612943816138d1565b92915050565b600081359050612958816138e8565b92915050565b600082601f83011261296f57600080fd5b815161297f84826020860161288a565b91505092915050565b600081519050612997816138ff565b92915050565b600082601f8301126129ae57600080fd5b81356129be8482602086016128f6565b91505092915050565b6000813590506129d681613916565b92915050565b6000815190506129eb81613916565b92915050565b600060208284031215612a0357600080fd5b6000612a1184828501612934565b91505092915050565b60008060008060808587031215612a3057600080fd5b6000612a3e87828801612949565b9450506020612a4f878288016129c7565b9350506040612a60878288016129c7565b925050606085013567ffffffffffffffff811115612a7d57600080fd5b612a898782880161299d565b91505092959194509250565b600060208284031215612aa757600080fd5b600082015167ffffffffffffffff811115612ac157600080fd5b612acd8482850161295e565b91505092915050565b600060208284031215612ae857600080fd5b6000612af684828501612988565b91505092915050565b600060208284031215612b1157600080fd5b600082013567ffffffffffffffff811115612b2b57600080fd5b612b378482850161299d565b91505092915050565b60008060408385031215612b5357600080fd5b600083013567ffffffffffffffff811115612b6d57600080fd5b612b798582860161299d565b9250506020612b8a858286016129c7565b9150509250929050565b6000612ba08383612bed565b60208301905092915050565b6000612bb883836130df565b905092915050565b612bc9816136c7565b82525050565b612bd88161366c565b82525050565b612be78161366c565b82525050565b612bf68161365a565b82525050565b612c058161365a565b82525050565b6000612c168261359c565b612c2081856135d7565b9350612c2b83613567565b8060005b83811015612c5c578151612c438882612b94565b9750612c4e836135bd565b925050600181019050612c2f565b5085935050505092915050565b6000612c74826135a7565b612c7e81856135e8565b935083602082028501612c9085613577565b8060005b85811015612ccc5784840389528151612cad8582612bac565b9450612cb8836135ca565b925060208a01995050600181019050612c94565b50829750879550505050505092915050565b612ce7816136d9565b82525050565b612cf6816136fd565b82525050565b612d05816136fd565b82525050565b6000612d16826135b2565b612d2081856135f9565b9350612d30818560208601613742565b612d39816138ac565b840191505092915050565b6000612d4f826135b2565b612d59818561360a565b9350612d69818560208601613742565b612d72816138ac565b840191505092915050565b6000612d88826135b2565b612d92818561361b565b9350612da2818560208601613742565b80840191505092915050565b60008154612dbb81613775565b612dc5818661361b565b94506001821660008114612de05760018114612df157612e24565b60ff19831686528186019350612e24565b612dfa85613587565b60005b83811015612e1c57815481890152600182019150602081019050612dfd565b838801955050505b50505092915050565b6000612e3a60238361360a565b91507f7468652073656c6c657220616e642062757965722063616e277420626520657160008301527f75616c00000000000000000000000000000000000000000000000000000000006020830152604082019050919050565b6000612ea060178361360a565b91507f6f7264657220696420616c7265616479206578697374730000000000000000006000830152602082019050919050565b6000612ee060308361360a565b91507f796f75206d75737420626520746865206f776e6572206f72207468652073656c60008301527f6c6572206f6620746865206f72646572000000000000000000000000000000006020830152604082019050919050565b6000612f4660138361360a565b91507f496e76616c696420756e6c6f636b20636f6465000000000000000000000000006000830152602082019050919050565b6000612f8660208361360a565b91507f746865206f72646572206861736e2774207468652076616c69642073746174656000830152602082019050919050565b6000612fc660258361360a565b91507f6f6e6c7920746865206f776e65722063616e2063616c6c20746869732066756e60008301527f6374696f6e0000000000000000000000000000000000000000000000000000006020830152604082019050919050565b600061302c60128361360a565b91507f696e73756666696369656e742066756e647300000000000000000000000000006000830152602082019050919050565b600061306c60108361360a565b91507f5472616e73666572206661696c65642e000000000000000000000000000000006000830152602082019050919050565b60006130ac60178361360a565b91507f496e73756666696369656e7420636f696e2076616c75650000000000000000006000830152602082019050919050565b600060e08301600083015184820360008601526130fc8282612d0b565b9150506020830151613111602086018261311c565b508091505092915050565b60c0820160008201516131326000850182612bcf565b5060208201516131456020850182612bcf565b5060408201516131586040850182613212565b50606082015161316b6060850182613212565b50608082015161317e6080850182613212565b5060a082015161319160a0850182612ced565b50505050565b60c0820160008201516131ad6000850182612bcf565b5060208201516131c06020850182612bcf565b5060408201516131d36040850182613212565b5060608201516131e66060850182613212565b5060808201516131f96080850182613212565b5060a082015161320c60a0850182612ced565b50505050565b61321b816136bd565b82525050565b61322a816136bd565b82525050565b600061323c8284612d7d565b915081905092915050565b60006132538284612dae565b915081905092915050565b60006020820190506132736000830184612bfc565b92915050565b600060408201905061328e6000830185612bc0565b61329b6020830184613221565b9392505050565b600060208201905081810360008301526132bc8184612c69565b905092915050565b60006020820190506132d96000830184612cde565b92915050565b60006020820190506132f46000830184612cfc565b92915050565b600060608201905081810360008301526133148186612d44565b90506133236020830185612bde565b6133306040830184612bde565b949350505050565b6000602082019050818103600083015261335181612e2d565b9050919050565b6000602082019050818103600083015261337181612e93565b9050919050565b6000602082019050818103600083015261339181612ed3565b9050919050565b600060208201905081810360008301526133b181612f39565b9050919050565b600060208201905081810360008301526133d181612f79565b9050919050565b600060208201905081810360008301526133f181612fb9565b9050919050565b600060208201905081810360008301526134118161301f565b9050919050565b600060208201905081810360008301526134318161305f565b9050919050565b600060208201905081810360008301526134518161309f565b9050919050565b600060c08201905061346d6000830184613197565b92915050565b60006020820190506134886000830184613221565b92915050565b60006080820190506134a36000830187613221565b81810360208301526134b58186612c0b565b90506134c46040830185612bfc565b6134d16060830184613221565b95945050505050565b6000604051905081810181811067ffffffffffffffff821117156135015761350061387d565b5b8060405250919050565b600067ffffffffffffffff8211156135265761352561387d565b5b602082029050602081019050919050565b600067ffffffffffffffff8211156135525761355161387d565b5b601f19601f8301169050602081019050919050565b6000819050602082019050919050565b6000819050602082019050919050565b60008190508160005260206000209050919050565b600081519050919050565b600081519050919050565b600081519050919050565b6000602082019050919050565b6000602082019050919050565b600082825260208201905092915050565b600082825260208201905092915050565b600082825260208201905092915050565b600082825260208201905092915050565b600081905092915050565b6000613631826136bd565b915061363c836136bd565b92508282101561364f5761364e6137f0565b5b828203905092915050565b60006136658261369d565b9050919050565b60006136778261369d565b9050919050565b60008115159050919050565b6000819050613698826138bd565b919050565b600073ffffffffffffffffffffffffffffffffffffffff82169050919050565b6000819050919050565b60006136d28261370f565b9050919050565b60006136e4826136eb565b9050919050565b60006136f68261369d565b9050919050565b60006137088261368a565b9050919050565b600061371a82613721565b9050919050565b600061372c8261369d565b9050919050565b82818337600083830152505050565b60005b83811015613760578082015181840152602081019050613745565b8381111561376f576000848401525b50505050565b6000600282049050600182168061378d57607f821691505b602082108114156137a1576137a061384e565b5b50919050565b60006137b2826136bd565b91507fffffffffffffffffffffffffffffffffffffffffffffffffffffffffffffffff8214156137e5576137e46137f0565b5b600182019050919050565b7f4e487b7100000000000000000000000000000000000000000000000000000000600052601160045260246000fd5b7f4e487b7100000000000000000000000000000000000000000000000000000000600052602160045260246000fd5b7f4e487b7100000000000000000000000000000000000000000000000000000000600052602260045260246000fd5b7f4e487b7100000000000000000000000000000000000000000000000000000000600052604160045260246000fd5b6000601f19601f8301169050919050565b600581106138ce576138cd61381f565b5b50565b6138da8161365a565b81146138e557600080fd5b50565b6138f18161366c565b81146138fc57600080fd5b50565b6139088161367e565b811461391357600080fd5b50565b61391f816136bd565b811461392a57600080fd5b5056fea26469706673582212204fd43beecb26494eb58572cfded0018eadd0343da7973de42490a025af31a73f64736f6c63430008000033",
  "linkReferences": {},
  "deployedLinkReferences": {}
}