{
  "_format": "hh-sol-artifact-1",
  "contractName": "OrderManager",
  "sourceName": "contracts/OrderManager.sol",
  "abi": [
    {
      "inputs": [],
      "stateMutability": "nonpayable",
      "type": "constructor"
    },
    {
      "anonymous": false,
      "inputs": [
        {
          "indexed": false,
          "internalType": "string",
          "name": "id",
          "type": "string"
        },
        {
          "indexed": false,
          "internalType": "address payable",
          "name": "sellerAddress",
          "type": "address"
        },
        {
          "indexed": false,
          "internalType": "address payable",
          "name": "ownerAddress",
          "type": "address"
        },
        {
          "indexed": true,
          "internalType": "uint256",
          "name": "amount",
          "type": "uint256"
        },
        {
          "indexed": true,
          "internalType": "uint256",
          "name": "timestamp",
          "type": "uint256"
        },
        {
          "indexed": true,
          "internalType": "enum OrderManager.OrderState",
          "name": "state",
          "type": "uint8"
        }
      ],
      "name": "ItemReceived",
      "type": "event"
    },
    {
      "anonymous": false,
      "inputs": [
        {
          "indexed": false,
          "internalType": "string",
          "name": "id",
          "type": "string"
        },
        {
          "indexed": false,
          "internalType": "address payable",
          "name": "sellerAddress",
          "type": "address"
        },
        {
          "indexed": false,
          "internalType": "address payable",
          "name": "ownerAddress",
          "type": "address"
        },
        {
          "indexed": true,
          "internalType": "uint256",
          "name": "amount",
          "type": "uint256"
        },
        {
          "indexed": true,
          "internalType": "uint256",
          "name": "timestamp",
          "type": "uint256"
        },
        {
          "indexed": true,
          "internalType": "enum OrderManager.OrderState",
          "name": "state",
          "type": "uint8"
        }
      ],
      "name": "OrderConfirmed",
      "type": "event"
    },
    {
      "anonymous": false,
      "inputs": [
        {
          "indexed": false,
          "internalType": "string",
          "name": "id",
          "type": "string"
        },
        {
          "indexed": false,
          "internalType": "address payable",
          "name": "sellerAddress",
          "type": "address"
        },
        {
          "indexed": false,
          "internalType": "address payable",
          "name": "ownerAddress",
          "type": "address"
        },
        {
          "indexed": true,
          "internalType": "uint256",
          "name": "amount",
          "type": "uint256"
        },
        {
          "indexed": true,
          "internalType": "uint256",
          "name": "timestamp",
          "type": "uint256"
        },
        {
          "indexed": true,
          "internalType": "enum OrderManager.OrderState",
          "name": "state",
          "type": "uint8"
        }
      ],
      "name": "OrderCreated",
      "type": "event"
    },
    {
      "anonymous": false,
      "inputs": [
        {
          "indexed": false,
          "internalType": "string",
          "name": "id",
          "type": "string"
        },
        {
          "indexed": false,
          "internalType": "address payable",
          "name": "sellerAddress",
          "type": "address"
        },
        {
          "indexed": false,
          "internalType": "address payable",
          "name": "ownerAddress",
          "type": "address"
        },
        {
          "indexed": true,
          "internalType": "uint256",
          "name": "amount",
          "type": "uint256"
        },
        {
          "indexed": true,
          "internalType": "uint256",
          "name": "timestamp",
          "type": "uint256"
        },
        {
          "indexed": true,
          "internalType": "enum OrderManager.OrderState",
          "name": "state",
          "type": "uint8"
        }
      ],
      "name": "OwnerRefunded",
      "type": "event"
    },
    {
      "inputs": [],
      "name": "STABLECOIN",
      "outputs": [
        {
          "internalType": "address",
          "name": "",
          "type": "address"
        }
      ],
      "stateMutability": "view",
      "type": "function"
    },
    {
      "inputs": [],
      "name": "WFTM",
      "outputs": [
        {
          "internalType": "address",
          "name": "",
          "type": "address"
        }
      ],
      "stateMutability": "view",
      "type": "function"
    },
    {
      "inputs": [
        {
          "internalType": "string",
          "name": "id",
          "type": "string"
        },
        {
          "internalType": "uint256",
          "name": "_unlockCode",
          "type": "uint256"
        }
      ],
      "name": "confirmReceived",
      "outputs": [],
      "stateMutability": "nonpayable",
      "type": "function"
    },
    {
      "inputs": [],
      "name": "contractBalance",
      "outputs": [
        {
          "internalType": "uint256",
          "name": "",
          "type": "uint256"
        }
      ],
      "stateMutability": "view",
      "type": "function"
    },
    {
      "inputs": [
        {
          "internalType": "string",
          "name": "id",
          "type": "string"
        }
      ],
      "name": "getAmountToPay",
      "outputs": [
        {
          "internalType": "uint256",
          "name": "",
          "type": "uint256"
        }
      ],
      "stateMutability": "view",
      "type": "function"
    },
    {
      "inputs": [
        {
          "internalType": "string",
          "name": "id",
          "type": "string"
        }
      ],
      "name": "getOrderById",
      "outputs": [
        {
          "components": [
            {
              "internalType": "address payable",
              "name": "sellerAddress",
              "type": "address"
            },
            {
              "internalType": "address payable",
              "name": "ownerAddress",
              "type": "address"
            },
            {
              "internalType": "uint256",
              "name": "amount",
              "type": "uint256"
            },
            {
              "internalType": "uint256",
              "name": "unlockCode",
              "type": "uint256"
            },
            {
              "internalType": "uint256",
              "name": "timestamp",
              "type": "uint256"
            },
            {
              "internalType": "enum OrderManager.OrderState",
              "name": "state",
              "type": "uint8"
            }
          ],
          "internalType": "struct OrderManager.Order",
          "name": "",
          "type": "tuple"
        }
      ],
      "stateMutability": "view",
      "type": "function"
    },
    {
      "inputs": [],
      "name": "getOrderCount",
      "outputs": [
        {
          "internalType": "uint256",
          "name": "",
          "type": "uint256"
        }
      ],
      "stateMutability": "view",
      "type": "function"
    },
    {
      "inputs": [
        {
          "internalType": "string",
          "name": "id",
          "type": "string"
        }
      ],
      "name": "getOrderState",
      "outputs": [
        {
          "internalType": "enum OrderManager.OrderState",
          "name": "",
          "type": "uint8"
        }
      ],
      "stateMutability": "view",
      "type": "function"
    },
    {
      "inputs": [
        {
          "internalType": "address",
          "name": "_buyerAddress",
          "type": "address"
        }
      ],
      "name": "getOrdersByBuyer",
      "outputs": [
        {
          "components": [
            {
              "internalType": "string",
              "name": "id",
              "type": "string"
            },
            {
              "components": [
                {
                  "internalType": "address payable",
                  "name": "sellerAddress",
                  "type": "address"
                },
                {
                  "internalType": "address payable",
                  "name": "ownerAddress",
                  "type": "address"
                },
                {
                  "internalType": "uint256",
                  "name": "amount",
                  "type": "uint256"
                },
                {
                  "internalType": "uint256",
                  "name": "unlockCode",
                  "type": "uint256"
                },
                {
                  "internalType": "uint256",
                  "name": "timestamp",
                  "type": "uint256"
                },
                {
                  "internalType": "enum OrderManager.OrderState",
                  "name": "state",
                  "type": "uint8"
                }
              ],
              "internalType": "struct OrderManager.Order",
              "name": "order",
              "type": "tuple"
            }
          ],
          "internalType": "struct OrderManager.OrderTuple[]",
          "name": "",
          "type": "tuple[]"
        }
      ],
      "stateMutability": "view",
      "type": "function"
    },
    {
      "inputs": [
        {
          "internalType": "address",
          "name": "_sellerAddress",
          "type": "address"
        }
      ],
      "name": "getOrdersBySeller",
      "outputs": [
        {
          "components": [
            {
              "internalType": "string",
              "name": "id",
              "type": "string"
            },
            {
              "components": [
                {
                  "internalType": "address payable",
                  "name": "sellerAddress",
                  "type": "address"
                },
                {
                  "internalType": "address payable",
                  "name": "ownerAddress",
                  "type": "address"
                },
                {
                  "internalType": "uint256",
                  "name": "amount",
                  "type": "uint256"
                },
                {
                  "internalType": "uint256",
                  "name": "unlockCode",
                  "type": "uint256"
                },
                {
                  "internalType": "uint256",
                  "name": "timestamp",
                  "type": "uint256"
                },
                {
                  "internalType": "enum OrderManager.OrderState",
                  "name": "state",
                  "type": "uint8"
                }
              ],
              "internalType": "struct OrderManager.Order",
              "name": "order",
              "type": "tuple"
            }
          ],
          "internalType": "struct OrderManager.OrderTuple[]",
          "name": "",
          "type": "tuple[]"
        }
      ],
      "stateMutability": "view",
      "type": "function"
    },
    {
      "inputs": [
        {
          "internalType": "string",
          "name": "id",
          "type": "string"
        }
      ],
      "name": "getOwnerAddress",
      "outputs": [
        {
          "internalType": "address",
          "name": "",
          "type": "address"
        }
      ],
      "stateMutability": "view",
      "type": "function"
    },
    {
      "inputs": [
        {
          "internalType": "string",
          "name": "id",
          "type": "string"
        }
      ],
      "name": "getSellerAddress",
      "outputs": [
        {
          "internalType": "address",
          "name": "",
          "type": "address"
        }
      ],
      "stateMutability": "view",
      "type": "function"
    },
    {
      "inputs": [
        {
          "internalType": "string",
          "name": "id",
          "type": "string"
        }
      ],
      "name": "getUnlockCode",
      "outputs": [
        {
          "internalType": "uint256",
          "name": "",
          "type": "uint256"
        }
      ],
      "stateMutability": "view",
      "type": "function"
    },
    {
      "inputs": [
        {
          "internalType": "address payable",
          "name": "_seller",
          "type": "address"
        },
        {
          "internalType": "uint256",
          "name": "_amountIn",
          "type": "uint256"
        },
        {
          "internalType": "uint256[]",
          "name": "_amountOut",
          "type": "uint256[]"
        },
        {
          "internalType": "string",
          "name": "_orderId",
          "type": "string"
        }
      ],
      "name": "newOrder",
      "outputs": [],
      "stateMutability": "payable",
      "type": "function"
    },
    {
      "inputs": [],
      "name": "owner",
      "outputs": [
        {
          "internalType": "address",
          "name": "",
          "type": "address"
        }
      ],
      "stateMutability": "view",
      "type": "function"
    },
    {
      "inputs": [
        {
          "internalType": "string",
          "name": "id",
          "type": "string"
        }
      ],
      "name": "refund",
      "outputs": [],
      "stateMutability": "nonpayable",
      "type": "function"
    },
    {
      "inputs": [],
      "name": "uniswapV2Router",
      "outputs": [
        {
          "internalType": "contract IUniswapV2Router02",
          "name": "",
          "type": "address"
        }
      ],
      "stateMutability": "view",
      "type": "function"
    }
  ],
  "bytecode": "0x60e060405273a6ad18c2ac47803e193f75c3677b14bf19b9488373ffffffffffffffffffffffffffffffffffffffff1660809073ffffffffffffffffffffffffffffffffffffffff1660601b81525073f1277d1ed8ad466beddf92ef448a13266195662173ffffffffffffffffffffffffffffffffffffffff1660a09073ffffffffffffffffffffffffffffffffffffffff1660601b81525073a70a572aa5489a5cdd0daa3bf0cf440a92f504026000806101000a81548173ffffffffffffffffffffffffffffffffffffffff021916908373ffffffffffffffffffffffffffffffffffffffff1602179055506000600355348015620000fe57600080fd5b50620001337f3ff25e351425e4ab7770f994bcefe8cb4f7bf24e3f2e949cf4c572938bd452c260001b620001d860201b60201c565b620001677f8802ad793c05f0100e6ee19c7cf441b95057d98ca41530f85c456b0ecda2bf0d60001b620001d860201b60201c565b6200019b7f8938ceda2860d5b88007cc02dae27741a1c6dd99af88404bd23334d12ae78f0760001b620001d860201b60201c565b3373ffffffffffffffffffffffffffffffffffffffff1660c08173ffffffffffffffffffffffffffffffffffffffff1660601b81525050620001db565b50565b60805160601c60a05160601c60c05160601c6153446200022260003960006130470152600081816105ff015261177401526000818161045d015261195001526153446000f3fe6080604052600436106100fe5760003560e01c80638b7afe2e1161009557806393a397761161006457806393a3977614610350578063bc6fea711461037b578063be3ac64b146103b8578063c5df16a0146103f5578063fe5f2e8814610432576100fe565b80638b7afe2e146102925780638d0a5fbb146102bd5780638da5cb5b146102e85780638fbf137014610313576100fe565b80633a875a43116100d15780633a875a43146101d35780633dfaf3091461021057806355b0f9271461022c5780637a202cc114610255576100fe565b80631694505e146101035780631cf708d41461012e5780631d170e7c1461016b57806321dbe876146101a8575b600080fd5b34801561010f57600080fd5b5061011861045b565b6040516101259190614ca5565b60405180910390f35b34801561013a57600080fd5b50610155600480360381019061015091906144e0565b61047f565b6040516101629190614e54565b60405180910390f35b34801561017757600080fd5b50610192600480360381019061018d91906144e0565b61052e565b60405161019f9190614c3f565b60405180910390f35b3480156101b457600080fd5b506101bd6105fd565b6040516101ca9190614c3f565b60405180910390f35b3480156101df57600080fd5b506101fa60048036038101906101f591906143ba565b610621565b6040516102079190614c83565b60405180910390f35b61022a600480360381019061022591906143e3565b610c34565b005b34801561023857600080fd5b50610253600480360381019061024e9190614521565b611d4f565b005b34801561026157600080fd5b5061027c600480360381019061027791906143ba565b612918565b6040516102899190614c83565b60405180910390f35b34801561029e57600080fd5b506102a7612f2b565b6040516102b49190614e54565b60405180910390f35b3480156102c957600080fd5b506102d2612fb7565b6040516102df9190614e54565b60405180910390f35b3480156102f457600080fd5b506102fd613045565b60405161030a9190614c3f565b60405180910390f35b34801561031f57600080fd5b5061033a600480360381019061033591906144e0565b613069565b6040516103479190614c3f565b60405180910390f35b34801561035c57600080fd5b50610365613138565b6040516103729190614c3f565b60405180910390f35b34801561038757600080fd5b506103a2600480360381019061039d91906144e0565b61315c565b6040516103af9190614e54565b60405180910390f35b3480156103c457600080fd5b506103df60048036038101906103da91906144e0565b61320b565b6040516103ec9190614cc0565b60405180910390f35b34801561040157600080fd5b5061041c600480360381019061041791906144e0565b6132c7565b6040516104299190614e39565b60405180910390f35b34801561043e57600080fd5b50610459600480360381019061045491906144e0565b6134d4565b005b7f000000000000000000000000000000000000000000000000000000000000000081565b60006104ad7fb213b3cfd5e888f00404ae6ed173b1153643c0d3ec4ab2d3e0ba01e06a36a8d460001b61405d565b6104d97f13abf1f9fccbedef21de276af565497f3fef55aea0792def02bb53a9b01e12f960001b61405d565b6105057f0a42d55204646c2a61868572ed07f3c4f06ba86714cab31d809c989a9212742160001b61405d565b6004826040516105159190614c11565b9081526020016040518091039020600301549050919050565b600061055c7f8dd98c7b0c6a93be0e6343d4bc9296f4b60b62cb6ef68f9f9003432789f60ce460001b61405d565b6105887f2ca7b2b56dc21e7aa3a5af3c80b590d5d23a4a256cdbcd606b1898a4f7fe85ba60001b61405d565b6105b47fbae9ce520fc315ef2f85e6791b6d57fb5a24531fd86820568a1f23427fd74b2d60001b61405d565b6004826040516105c49190614c11565b908152602001604051809103902060010160009054906101000a900473ffffffffffffffffffffffffffffffffffffffff169050919050565b7f000000000000000000000000000000000000000000000000000000000000000081565b606061064f7f362b3bc7d4dd67ed56b7ce86c8c9020f18ce0d777f331c933605d1497bb0c0be60001b61405d565b61067b7f3bbba0bc56fcf1f1dd71462aca75605e06b17e3c17df71616a540a300f8cd64060001b61405d565b6106a77f8df4926b1af19080734c84ae5bf76f8858238517a7279e49f3266abced2699ef60001b61405d565b6000600160008473ffffffffffffffffffffffffffffffffffffffff1673ffffffffffffffffffffffffffffffffffffffff1681526020019081526020016000208054905067ffffffffffffffff81111561072b577f4e487b7100000000000000000000000000000000000000000000000000000000600052604160045260246000fd5b60405190808252806020026020018201604052801561076457816020015b610751614060565b8152602001906001900390816107495790505b5090506107937ffbe3cb03e0a4ec6568619cb5464149c992e26e3d33620239c9f9d045aaaa3b4960001b61405d565b6107bf7f2181ab8efafa4efbf28a1c692b26eda79f7fd4f9ad35b868ca9f618dc981f5e960001b61405d565b60005b600160008573ffffffffffffffffffffffffffffffffffffffff1673ffffffffffffffffffffffffffffffffffffffff16815260200190815260200160002080549050811015610bd2576108387fb24e3c6fab41f4f5bed34fa86cadf57b52dbcba9f664832f5c4cde5e4f0a27c760001b61405d565b6108647f6635d615ed4c5ecc7b6da049dafbbdbc947363be68d5fc1fa35da19ee772650360001b61405d565b6040518060400160405280600160008773ffffffffffffffffffffffffffffffffffffffff1673ffffffffffffffffffffffffffffffffffffffff16815260200190815260200160002083815481106108e6577f4e487b7100000000000000000000000000000000000000000000000000000000600052603260045260246000fd5b9060005260206000200180546108fb90615156565b80601f016020809104026020016040519081016040528092919081815260200182805461092790615156565b80156109745780601f1061094957610100808354040283529160200191610974565b820191906000526020600020905b81548152906001019060200180831161095757829003601f168201915b505050505081526020016004600160008873ffffffffffffffffffffffffffffffffffffffff1673ffffffffffffffffffffffffffffffffffffffff16815260200190815260200160002084815481106109f7577f4e487b7100000000000000000000000000000000000000000000000000000000600052603260045260246000fd5b90600052602060002001604051610a0e9190614c28565b90815260200160405180910390206040518060c00160405290816000820160009054906101000a900473ffffffffffffffffffffffffffffffffffffffff1673ffffffffffffffffffffffffffffffffffffffff1673ffffffffffffffffffffffffffffffffffffffff1681526020016001820160009054906101000a900473ffffffffffffffffffffffffffffffffffffffff1673ffffffffffffffffffffffffffffffffffffffff1673ffffffffffffffffffffffffffffffffffffffff1681526020016002820154815260200160038201548152602001600482015481526020016005820160009054906101000a900460ff166004811115610b3c577f4e487b7100000000000000000000000000000000000000000000000000000000600052602160045260246000fd5b6004811115610b74577f4e487b7100000000000000000000000000000000000000000000000000000000600052602160045260246000fd5b81525050815250828281518110610bb4577f4e487b7100000000000000000000000000000000000000000000000000000000600052603260045260246000fd5b60200260200101819052508080610bca90615188565b9150506107c2565b50610bff7f115b5b5e90e673c61159a88fb96cdd07a3e0ee75c50599e46c1097befcffc61960001b61405d565b610c2b7fe75b04365a4cc02d6160612246b6a3630aebc712a7d1d12f159f9be8d77149f860001b61405d565b80915050919050565b8333610c627f19a34b1fe509bac56162c8d72eb46fe2ddd130c390330aa00e675f35541ff3cc60001b61405d565b610c8e7f3c3710e302a6673ac3d0fb79532e9793b922518386d06e496b07d8e7a853075460001b61405d565b610cba7fdaaba3b4030fb6a44725a94d919429dd52b061f1b55a1e6d99d4968135b59fd360001b61405d565b610ce67fb71ba503b7cc7b79565c0b698ddbc3319d0ca47311e7d5aa680a931e8c1a0ad360001b61405d565b8073ffffffffffffffffffffffffffffffffffffffff168273ffffffffffffffffffffffffffffffffffffffff161415610d55576040517f08c379a0000000000000000000000000000000000000000000000000000000008152600401610d4c90614d19565b60405180910390fd5b610d817f1f25d3c640865598b3c9d8752c47c383604e8e8271d30c61ee01e8421f152dc060001b61405d565b610dad7f3f24d45d21d052e1472582a83c0261367df52a275a13e12f00826eee8a509bc860001b61405d565b3385610ddb7f8914ea3d02937292e79c48752336eae1bbf64f02a88285f3a8d274cff303287160001b61405d565b610e077fe5ebfd70713e5ddfa6aad918d82c1755e51ae2cfc033a5c341d860cded1cba7b60001b61405d565b610e337f80d791ed5cd63d10e42cfe5ab4d00474b7fe41daa75249d977868eb96c7b646060001b61405d565b610e5f7fac89d8bbb84cd65a4e95b864b09bf5dab8d107a8833071af291e5124f9525d9660001b61405d565b808273ffffffffffffffffffffffffffffffffffffffff16311015610eb9576040517f08c379a0000000000000000000000000000000000000000000000000000000008152600401610eb090614dd9565b60405180910390fd5b610ee57f237c351a0dc9a977163455f7bdb1fa9cbe56cd3006fe44416d20e3eb3e063ee260001b61405d565b610f117f6bd8c8af6be7ebad23a49a1a2d6903f18db9e998e968e8df42414d7983e9086460001b61405d565b84610f3e7f2b64bf8a6a938c0e5dcb73af3d59187b957828639d05c7e0143f9e7189b580a060001b61405d565b610f6a7f7473a808ba505283fea114755fa5837d2deaee54981dc951e376007f7df8ea7a60001b61405d565b610f967fe2a4fccae32e09d5a4f25e9bb169ef37de979436885176b05825b267ce4677f960001b61405d565b610fc27fd83a4787de9f9b598b6155e50c50847c2d769eb88b1f2218c91a82e743f8bd1560001b61405d565b600481604051610fd29190614c11565b908152602001604051809103902060050160009054906101000a900460ff166004811115611029577f4e487b7100000000000000000000000000000000000000000000000000000000600052602160045260246000fd5b60006004811115611063577f4e487b7100000000000000000000000000000000000000000000000000000000600052602160045260246000fd5b146110a3576040517f08c379a000000000000000000000000000000000000000000000000000000000815260040161109a90614d39565b60405180910390fd5b6110cf7fe668a93ceb1d9e92ce71367c1119058b89eba67e4236494fb709d16c668effb360001b61405d565b6110fb7fd9fb025d24fdb6beedfce297f54d63cf568d5cf53431f4f70ead218bf32c6db660001b61405d565b6111277f4745425372758d566ac45dd40d4fcb42834e19ebdbfe292d8e411553b283189d60001b61405d565b6111537f75309c9a1d4e73c00400c3b8852f76790f47649368c8002647e1353b809e4a6860001b61405d565b61117f7fb99b332e1a499f843529d82874a168b0d04145955ee878dbf79b56c096ae816360001b61405d565b6111ab7f1f6a9c9a7fc7f555f4d1771ed055c2ad4dd8f3707600aa9ce4a5a94ac3634ae560001b61405d565b873410156111ee576040517f08c379a00000000000000000000000000000000000000000000000000000000081526004016111e590614e19565b60405180910390fd5b61121a7ff0fa651957b1677eafa8906400e2bdc60162f32ff91fd40a6cbc69fd264e1df160001b61405d565b6112467f5625b702b127106077a5c7fca86bfd650428df352d6b39f72a22b74f3d6c28dd60001b61405d565b6003600081548092919061125990615188565b919050555061128a7fbaac7241011036967257f729c6df613cdc35a1750afcb7e35dc4da1e9239082960001b61405d565b6112b67fca3128b1dce5452a7af466c7fa8cdc8bd4bee68539be14e68a561630c28fc99d60001b61405d565b6040518060c001604052808a73ffffffffffffffffffffffffffffffffffffffff1681526020013373ffffffffffffffffffffffffffffffffffffffff16815260200188600081518110611333577f4e487b7100000000000000000000000000000000000000000000000000000000600052603260045260246000fd5b6020026020010151815260200143815260200142815260200160026004811115611386577f4e487b7100000000000000000000000000000000000000000000000000000000600052602160045260246000fd5b8152506004876040516113999190614c11565b908152602001604051809103902060008201518160000160006101000a81548173ffffffffffffffffffffffffffffffffffffffff021916908373ffffffffffffffffffffffffffffffffffffffff16021790555060208201518160010160006101000a81548173ffffffffffffffffffffffffffffffffffffffff021916908373ffffffffffffffffffffffffffffffffffffffff16021790555060408201518160020155606082015181600301556080820151816004015560a08201518160050160006101000a81548160ff021916908360048111156114a4577f4e487b7100000000000000000000000000000000000000000000000000000000600052602160045260246000fd5b02179055509050506114d87fddbd0aaf0b36a4f0775910f5d9583cac719082572d045c648e255049f539ac3860001b61405d565b6115047ff15c8ff4481a854aa0d9041b6cefbeada406486d493d077a24b4fb1ed2f3637560001b61405d565b600160003373ffffffffffffffffffffffffffffffffffffffff1673ffffffffffffffffffffffffffffffffffffffff1681526020019081526020016000208690806001815401808255809150506001900390600052602060002001600090919091909150908051906020019061157c929190614080565b506115a97fde09ef5f588413787c2c078105b49b9d6d1613a633b4c25e4f0eddfc620ed11660001b61405d565b6115d57f2a17f997fd37187f6e1c59a2f7ca8e657a5636f8756499b4f0d9dcaa00ac8dcf60001b61405d565b600260008a73ffffffffffffffffffffffffffffffffffffffff1673ffffffffffffffffffffffffffffffffffffffff1681526020019081526020016000208690806001815401808255809150506001900390600052602060002001600090919091909150908051906020019061164d929190614080565b5061167a7ff32d5acfbc269abfbbcc4ed590c57e29584e8ca0455e370685dc539f6579002760001b61405d565b6116a67f844b74e49b55b3b3b3a9da82085b18ca94200d5651e9d9c2db3238c493b7ab9160001b61405d565b6000600267ffffffffffffffff8111156116e9577f4e487b7100000000000000000000000000000000000000000000000000000000600052604160045260246000fd5b6040519080825280602002602001820160405280156117175781602001602082028036833780820191505090505b5090506117467f1c844e68445e214a57a10812a415a2ec16d8df8d1ec19223486eaa7212e5490560001b61405d565b6117727f32bcb09afa37c81f379125a99664fb3c1745dc4b4ec2782a8c5d2765ba26b18060001b61405d565b7f0000000000000000000000000000000000000000000000000000000000000000816000815181106117cd577f4e487b7100000000000000000000000000000000000000000000000000000000600052603260045260246000fd5b602002602001019073ffffffffffffffffffffffffffffffffffffffff16908173ffffffffffffffffffffffffffffffffffffffff16815250506118337f1c910e178c8856134fe04cbf0563fe8ae8493237550163845bddd040607ac8fe60001b61405d565b61185f7f7c61496bd06ce904f45d556a79a2af8937f790a744a1a683b6fbc795a95fea9160001b61405d565b60008054906101000a900473ffffffffffffffffffffffffffffffffffffffff16816001815181106118ba577f4e487b7100000000000000000000000000000000000000000000000000000000600052603260045260246000fd5b602002602001019073ffffffffffffffffffffffffffffffffffffffff16908173ffffffffffffffffffffffffffffffffffffffff16815250506119207f5577969ff0924f09492997a5627a5a62360a12e174a585514f04c38bbcd57cfd60001b61405d565b61194c7f1a1cd596fd103bb8f7cc85ecef8392daa41a6a5eacfe364e6f8a13acc75544ce60001b61405d565b60007f000000000000000000000000000000000000000000000000000000000000000073ffffffffffffffffffffffffffffffffffffffff1663fb3bdb41348b6000815181106119c5577f4e487b7100000000000000000000000000000000000000000000000000000000600052603260045260246000fd5b60200260200101518530426040518663ffffffff1660e01b81526004016119ef9493929190614e6f565b6000604051808303818588803b158015611a0857600080fd5b505af1158015611a1c573d6000803e3d6000fd5b50505050506040513d6000823e3d601f19601f82011682018060405250810190611a469190614476565b9050611a747fa778d1ad9185e950fb9dc94ab1f80cc6db8dba85b9139a45a3aeaca1410e57f260001b61405d565b611aa07ffd781a86a89e2c80c26225e05db3cc5878d3b083143fbd23671168a1afbe8e6d60001b61405d565b3481600081518110611adb577f4e487b7100000000000000000000000000000000000000000000000000000000600052603260045260246000fd5b60200260200101511015611c0557611b157f6b2cc612680cf59a7c756ef927c5162c7fa234dfc5214040ce174a61666e2ed860001b61405d565b611b417f4e79eadc1bce98fa5aba87edc90656fbec8936e85566b2e3a93eb9ee79fa28e660001b61405d565b611b6d7f413584909fc99f6c4263c4f4a2372894f308999f86b4255591f49040feba79d660001b61405d565b3373ffffffffffffffffffffffffffffffffffffffff166108fc82600081518110611bc1577f4e487b7100000000000000000000000000000000000000000000000000000000600052603260045260246000fd5b602002602001015134611bd49190615007565b9081150290604051600060405180830381858888f19350505050158015611bff573d6000803e3d6000fd5b50611c32565b611c317f46217e02cfef73dbda624d83e140e4615603292a7b9923d43505c7944998605d60001b61405d565b5b611c5e7ff840b24a5e66c9e7335014ab3e3bef0c151f8d8e940ecaa84066090859902a6b60001b61405d565b611c8a7f8474b71788c41cd7493a4f3c58880c6b27d217266a559861788cef457ba3612160001b61405d565b60026004811115611cc4577f4e487b7100000000000000000000000000000000000000000000000000000000600052602160045260246000fd5b428a600081518110611cff577f4e487b7100000000000000000000000000000000000000000000000000000000600052603260045260246000fd5b60200260200101517faf1d38d12bff33324cb899bc12ec520f0e2affc2efaafb256b3ef57ce9b703e08b8f33604051611d3a93929190614cdb565b60405180910390a45050505050505050505050565b81611d7c7fb49915c86751e388f61d3b9560a00f5b7fd332bb05cfca8d86008aaf40c143a660001b61405d565b611da87ff41608017ab812b55fbb5e5f950077fffdd97b31c3c6aa4a67d12827f50a420460001b61405d565b611dd47fb1276417e70bd68d60ba8959a3bf195aa2cf0cc8c4d326e5ba74ffaa30992dd660001b61405d565b611e007f8f17739cdc067e1fcc5c23c893fb9cebc01eb1151e0761f95659a6e104ffdd7760001b61405d565b3373ffffffffffffffffffffffffffffffffffffffff16600482604051611e279190614c11565b908152602001604051809103902060010160009054906101000a900473ffffffffffffffffffffffffffffffffffffffff1673ffffffffffffffffffffffffffffffffffffffff1614611eaf576040517f08c379a0000000000000000000000000000000000000000000000000000000008152600401611ea690614db9565b60405180910390fd5b611edb7f5e1f7c0624909a28d987548afe390891eb009b6d137f3e98c04d13b8fd94ed1860001b61405d565b611f077fe52505330bae5a488230317d8e7af846e2511310715895dd2d10f4721e7f5da660001b61405d565b826002611f367ff50119ea614062745a4a8680f981b67e34ff6547b04415736ec7dbd039d0a34060001b61405d565b611f627fb2878ce801d11df523f76d541d233100fbdf33f94fc30a27378bd44e7977d46460001b61405d565b611f8e7f1fdd4c1fca20d69a171cda7b18bbd9f003f29aff7782ded4f45b62bc3996b59960001b61405d565b611fba7fea155d960a6b6f1b3b6ed1b1536de31ecfb30a62c9c6da7f90fc53179c7a3d2660001b61405d565b600482604051611fca9190614c11565b908152602001604051809103902060050160009054906101000a900460ff166004811115612021577f4e487b7100000000000000000000000000000000000000000000000000000000600052602160045260246000fd5b81600481111561205a577f4e487b7100000000000000000000000000000000000000000000000000000000600052602160045260246000fd5b1461209a576040517f08c379a000000000000000000000000000000000000000000000000000000000815260040161209190614d99565b60405180910390fd5b6120c67fe01ba4b3acd2e5f1b6a7ac0954d465235779d1d70a8d33ff78b3fb20ffa4657f60001b61405d565b6120f27f93eecfd0ec19dab39707dc2f3975b52761400ef72f3b66ef3d23f7f9d80d936960001b61405d565b61211e7f5e9bb28deccd5b7eb7e21bc74a52b277b96b879b61cc17592f0c00671dc4641f60001b61405d565b61214a7ff85879fb9562861eb8dec05e6f8764cf1be943b97b679a259277e6f89e9dd99e60001b61405d565b6121767f08ff34abb700680dc03802680951bdba82962334b31010dae4ac5a29575d78f060001b61405d565b60006004866040516121889190614c11565b90815260200160405180910390206040518060c00160405290816000820160009054906101000a900473ffffffffffffffffffffffffffffffffffffffff1673ffffffffffffffffffffffffffffffffffffffff1673ffffffffffffffffffffffffffffffffffffffff1681526020016001820160009054906101000a900473ffffffffffffffffffffffffffffffffffffffff1673ffffffffffffffffffffffffffffffffffffffff1673ffffffffffffffffffffffffffffffffffffffff1681526020016002820154815260200160038201548152602001600482015481526020016005820160009054906101000a900460ff1660048111156122b6577f4e487b7100000000000000000000000000000000000000000000000000000000600052602160045260246000fd5b60048111156122ee577f4e487b7100000000000000000000000000000000000000000000000000000000600052602160045260246000fd5b8152505090506123207f35803d8635336305ab1108570fe7e55d94c1de8f643754de89392a0d11e2860d60001b61405d565b61234c7f9e61cee7b7ed09f0585ebcb14e27060169677dddcfaf91f3eb4156e31cafce7f60001b61405d565b6123787f853deb24d12c476741bb688d0bdad674d73ac84fec4c98a2a096633b9fe5a1a460001b61405d565b848160600151146123be576040517f08c379a00000000000000000000000000000000000000000000000000000000081526004016123b590614d79565b60405180910390fd5b6123ea7f9c5b97f02be0cac4ce8325ed1e5bd8cd964a90ddaf399dca4a291dafbe156ba760001b61405d565b6124167f0f356e4125354dd905ac9df1d34c8df9393f6dea2dff6eb687205bfb3539963a60001b61405d565b6124427f0533b06825513a14e5505a9f75181d645ae3e261eae5b7eaed794610a627899b60001b61405d565b61246e7f418596fa77a0c8c89bef074e72636893aa4e851b395dfb43b2307632b89c39bb60001b61405d565b60008054906101000a900473ffffffffffffffffffffffffffffffffffffffff1673ffffffffffffffffffffffffffffffffffffffff1663a9059cbb826000015183604001516040518363ffffffff1660e01b81526004016124d1929190614c5a565b602060405180830381600087803b1580156124eb57600080fd5b505af11580156124ff573d6000803e3d6000fd5b505050506040513d601f19601f8201168201806040525081019061252391906144b7565b612562576040517f08c379a000000000000000000000000000000000000000000000000000000000815260040161255990614df9565b60405180910390fd5b61258e7f85765565073560f9fa937c5512b3ef1e24ac7ae6d326c35b9f5fe214ac090f4a60001b61405d565b6125ba7fbf31df2e1a1432518521c4bd2ae16efdd4561198a84c7c1adc1e847fd4d39d5b60001b61405d565b6125e67f47086a2aa562818652518371d142993b94a80f83b4518a1cdc6f719bf11caf1860001b61405d565b60038160a001906004811115612625577f4e487b7100000000000000000000000000000000000000000000000000000000600052602160045260246000fd5b9081600481111561265f577f4e487b7100000000000000000000000000000000000000000000000000000000600052602160045260246000fd5b8152505061268f7f93f9899989472d0158f10e00104a4bb5c4d83b09f4c50fa565c39c234109ce4460001b61405d565b6126bb7ff1de19cea530e52cb3d28c33248693791a4fa8a98981c08fdc91e2f5e9271cb860001b61405d565b806004876040516126cc9190614c11565b908152602001604051809103902060008201518160000160006101000a81548173ffffffffffffffffffffffffffffffffffffffff021916908373ffffffffffffffffffffffffffffffffffffffff16021790555060208201518160010160006101000a81548173ffffffffffffffffffffffffffffffffffffffff021916908373ffffffffffffffffffffffffffffffffffffffff16021790555060408201518160020155606082015181600301556080820151816004015560a08201518160050160006101000a81548160ff021916908360048111156127d7577f4e487b7100000000000000000000000000000000000000000000000000000000600052602160045260246000fd5b021790555090505061280b7f864a99f8f564eff95861fcd29a39d234c3463868b20c9202f58ff5cc6600027460001b61405d565b6128377ff3da63524e00cf947b83fa6e9aa7e8f3a24f8cbba228c8373deb2fb93c64045e60001b61405d565b60036004811115612871577f4e487b7100000000000000000000000000000000000000000000000000000000600052602160045260246000fd5b426004886040516128829190614c11565b9081526020016040518091039020600201547f92920d559afffc5707482f79beeb2a17d437af72aa691ccd51ccc7c124a419528960048b6040516128c69190614c11565b908152602001604051809103902060000160009054906101000a900473ffffffffffffffffffffffffffffffffffffffff163360405161290893929190614cdb565b60405180910390a4505050505050565b60606129467f769dd90a0b64e130c5f0588df30a9861df4d7995f8eb24408f45a3914017406e60001b61405d565b6129727fdf5389b1234be6db6466efaebab516d34a0dc3f73f44ddd6287cdb18d2b296aa60001b61405d565b61299e7f40e9a8e03402a0399058b5bbcbcf156cc0aae5dc4dffa532bb08aaa5e0727e3e60001b61405d565b6000600260008473ffffffffffffffffffffffffffffffffffffffff1673ffffffffffffffffffffffffffffffffffffffff1681526020019081526020016000208054905067ffffffffffffffff811115612a22577f4e487b7100000000000000000000000000000000000000000000000000000000600052604160045260246000fd5b604051908082528060200260200182016040528015612a5b57816020015b612a48614060565b815260200190600190039081612a405790505b509050612a8a7f710424c9e9c56fd20c6355625447c74e380daeb1149a2266cc50b70fdc2d138b60001b61405d565b612ab67f987033a2d8101c33b26f03d0056dca75d7813e897ab5af34b9ad33d830a1734e60001b61405d565b60005b600260008573ffffffffffffffffffffffffffffffffffffffff1673ffffffffffffffffffffffffffffffffffffffff16815260200190815260200160002080549050811015612ec957612b2f7f95f21870d6e6064c4e3a28e80ad9f735ba5ae2c259ca3c65e4dea81384f8a69060001b61405d565b612b5b7f77d479e10bf17f715beeabc525f762d842d538fb2b9a1facdc1f7d3bdaefb70860001b61405d565b6040518060400160405280600260008773ffffffffffffffffffffffffffffffffffffffff1673ffffffffffffffffffffffffffffffffffffffff1681526020019081526020016000208381548110612bdd577f4e487b7100000000000000000000000000000000000000000000000000000000600052603260045260246000fd5b906000526020600020018054612bf290615156565b80601f0160208091040260200160405190810160405280929190818152602001828054612c1e90615156565b8015612c6b5780601f10612c4057610100808354040283529160200191612c6b565b820191906000526020600020905b815481529060010190602001808311612c4e57829003601f168201915b505050505081526020016004600260008873ffffffffffffffffffffffffffffffffffffffff1673ffffffffffffffffffffffffffffffffffffffff1681526020019081526020016000208481548110612cee577f4e487b7100000000000000000000000000000000000000000000000000000000600052603260045260246000fd5b90600052602060002001604051612d059190614c28565b90815260200160405180910390206040518060c00160405290816000820160009054906101000a900473ffffffffffffffffffffffffffffffffffffffff1673ffffffffffffffffffffffffffffffffffffffff1673ffffffffffffffffffffffffffffffffffffffff1681526020016001820160009054906101000a900473ffffffffffffffffffffffffffffffffffffffff1673ffffffffffffffffffffffffffffffffffffffff1673ffffffffffffffffffffffffffffffffffffffff1681526020016002820154815260200160038201548152602001600482015481526020016005820160009054906101000a900460ff166004811115612e33577f4e487b7100000000000000000000000000000000000000000000000000000000600052602160045260246000fd5b6004811115612e6b577f4e487b7100000000000000000000000000000000000000000000000000000000600052602160045260246000fd5b81525050815250828281518110612eab577f4e487b7100000000000000000000000000000000000000000000000000000000600052603260045260246000fd5b60200260200101819052508080612ec190615188565b915050612ab9565b50612ef67f29a176824a48d8af7c7be8fa64dfb431ed8fcbe2c34154ce36456f055e1f843660001b61405d565b612f227fc92a641e3106f74a11b986ff437f2e56367f8ec8a5ac771d670ddd64ab82534260001b61405d565b80915050919050565b6000612f597ff0a5c733c01da5782de6e69c2ac4825665bac6ba81bc334f21fa747614a191cf60001b61405d565b612f857f850a1670c9a027e44e50805219e75e35280095b941dc57a9cb9e4d67db3c309360001b61405d565b612fb17f8db0491563e4b54504a7e27ca6fb2d8709a48f4f07eb2abe162dd098ff8c803c60001b61405d565b47905090565b6000612fe57f34e9e42d7945cb0272a1b20c38e2ae3b5dc8a451b38d8fd0c71e2ab424b1d5ca60001b61405d565b6130117fef0bacbeb35f53e415e3b6d92e636b377af503833302a93379180517d6c6ba7c60001b61405d565b61303d7f4c51188c3dde22162eb5ef9e0e67a198e95b5a2012bc59e6a7227aec876b37c660001b61405d565b600354905090565b7f000000000000000000000000000000000000000000000000000000000000000081565b60006130977f542d7039a4f89f9849d99850b2a3b5c02133b1d030310aa2a4a671c51ea35e6d60001b61405d565b6130c37fc4684e3c3c886adc808b5817c7bf8c764abf9999a465cbe01a397d2d6ffd32b860001b61405d565b6130ef7f5208904dd423fe7bcd0bcd6d906e590cac2b97fc16e332eba8d7d2a44ab9e87d60001b61405d565b6004826040516130ff9190614c11565b908152602001604051809103902060000160009054906101000a900473ffffffffffffffffffffffffffffffffffffffff169050919050565b60008054906101000a900473ffffffffffffffffffffffffffffffffffffffff1681565b600061318a7f456cf2b94acd32e349bb79d518d8b7171e88771215e0f2100d047c23bcdc6f4860001b61405d565b6131b67f8d8090eec8fa6f29166dd50c605d0b4032fc72e533c9b549646177f503ea90cb60001b61405d565b6131e27f2b75bc3d85170bc7bcde6cf488cd9df896cceacdcf9767d37ed0dd98aae9780460001b61405d565b6004826040516131f29190614c11565b9081526020016040518091039020600201549050919050565b60006132397f8b2f8eab952dd07c556bafe0b3774dae2ecab1483d33cc9ad6d558506242442760001b61405d565b6132657f2424d58dcb8ecedca093d16f7b1353146694485db774b6c3e136364fba71986e60001b61405d565b6132917fa60301e46a3842881b3f5448b4ee5990d902e4b9c9b35c4b8ba40cef0ade4f0160001b61405d565b6004826040516132a19190614c11565b908152602001604051809103902060050160009054906101000a900460ff169050919050565b6132cf614106565b6132fb7fae8d8a7bc7818ccbf692f7d443b2de722bdcceb4afea322d46c20de24771c73160001b61405d565b6133277fce36bdd6861596de31d9ec22c1563c4c392355cbcf51f67dacf16f6503b3c7a060001b61405d565b6133537f49ce992063bae81ad9af9856329eeb200d4e2873c4866e0fddff44c5328bd28b60001b61405d565b6004826040516133639190614c11565b90815260200160405180910390206040518060c00160405290816000820160009054906101000a900473ffffffffffffffffffffffffffffffffffffffff1673ffffffffffffffffffffffffffffffffffffffff1673ffffffffffffffffffffffffffffffffffffffff1681526020016001820160009054906101000a900473ffffffffffffffffffffffffffffffffffffffff1673ffffffffffffffffffffffffffffffffffffffff1673ffffffffffffffffffffffffffffffffffffffff1681526020016002820154815260200160038201548152602001600482015481526020016005820160009054906101000a900460ff166004811115613491577f4e487b7100000000000000000000000000000000000000000000000000000000600052602160045260246000fd5b60048111156134c9577f4e487b7100000000000000000000000000000000000000000000000000000000600052602160045260246000fd5b815250509050919050565b806135017f972c3af7081e2c470a777436fc120ace68fb995bcef8afbb347a2762c02032a860001b61405d565b61352d7f932d34212270379a95200ccfcd5e993b108360f36bc63ad73261b49ef3f2512960001b61405d565b6135597fbfa8d745f6bdc1672a40ebb7b3d0f90ae01d2a7e3aebf9a51c87f99eb55f4d7d60001b61405d565b6135857f73e36e6bc966bec816eaf3817eff579917a387025147af775c594feece58b32060001b61405d565b3373ffffffffffffffffffffffffffffffffffffffff166004826040516135ac9190614c11565b908152602001604051809103902060000160009054906101000a900473ffffffffffffffffffffffffffffffffffffffff1673ffffffffffffffffffffffffffffffffffffffff16148061366c57503373ffffffffffffffffffffffffffffffffffffffff166004826040516136229190614c11565b908152602001604051809103902060010160009054906101000a900473ffffffffffffffffffffffffffffffffffffffff1673ffffffffffffffffffffffffffffffffffffffff16145b6136ab576040517f08c379a00000000000000000000000000000000000000000000000000000000081526004016136a290614d59565b60405180910390fd5b6136d77f85a20b3f25badceac82216b459b2c01aadddeeaf01c91fbb9e14eec5730d687660001b61405d565b6137037f435a97b6ac6769c5d76a0c6f8b4dd4f0a9cbbee5963bf44948b3066cd36fdfed60001b61405d565b8160026137327ff50119ea614062745a4a8680f981b67e34ff6547b04415736ec7dbd039d0a34060001b61405d565b61375e7fb2878ce801d11df523f76d541d233100fbdf33f94fc30a27378bd44e7977d46460001b61405d565b61378a7f1fdd4c1fca20d69a171cda7b18bbd9f003f29aff7782ded4f45b62bc3996b59960001b61405d565b6137b67fea155d960a6b6f1b3b6ed1b1536de31ecfb30a62c9c6da7f90fc53179c7a3d2660001b61405d565b6004826040516137c69190614c11565b908152602001604051809103902060050160009054906101000a900460ff16600481111561381d577f4e487b7100000000000000000000000000000000000000000000000000000000600052602160045260246000fd5b816004811115613856577f4e487b7100000000000000000000000000000000000000000000000000000000600052602160045260246000fd5b14613896576040517f08c379a000000000000000000000000000000000000000000000000000000000815260040161388d90614d99565b60405180910390fd5b6138c27fe01ba4b3acd2e5f1b6a7ac0954d465235779d1d70a8d33ff78b3fb20ffa4657f60001b61405d565b6138ee7f93eecfd0ec19dab39707dc2f3975b52761400ef72f3b66ef3d23f7f9d80d936960001b61405d565b61391a7fd39ddac5bd026b2f62f8b97a67c99b52b8fd5fde0994454541f5e7e3e2196ea560001b61405d565b6139467fbad0cb5640a43f2ba5d6ca98bd5d5c4983887c86d840181ea2ebe8f5bab7503560001b61405d565b6139727fd8f82f08185c9434d816571265fe3291e8d10f82d30cb3744adfdd67456fa8f960001b61405d565b60006004856040516139849190614c11565b90815260200160405180910390206040518060c00160405290816000820160009054906101000a900473ffffffffffffffffffffffffffffffffffffffff1673ffffffffffffffffffffffffffffffffffffffff1673ffffffffffffffffffffffffffffffffffffffff1681526020016001820160009054906101000a900473ffffffffffffffffffffffffffffffffffffffff1673ffffffffffffffffffffffffffffffffffffffff1673ffffffffffffffffffffffffffffffffffffffff1681526020016002820154815260200160038201548152602001600482015481526020016005820160009054906101000a900460ff166004811115613ab2577f4e487b7100000000000000000000000000000000000000000000000000000000600052602160045260246000fd5b6004811115613aea577f4e487b7100000000000000000000000000000000000000000000000000000000600052602160045260246000fd5b815250509050613b1c7f5be8ec239fe73f6c75b98143ad2a64f38e06a30a69f2722d536e51944f4f1fb260001b61405d565b613b487fef409f0a3b702715123b1adf2c3aa31864f5f188a1c17a7d71c7651fe9d5f12260001b61405d565b613b747f225e54cac3a6b8df199b7bb06bf4b403848dd31c1a909407c3d323c5f2ea56aa60001b61405d565b60008054906101000a900473ffffffffffffffffffffffffffffffffffffffff1673ffffffffffffffffffffffffffffffffffffffff1663a9059cbb826020015183604001516040518363ffffffff1660e01b8152600401613bd7929190614c5a565b602060405180830381600087803b158015613bf157600080fd5b505af1158015613c05573d6000803e3d6000fd5b505050506040513d601f19601f82011682018060405250810190613c2991906144b7565b613c68576040517f08c379a0000000000000000000000000000000000000000000000000000000008152600401613c5f90614df9565b60405180910390fd5b613c947fa98e62fc20ca3a4bb766d4e056312da690fed592b1a1b35e43db27bf9cba37a960001b61405d565b613cc07f20fb7b63a4025933df29c8d04d19447799b8f3ba4972a9888bda0c4af34fa32760001b61405d565b613cec7f0ef37f59669beddd9cfb9ba8f962dab5307fd998446d655e394739b7811f2e4660001b61405d565b60048160a001906004811115613d2b577f4e487b7100000000000000000000000000000000000000000000000000000000600052602160045260246000fd5b90816004811115613d65577f4e487b7100000000000000000000000000000000000000000000000000000000600052602160045260246000fd5b81525050613d957ff308c0e6cd3ce3f14f493ba99e018382e7141268cafe4d32b484f98e33c288be60001b61405d565b613dc17ffc532b41edad50a8f57732504a13af1568c0bcd7f8b140e3002dc12f79e9bf7560001b61405d565b80600486604051613dd29190614c11565b908152602001604051809103902060008201518160000160006101000a81548173ffffffffffffffffffffffffffffffffffffffff021916908373ffffffffffffffffffffffffffffffffffffffff16021790555060208201518160010160006101000a81548173ffffffffffffffffffffffffffffffffffffffff021916908373ffffffffffffffffffffffffffffffffffffffff16021790555060408201518160020155606082015181600301556080820151816004015560a08201518160050160006101000a81548160ff02191690836004811115613edd577f4e487b7100000000000000000000000000000000000000000000000000000000600052602160045260246000fd5b0217905550905050613f117f07eddcd435a80b7ebe2f8e5891c2ddc524f8cb3d4c0096b620e66d365959850360001b61405d565b613f3d7f9927049c5551a10bc2bcb0819e704010b2be0650b784603cb35bca42cb37d87f60001b61405d565b600480811115613f76577f4e487b7100000000000000000000000000000000000000000000000000000000600052602160045260246000fd5b42600487604051613f879190614c11565b9081526020016040518091039020600201547fdeb1466d19b7c591c503778ea470cdd6e7f4880cee0e2dedcb46fe86025c9e918860048a604051613fcb9190614c11565b908152602001604051809103902060000160009054906101000a900473ffffffffffffffffffffffffffffffffffffffff1660048b60405161400d9190614c11565b908152602001604051809103902060010160009054906101000a900473ffffffffffffffffffffffffffffffffffffffff1660405161404e93929190614cdb565b60405180910390a45050505050565b50565b60405180604001604052806060815260200161407a614106565b81525090565b82805461408c90615156565b90600052602060002090601f0160209004810192826140ae57600085556140f5565b82601f106140c757805160ff19168380011785556140f5565b828001600101855582156140f5579182015b828111156140f45782518255916020019190600101906140d9565b5b50905061410291906141a0565b5090565b6040518060c00160405280600073ffffffffffffffffffffffffffffffffffffffff168152602001600073ffffffffffffffffffffffffffffffffffffffff1681526020016000815260200160008152602001600081526020016000600481111561419a577f4e487b7100000000000000000000000000000000000000000000000000000000600052602160045260246000fd5b81525090565b5b808211156141b95760008160009055506001016141a1565b5090565b60006141d06141cb84614eec565b614ebb565b905080838252602082019050828560208602820111156141ef57600080fd5b60005b8581101561421f57816142058882614390565b8452602084019350602083019250506001810190506141f2565b5050509392505050565b600061423c61423784614eec565b614ebb565b9050808382526020820190508285602086028201111561425b57600080fd5b60005b8581101561428b578161427188826143a5565b84526020840193506020830192505060018101905061425e565b5050509392505050565b60006142a86142a384614f18565b614ebb565b9050828152602081018484840111156142c057600080fd5b6142cb848285615114565b509392505050565b6000813590506142e2816152b2565b92915050565b6000813590506142f7816152c9565b92915050565b600082601f83011261430e57600080fd5b813561431e8482602086016141bd565b91505092915050565b600082601f83011261433857600080fd5b8151614348848260208601614229565b91505092915050565b600081519050614360816152e0565b92915050565b600082601f83011261437757600080fd5b8135614387848260208601614295565b91505092915050565b60008135905061439f816152f7565b92915050565b6000815190506143b4816152f7565b92915050565b6000602082840312156143cc57600080fd5b60006143da848285016142d3565b91505092915050565b600080600080608085870312156143f957600080fd5b6000614407878288016142e8565b945050602061441887828801614390565b935050604085013567ffffffffffffffff81111561443557600080fd5b614441878288016142fd565b925050606085013567ffffffffffffffff81111561445e57600080fd5b61446a87828801614366565b91505092959194509250565b60006020828403121561448857600080fd5b600082015167ffffffffffffffff8111156144a257600080fd5b6144ae84828501614327565b91505092915050565b6000602082840312156144c957600080fd5b60006144d784828501614351565b91505092915050565b6000602082840312156144f257600080fd5b600082013567ffffffffffffffff81111561450c57600080fd5b61451884828501614366565b91505092915050565b6000806040838503121561453457600080fd5b600083013567ffffffffffffffff81111561454e57600080fd5b61455a85828601614366565b925050602061456b85828601614390565b9150509250929050565b600061458183836145ce565b60208301905092915050565b60006145998383614ac0565b905092915050565b6145aa816150a8565b82525050565b6145b98161504d565b82525050565b6145c88161504d565b82525050565b6145d78161503b565b82525050565b6145e68161503b565b82525050565b60006145f782614f7d565b6146018185614fb8565b935061460c83614f48565b8060005b8381101561463d5781516146248882614575565b975061462f83614f9e565b925050600181019050614610565b5085935050505092915050565b600061465582614f88565b61465f8185614fc9565b93508360208202850161467185614f58565b8060005b858110156146ad578484038952815161468e858261458d565b945061469983614fab565b925060208a01995050600181019050614675565b50829750879550505050505092915050565b6146c8816150ba565b82525050565b6146d7816150de565b82525050565b6146e6816150de565b82525050565b60006146f782614f93565b6147018185614fda565b9350614711818560208601615123565b61471a8161528d565b840191505092915050565b600061473082614f93565b61473a8185614feb565b935061474a818560208601615123565b6147538161528d565b840191505092915050565b600061476982614f93565b6147738185614ffc565b9350614783818560208601615123565b80840191505092915050565b6000815461479c81615156565b6147a68186614ffc565b945060018216600081146147c157600181146147d257614805565b60ff19831686528186019350614805565b6147db85614f68565b60005b838110156147fd578154818901526001820191506020810190506147de565b838801955050505b50505092915050565b600061481b602383614feb565b91507f7468652073656c6c657220616e642062757965722063616e277420626520657160008301527f75616c00000000000000000000000000000000000000000000000000000000006020830152604082019050919050565b6000614881601783614feb565b91507f6f7264657220696420616c7265616479206578697374730000000000000000006000830152602082019050919050565b60006148c1603083614feb565b91507f796f75206d75737420626520746865206f776e6572206f72207468652073656c60008301527f6c6572206f6620746865206f72646572000000000000000000000000000000006020830152604082019050919050565b6000614927601383614feb565b91507f496e76616c696420756e6c6f636b20636f6465000000000000000000000000006000830152602082019050919050565b6000614967602083614feb565b91507f746865206f72646572206861736e2774207468652076616c69642073746174656000830152602082019050919050565b60006149a7602583614feb565b91507f6f6e6c7920746865206f776e65722063616e2063616c6c20746869732066756e60008301527f6374696f6e0000000000000000000000000000000000000000000000000000006020830152604082019050919050565b6000614a0d601283614feb565b91507f696e73756666696369656e742066756e647300000000000000000000000000006000830152602082019050919050565b6000614a4d601083614feb565b91507f5472616e73666572206661696c65642e000000000000000000000000000000006000830152602082019050919050565b6000614a8d601783614feb565b91507f496e73756666696369656e7420636f696e2076616c75650000000000000000006000830152602082019050919050565b600060e0830160008301518482036000860152614add82826146ec565b9150506020830151614af26020860182614afd565b508091505092915050565b60c082016000820151614b1360008501826145b0565b506020820151614b2660208501826145b0565b506040820151614b396040850182614bf3565b506060820151614b4c6060850182614bf3565b506080820151614b5f6080850182614bf3565b5060a0820151614b7260a08501826146ce565b50505050565b60c082016000820151614b8e60008501826145b0565b506020820151614ba160208501826145b0565b506040820151614bb46040850182614bf3565b506060820151614bc76060850182614bf3565b506080820151614bda6080850182614bf3565b5060a0820151614bed60a08501826146ce565b50505050565b614bfc8161509e565b82525050565b614c0b8161509e565b82525050565b6000614c1d828461475e565b915081905092915050565b6000614c34828461478f565b915081905092915050565b6000602082019050614c5460008301846145dd565b92915050565b6000604082019050614c6f60008301856145a1565b614c7c6020830184614c02565b9392505050565b60006020820190508181036000830152614c9d818461464a565b905092915050565b6000602082019050614cba60008301846146bf565b92915050565b6000602082019050614cd560008301846146dd565b92915050565b60006060820190508181036000830152614cf58186614725565b9050614d0460208301856145bf565b614d1160408301846145bf565b949350505050565b60006020820190508181036000830152614d328161480e565b9050919050565b60006020820190508181036000830152614d5281614874565b9050919050565b60006020820190508181036000830152614d72816148b4565b9050919050565b60006020820190508181036000830152614d928161491a565b9050919050565b60006020820190508181036000830152614db28161495a565b9050919050565b60006020820190508181036000830152614dd28161499a565b9050919050565b60006020820190508181036000830152614df281614a00565b9050919050565b60006020820190508181036000830152614e1281614a40565b9050919050565b60006020820190508181036000830152614e3281614a80565b9050919050565b600060c082019050614e4e6000830184614b78565b92915050565b6000602082019050614e696000830184614c02565b92915050565b6000608082019050614e846000830187614c02565b8181036020830152614e9681866145ec565b9050614ea560408301856145dd565b614eb26060830184614c02565b95945050505050565b6000604051905081810181811067ffffffffffffffff82111715614ee257614ee161525e565b5b8060405250919050565b600067ffffffffffffffff821115614f0757614f0661525e565b5b602082029050602081019050919050565b600067ffffffffffffffff821115614f3357614f3261525e565b5b601f19601f8301169050602081019050919050565b6000819050602082019050919050565b6000819050602082019050919050565b60008190508160005260206000209050919050565b600081519050919050565b600081519050919050565b600081519050919050565b6000602082019050919050565b6000602082019050919050565b600082825260208201905092915050565b600082825260208201905092915050565b600082825260208201905092915050565b600082825260208201905092915050565b600081905092915050565b60006150128261509e565b915061501d8361509e565b9250828210156150305761502f6151d1565b5b828203905092915050565b60006150468261507e565b9050919050565b60006150588261507e565b9050919050565b60008115159050919050565b60008190506150798261529e565b919050565b600073ffffffffffffffffffffffffffffffffffffffff82169050919050565b6000819050919050565b60006150b3826150f0565b9050919050565b60006150c5826150cc565b9050919050565b60006150d78261507e565b9050919050565b60006150e98261506b565b9050919050565b60006150fb82615102565b9050919050565b600061510d8261507e565b9050919050565b82818337600083830152505050565b60005b83811015615141578082015181840152602081019050615126565b83811115615150576000848401525b50505050565b6000600282049050600182168061516e57607f821691505b602082108114156151825761518161522f565b5b50919050565b60006151938261509e565b91507fffffffffffffffffffffffffffffffffffffffffffffffffffffffffffffffff8214156151c6576151c56151d1565b5b600182019050919050565b7f4e487b7100000000000000000000000000000000000000000000000000000000600052601160045260246000fd5b7f4e487b7100000000000000000000000000000000000000000000000000000000600052602160045260246000fd5b7f4e487b7100000000000000000000000000000000000000000000000000000000600052602260045260246000fd5b7f4e487b7100000000000000000000000000000000000000000000000000000000600052604160045260246000fd5b6000601f19601f8301169050919050565b600581106152af576152ae615200565b5b50565b6152bb8161503b565b81146152c657600080fd5b50565b6152d28161504d565b81146152dd57600080fd5b50565b6152e98161505f565b81146152f457600080fd5b50565b6153008161509e565b811461530b57600080fd5b5056fea26469706673582212203f87dedb83201c02345f2601e141fa0e71875fc444ab6de41263c861e16c82b364736f6c63430008000033",
  "linkReferences": {},
  "deployedLinkReferences": {}
}