{
  "_format": "hh-sol-artifact-1",
  "contractName": "OrderManager",
  "sourceName": "contracts/OrderManager.sol",
  "abi": [
    {
      "inputs": [],
      "stateMutability": "nonpayable",
      "type": "constructor"
    },
    {
      "anonymous": false,
      "inputs": [
        {
          "indexed": false,
          "internalType": "string",
          "name": "id",
          "type": "string"
        },
        {
          "indexed": false,
          "internalType": "address payable",
          "name": "sellerAddress",
          "type": "address"
        },
        {
          "indexed": false,
          "internalType": "address payable",
          "name": "ownerAddress",
          "type": "address"
        },
        {
          "indexed": true,
          "internalType": "uint256",
          "name": "amount",
          "type": "uint256"
        },
        {
          "indexed": true,
          "internalType": "uint256",
          "name": "timestamp",
          "type": "uint256"
        },
        {
          "indexed": true,
          "internalType": "enum OrderManager.OrderState",
          "name": "state",
          "type": "uint8"
        }
      ],
      "name": "ItemReceived",
      "type": "event"
    },
    {
      "anonymous": false,
      "inputs": [
        {
          "indexed": false,
          "internalType": "string",
          "name": "id",
          "type": "string"
        },
        {
          "indexed": false,
          "internalType": "address payable",
          "name": "sellerAddress",
          "type": "address"
        },
        {
          "indexed": false,
          "internalType": "address payable",
          "name": "ownerAddress",
          "type": "address"
        },
        {
          "indexed": true,
          "internalType": "uint256",
          "name": "amount",
          "type": "uint256"
        },
        {
          "indexed": true,
          "internalType": "uint256",
          "name": "timestamp",
          "type": "uint256"
        },
        {
          "indexed": true,
          "internalType": "enum OrderManager.OrderState",
          "name": "state",
          "type": "uint8"
        }
      ],
      "name": "OrderConfirmed",
      "type": "event"
    },
    {
      "anonymous": false,
      "inputs": [
        {
          "indexed": false,
          "internalType": "string",
          "name": "id",
          "type": "string"
        },
        {
          "indexed": false,
          "internalType": "address payable",
          "name": "sellerAddress",
          "type": "address"
        },
        {
          "indexed": false,
          "internalType": "address payable",
          "name": "ownerAddress",
          "type": "address"
        },
        {
          "indexed": true,
          "internalType": "uint256",
          "name": "amount",
          "type": "uint256"
        },
        {
          "indexed": true,
          "internalType": "uint256",
          "name": "timestamp",
          "type": "uint256"
        },
        {
          "indexed": true,
          "internalType": "enum OrderManager.OrderState",
          "name": "state",
          "type": "uint8"
        }
      ],
      "name": "OrderCreated",
      "type": "event"
    },
    {
      "anonymous": false,
      "inputs": [
        {
          "indexed": false,
          "internalType": "string",
          "name": "id",
          "type": "string"
        },
        {
          "indexed": false,
          "internalType": "address payable",
          "name": "sellerAddress",
          "type": "address"
        },
        {
          "indexed": false,
          "internalType": "address payable",
          "name": "ownerAddress",
          "type": "address"
        },
        {
          "indexed": true,
          "internalType": "uint256",
          "name": "amount",
          "type": "uint256"
        },
        {
          "indexed": true,
          "internalType": "uint256",
          "name": "timestamp",
          "type": "uint256"
        },
        {
          "indexed": true,
          "internalType": "enum OrderManager.OrderState",
          "name": "state",
          "type": "uint8"
        }
      ],
      "name": "OwnerRefunded",
      "type": "event"
    },
    {
      "inputs": [],
      "name": "STABLECOIN",
      "outputs": [
        {
          "internalType": "address",
          "name": "",
          "type": "address"
        }
      ],
      "stateMutability": "view",
      "type": "function"
    },
    {
      "inputs": [],
      "name": "WFTM",
      "outputs": [
        {
          "internalType": "address",
          "name": "",
          "type": "address"
        }
      ],
      "stateMutability": "view",
      "type": "function"
    },
    {
      "inputs": [
        {
          "internalType": "string",
          "name": "id",
          "type": "string"
        },
        {
          "internalType": "uint256",
          "name": "_unlockCode",
          "type": "uint256"
        }
      ],
      "name": "confirmReceived",
      "outputs": [],
      "stateMutability": "nonpayable",
      "type": "function"
    },
    {
      "inputs": [],
      "name": "contractBalance",
      "outputs": [
        {
          "internalType": "uint256",
          "name": "",
          "type": "uint256"
        }
      ],
      "stateMutability": "view",
      "type": "function"
    },
    {
      "inputs": [
        {
          "internalType": "string",
          "name": "id",
          "type": "string"
        }
      ],
      "name": "getAmountToPay",
      "outputs": [
        {
          "internalType": "uint256",
          "name": "",
          "type": "uint256"
        }
      ],
      "stateMutability": "view",
      "type": "function"
    },
    {
      "inputs": [
        {
          "internalType": "string",
          "name": "id",
          "type": "string"
        }
      ],
      "name": "getOrderById",
      "outputs": [
        {
          "components": [
            {
              "internalType": "address payable",
              "name": "sellerAddress",
              "type": "address"
            },
            {
              "internalType": "address payable",
              "name": "ownerAddress",
              "type": "address"
            },
            {
              "internalType": "uint256",
              "name": "amount",
              "type": "uint256"
            },
            {
              "internalType": "uint256",
              "name": "unlockCode",
              "type": "uint256"
            },
            {
              "internalType": "uint256",
              "name": "timestamp",
              "type": "uint256"
            },
            {
              "internalType": "enum OrderManager.OrderState",
              "name": "state",
              "type": "uint8"
            }
          ],
          "internalType": "struct OrderManager.Order",
          "name": "",
          "type": "tuple"
        }
      ],
      "stateMutability": "view",
      "type": "function"
    },
    {
      "inputs": [],
      "name": "getOrderCount",
      "outputs": [
        {
          "internalType": "uint256",
          "name": "",
          "type": "uint256"
        }
      ],
      "stateMutability": "view",
      "type": "function"
    },
    {
      "inputs": [
        {
          "internalType": "string",
          "name": "id",
          "type": "string"
        }
      ],
      "name": "getOrderState",
      "outputs": [
        {
          "internalType": "enum OrderManager.OrderState",
          "name": "",
          "type": "uint8"
        }
      ],
      "stateMutability": "view",
      "type": "function"
    },
    {
      "inputs": [
        {
          "internalType": "address",
          "name": "_buyerAddress",
          "type": "address"
        }
      ],
      "name": "getOrdersByBuyer",
      "outputs": [
        {
          "components": [
            {
              "internalType": "string",
              "name": "id",
              "type": "string"
            },
            {
              "components": [
                {
                  "internalType": "address payable",
                  "name": "sellerAddress",
                  "type": "address"
                },
                {
                  "internalType": "address payable",
                  "name": "ownerAddress",
                  "type": "address"
                },
                {
                  "internalType": "uint256",
                  "name": "amount",
                  "type": "uint256"
                },
                {
                  "internalType": "uint256",
                  "name": "unlockCode",
                  "type": "uint256"
                },
                {
                  "internalType": "uint256",
                  "name": "timestamp",
                  "type": "uint256"
                },
                {
                  "internalType": "enum OrderManager.OrderState",
                  "name": "state",
                  "type": "uint8"
                }
              ],
              "internalType": "struct OrderManager.Order",
              "name": "order",
              "type": "tuple"
            }
          ],
          "internalType": "struct OrderManager.OrderTuple[]",
          "name": "",
          "type": "tuple[]"
        }
      ],
      "stateMutability": "view",
      "type": "function"
    },
    {
      "inputs": [
        {
          "internalType": "address",
          "name": "_sellerAddress",
          "type": "address"
        }
      ],
      "name": "getOrdersBySeller",
      "outputs": [
        {
          "components": [
            {
              "internalType": "string",
              "name": "id",
              "type": "string"
            },
            {
              "components": [
                {
                  "internalType": "address payable",
                  "name": "sellerAddress",
                  "type": "address"
                },
                {
                  "internalType": "address payable",
                  "name": "ownerAddress",
                  "type": "address"
                },
                {
                  "internalType": "uint256",
                  "name": "amount",
                  "type": "uint256"
                },
                {
                  "internalType": "uint256",
                  "name": "unlockCode",
                  "type": "uint256"
                },
                {
                  "internalType": "uint256",
                  "name": "timestamp",
                  "type": "uint256"
                },
                {
                  "internalType": "enum OrderManager.OrderState",
                  "name": "state",
                  "type": "uint8"
                }
              ],
              "internalType": "struct OrderManager.Order",
              "name": "order",
              "type": "tuple"
            }
          ],
          "internalType": "struct OrderManager.OrderTuple[]",
          "name": "",
          "type": "tuple[]"
        }
      ],
      "stateMutability": "view",
      "type": "function"
    },
    {
      "inputs": [
        {
          "internalType": "string",
          "name": "id",
          "type": "string"
        }
      ],
      "name": "getOwnerAddress",
      "outputs": [
        {
          "internalType": "address",
          "name": "",
          "type": "address"
        }
      ],
      "stateMutability": "view",
      "type": "function"
    },
    {
      "inputs": [
        {
          "internalType": "string",
          "name": "id",
          "type": "string"
        }
      ],
      "name": "getSellerAddress",
      "outputs": [
        {
          "internalType": "address",
          "name": "",
          "type": "address"
        }
      ],
      "stateMutability": "view",
      "type": "function"
    },
    {
      "inputs": [
        {
          "internalType": "string",
          "name": "id",
          "type": "string"
        }
      ],
      "name": "getUnlockCode",
      "outputs": [
        {
          "internalType": "uint256",
          "name": "",
          "type": "uint256"
        }
      ],
      "stateMutability": "view",
      "type": "function"
    },
    {
      "inputs": [
        {
          "internalType": "address payable",
          "name": "_seller",
          "type": "address"
        },
        {
          "internalType": "uint256",
          "name": "_amountIn",
          "type": "uint256"
        },
        {
          "internalType": "uint256[]",
          "name": "_amountOut",
          "type": "uint256[]"
        },
        {
          "internalType": "string",
          "name": "_orderId",
          "type": "string"
        }
      ],
      "name": "newOrder",
      "outputs": [],
      "stateMutability": "payable",
      "type": "function"
    },
    {
      "inputs": [],
      "name": "owner",
      "outputs": [
        {
          "internalType": "address",
          "name": "",
          "type": "address"
        }
      ],
      "stateMutability": "view",
      "type": "function"
    },
    {
      "inputs": [
        {
          "internalType": "string",
          "name": "id",
          "type": "string"
        }
      ],
      "name": "refund",
      "outputs": [],
      "stateMutability": "nonpayable",
      "type": "function"
    },
    {
      "inputs": [],
      "name": "uniswapV2Router",
      "outputs": [
        {
          "internalType": "contract IUniswapV2Router02",
          "name": "",
          "type": "address"
        }
      ],
      "stateMutability": "view",
      "type": "function"
    }
  ],
  "bytecode": "0x60e06040527fa6ad18c2ac47803e193f75c3677b14bf19b948830000000000000000000000006080527ff1277d1ed8ad466beddf92ef448a13266195662100000000000000000000000060a052600080546001600160a01b03191673a70a572aa5489a5cdd0daa3bf0cf440a92f5040217815560035534801561008157600080fd5b503360601b60c05260805160601c60a05160601c60c05160601c61218b6100cf60003960006112600152600081816103a6015261095601526000818161032201526109f9015261218b6000f3fe6080604052600436106100fe5760003560e01c80638b7afe2e1161009557806393a397761161006457806393a3977614610271578063bc6fea7114610286578063be3ac64b146102a6578063c5df16a0146102d3578063fe5f2e8814610300576100fe565b80638b7afe2e146102125780638d0a5fbb146102275780638da5cb5b1461023c5780638fbf137014610251576100fe565b80633a875a43116100d15780633a875a43146101905780633dfaf309146101bd57806355b0f927146101d25780637a202cc1146101f2576100fe565b80631694505e146101035780631cf708d41461012e5780631d170e7c1461015b57806321dbe8761461017b575b600080fd5b34801561010f57600080fd5b50610118610320565b6040516101259190611ca8565b60405180910390f35b34801561013a57600080fd5b5061014e610149366004611ad6565b610344565b6040516101259190611fa8565b34801561016757600080fd5b50610118610176366004611ad6565b61036f565b34801561018757600080fd5b506101186103a4565b34801561019c57600080fd5b506101b06101ab366004611929565b6103c8565b6040516101259190611cd5565b6101d06101cb36600461194c565b61069b565b005b3480156101de57600080fd5b506101d06101ed366004611b11565b610bd9565b3480156101fe57600080fd5b506101b061020d366004611929565b610f88565b34801561021e57600080fd5b5061014e611254565b34801561023357600080fd5b5061014e611258565b34801561024857600080fd5b5061011861125e565b34801561025d57600080fd5b5061011861026c366004611ad6565b611282565b34801561027d57600080fd5b506101186112b4565b34801561029257600080fd5b5061014e6102a1366004611ad6565b6112c3565b3480156102b257600080fd5b506102c66102c1366004611ad6565b6112ee565b6040516101259190611d55565b3480156102df57600080fd5b506102f36102ee366004611ad6565b61131d565b6040516101259190611f9a565b34801561030c57600080fd5b506101d061031b366004611ad6565b6113df565b7f000000000000000000000000000000000000000000000000000000000000000081565b60006004826040516103569190611bf1565b9081526020016040518091039020600301549050919050565b60006004826040516103819190611bf1565b908152604051908190036020019020600101546001600160a01b03169050919050565b7f000000000000000000000000000000000000000000000000000000000000000081565b6001600160a01b0381166000908152600160205260408120546060919067ffffffffffffffff81111561040b57634e487b7160e01b600052604160045260246000fd5b60405190808252806020026020018201604052801561044457816020015b6104316117d1565b8152602001906001900390816104295790505b50905060005b6001600160a01b03841660009081526001602052604090205481101561069457604051806040016040528060016000876001600160a01b03166001600160a01b0316815260200190815260200160002083815481106104b957634e487b7160e01b600052603260045260246000fd5b9060005260206000200180546104ce906120bb565b80601f01602080910402602001604051908101604052809291908181526020018280546104fa906120bb565b80156105475780601f1061051c57610100808354040283529160200191610547565b820191906000526020600020905b81548152906001019060200180831161052a57829003601f168201915b50505050508152602001600460016000886001600160a01b03166001600160a01b03168152602001908152602001600020848154811061059757634e487b7160e01b600052603260045260246000fd5b906000526020600020016040516105ae9190611c0d565b90815260408051918290036020908101832060c08401835280546001600160a01b03908116855260018201541691840191909152600281015491830191909152600381015460608301526004808201546080840152600582015460a084019160ff9091169081111561063057634e487b7160e01b600052602160045260246000fd5b600481111561064f57634e487b7160e01b600052602160045260246000fd5b8152505081525082828151811061067657634e487b7160e01b600052603260045260246000fd5b6020026020010181905250808061068c906120f6565b91505061044a565b5092915050565b83336001600160a01b0382168114156106cf5760405162461bcd60e51b81526004016106c690611d9c565b60405180910390fd5b338581318111156106f25760405162461bcd60e51b81526004016106c690611f0d565b846004816040516107039190611bf1565b9081526040519081900360200190206005015460ff16600481111561073857634e487b7160e01b600052602160045260246000fd5b156107555760405162461bcd60e51b81526004016106c690611ddf565b873410156107755760405162461bcd60e51b81526004016106c690611f63565b60038054906000610785836120f6565b91905055506040518060c001604052808a6001600160a01b03168152602001336001600160a01b03168152602001886000815181106107d457634e487b7160e01b600052603260045260246000fd5b602002602001015181526020014381526020014281526020016002600481111561080e57634e487b7160e01b600052602160045260246000fd5b8152506004876040516108219190611bf1565b9081526040805160209281900383019020835181546001600160a01b03199081166001600160a01b039283161783559385015160018084018054909616919092161790935590830151600282015560608301516003820155608083015160048083019190915560a084015160058301805493949193909260ff19909116919084908111156108bf57634e487b7160e01b600052602160045260246000fd5b02179055505033600090815260016020818152604083208054928301815583529182902089516108f594509101918901906117f0565b506001600160a01b0389166000908152600260209081526040822080546001810182559083529181902088516109329391909101918901906117f0565b506040805160028082526060820183526000926020830190803683370190505090507f00000000000000000000000000000000000000000000000000000000000000008160008151811061099657634e487b7160e01b600052603260045260246000fd5b6001600160a01b0392831660209182029290920101526000548251911690829060019081106109d557634e487b7160e01b600052603260045260246000fd5b60200260200101906001600160a01b031690816001600160a01b03168152505060007f00000000000000000000000000000000000000000000000000000000000000006001600160a01b031663fb3bdb41348b600081518110610a4857634e487b7160e01b600052603260045260246000fd5b60200260200101518530426040518663ffffffff1660e01b8152600401610a729493929190611fb1565b6000604051808303818588803b158015610a8b57600080fd5b505af1158015610a9f573d6000803e3d6000fd5b50505050506040513d6000823e601f3d908101601f19168201604052610ac89190810190611a26565b90503481600081518110610aec57634e487b7160e01b600052603260045260246000fd5b60200260200101511015610b6557336001600160a01b03166108fc82600081518110610b2857634e487b7160e01b600052603260045260246000fd5b602002602001015134610b3b9190612074565b6040518115909202916000818181858888f19350505050158015610b63573d6000803e3d6000fd5b505b6002428a600081518110610b8957634e487b7160e01b600052603260045260246000fd5b60200260200101517faf1d38d12bff33324cb899bc12ec520f0e2affc2efaafb256b3ef57ce9b703e08b8f33604051610bc493929190611d69565b60405180910390a45050505050505050505050565b81336001600160a01b0316600482604051610bf49190611bf1565b908152604051908190036020019020600101546001600160a01b031614610c2d5760405162461bcd60e51b81526004016106c690611ec8565b826002600482604051610c409190611bf1565b9081526040519081900360200190206005015460ff166004811115610c7557634e487b7160e01b600052602160045260246000fd5b816004811115610c9557634e487b7160e01b600052602160045260246000fd5b14610cb25760405162461bcd60e51b81526004016106c690611e93565b6000600486604051610cc49190611bf1565b90815260408051918290036020908101832060c08401835280546001600160a01b03908116855260018201541691840191909152600281015491830191909152600381015460608301526004808201546080840152600582015460a084019160ff90911690811115610d4657634e487b7160e01b600052602160045260246000fd5b6004811115610d6557634e487b7160e01b600052602160045260246000fd5b81525050905084816060015114610d8e5760405162461bcd60e51b81526004016106c690611e66565b6000548151604080840151905163a9059cbb60e01b81526001600160a01b039093169263a9059cbb92610dc5929091600401611cbc565b602060405180830381600087803b158015610ddf57600080fd5b505af1158015610df3573d6000803e3d6000fd5b505050506040513d601f19601f82011682018060405250810190610e179190611ab6565b610e335760405162461bcd60e51b81526004016106c690611f39565b600360a08201526040518190600490610e4d908990611bf1565b9081526040805160209281900383019020835181546001600160a01b03199081166001600160a01b039283161783559385015160018084018054909616919092161790935590830151600282015560608301516003820155608083015160048083019190915560a084015160058301805493949193909260ff1990911691908490811115610eeb57634e487b7160e01b600052602160045260246000fd5b021790555060039150610efb9050565b42600488604051610f0c9190611bf1565b9081526020016040518091039020600201547f92920d559afffc5707482f79beeb2a17d437af72aa691ccd51ccc7c124a419528960048b604051610f509190611bf1565b90815260405190819003602001812054610f7892916001600160a01b03909116903390611d69565b60405180910390a4505050505050565b6001600160a01b0381166000908152600260205260408120546060919067ffffffffffffffff811115610fcb57634e487b7160e01b600052604160045260246000fd5b60405190808252806020026020018201604052801561100457816020015b610ff16117d1565b815260200190600190039081610fe95790505b50905060005b6001600160a01b03841660009081526002602052604090205481101561069457604051806040016040528060026000876001600160a01b03166001600160a01b03168152602001908152602001600020838154811061107957634e487b7160e01b600052603260045260246000fd5b90600052602060002001805461108e906120bb565b80601f01602080910402602001604051908101604052809291908181526020018280546110ba906120bb565b80156111075780601f106110dc57610100808354040283529160200191611107565b820191906000526020600020905b8154815290600101906020018083116110ea57829003601f168201915b50505050508152602001600460026000886001600160a01b03166001600160a01b03168152602001908152602001600020848154811061115757634e487b7160e01b600052603260045260246000fd5b9060005260206000200160405161116e9190611c0d565b90815260408051918290036020908101832060c08401835280546001600160a01b03908116855260018201541691840191909152600281015491830191909152600381015460608301526004808201546080840152600582015460a084019160ff909116908111156111f057634e487b7160e01b600052602160045260246000fd5b600481111561120f57634e487b7160e01b600052602160045260246000fd5b8152505081525082828151811061123657634e487b7160e01b600052603260045260246000fd5b6020026020010181905250808061124c906120f6565b91505061100a565b4790565b60035490565b7f000000000000000000000000000000000000000000000000000000000000000081565b60006004826040516112949190611bf1565b908152604051908190036020019020546001600160a01b03169050919050565b6000546001600160a01b031681565b60006004826040516112d59190611bf1565b9081526020016040518091039020600201549050919050565b60006004826040516113009190611bf1565b9081526040519081900360200190206005015460ff169050919050565b611325611874565b6004826040516113359190611bf1565b90815260408051918290036020908101832060c08401835280546001600160a01b03908116855260018201541691840191909152600281015491830191909152600381015460608301526004808201546080840152600582015460a084019160ff909116908111156113b757634e487b7160e01b600052602160045260246000fd5b60048111156113d657634e487b7160e01b600052602160045260246000fd5b90525092915050565b80336001600160a01b03166004826040516113fa9190611bf1565b908152604051908190036020019020546001600160a01b031614806114525750336001600160a01b03166004826040516114349190611bf1565b908152604051908190036020019020600101546001600160a01b0316145b61146e5760405162461bcd60e51b81526004016106c690611e16565b8160026004826040516114819190611bf1565b9081526040519081900360200190206005015460ff1660048111156114b657634e487b7160e01b600052602160045260246000fd5b8160048111156114d657634e487b7160e01b600052602160045260246000fd5b146114f35760405162461bcd60e51b81526004016106c690611e93565b60006004856040516115059190611bf1565b90815260408051918290036020908101832060c08401835280546001600160a01b03908116855260018201541691840191909152600281015491830191909152600381015460608301526004808201546080840152600582015460a084019160ff9091169081111561158757634e487b7160e01b600052602160045260246000fd5b60048111156115a657634e487b7160e01b600052602160045260246000fd5b9052506000546020820151604080840151905163a9059cbb60e01b81529394506001600160a01b039092169263a9059cbb926115e59291600401611cbc565b602060405180830381600087803b1580156115ff57600080fd5b505af1158015611613573d6000803e3d6000fd5b505050506040513d601f19601f820116820180604052508101906116379190611ab6565b6116535760405162461bcd60e51b81526004016106c690611f39565b600460a0820181905260405182919061166d908890611bf1565b9081526040805160209281900383019020835181546001600160a01b03199081166001600160a01b039283161783559385015160018084018054909616919092161790935590830151600282015560608301516003820155608083015160048083019190915560a084015160058301805493949193909260ff199091169190849081111561170b57634e487b7160e01b600052602160045260246000fd5b02179055506004915061171b9050565b4260048760405161172c9190611bf1565b9081526020016040518091039020600201547fdeb1466d19b7c591c503778ea470cdd6e7f4880cee0e2dedcb46fe86025c9e918860048a6040516117709190611bf1565b908152604051908190036020018120546001600160a01b031690600490611798908d90611bf1565b908152604051908190036020018120600101546117c29392916001600160a01b0390911690611d69565b60405180910390a45050505050565b6040518060400160405280606081526020016117eb611874565b905290565b8280546117fc906120bb565b90600052602060002090601f01602090048101928261181e5760008555611864565b82601f1061183757805160ff1916838001178555611864565b82800160010185558215611864579182015b82811115611864578251825591602001919060010190611849565b506118709291506118a9565b5090565b6040805160c08101825260008082526020820181905291810182905260608101829052608081018290529060a08201906117eb565b5b8082111561187057600081556001016118aa565b600082601f8301126118ce578081fd5b813567ffffffffffffffff8111156118e8576118e8612127565b6118fb601f8201601f191660200161201a565b81815284602083860101111561190f578283fd5b816020850160208301379081016020019190915292915050565b60006020828403121561193a578081fd5b81356119458161213d565b9392505050565b60008060008060808587031215611961578283fd5b843561196c8161213d565b93506020858101359350604086013567ffffffffffffffff80821115611990578485fd5b818801915088601f8301126119a3578485fd5b81356119b66119b182612044565b61201a565b81815284810190848601868402860187018d10156119d2578889fd5b8895505b838610156119f45780358352600195909501949186019186016119d6565b50965050506060880135925080831115611a0c578384fd5b5050611a1a878288016118be565b91505092959194509250565b60006020808385031215611a38578182fd5b825167ffffffffffffffff811115611a4e578283fd5b8301601f81018513611a5e578283fd5b8051611a6c6119b182612044565b8181528381019083850185840285018601891015611a88578687fd5b8694505b83851015611aaa578051835260019490940193918501918501611a8c565b50979650505050505050565b600060208284031215611ac7578081fd5b81518015158114611945578182fd5b600060208284031215611ae7578081fd5b813567ffffffffffffffff811115611afd578182fd5b611b09848285016118be565b949350505050565b60008060408385031215611b23578182fd5b823567ffffffffffffffff811115611b39578283fd5b611b45858286016118be565b95602094909401359450505050565b60058110611b7257634e487b7160e01b600052602160045260246000fd5b9052565b60008151808452611b8e81602086016020860161208b565b601f01601f19169290920160200192915050565b60018060a01b038082511683528060208301511660208401525060408101516040830152606081015160608301526080810151608083015260a0810151611bec60a0840182611b54565b505050565b60008251611c0381846020870161208b565b9190910192915050565b8154600090819060028104600180831680611c2957607f831692505b6020808410821415611c4957634e487b7160e01b87526022600452602487fd5b818015611c5d5760018114611c6e57611c9a565b60ff19861689528489019650611c9a565b611c778a612068565b885b86811015611c925781548b820152908501908301611c79565b505084890196505b509498975050505050505050565b6001600160a01b0391909116815260200190565b6001600160a01b03929092168252602082015260400190565b6000602080830181845280855180835260408601915060408482028701019250838701855b82811015611d4857603f19888603018452815160e08151818852611d2082890182611b76565b915050878201519150611d3588880183611ba2565b9550509285019290850190600101611cfa565b5092979650505050505050565b60208101611d638284611b54565b92915050565b600060608252611d7c6060830186611b76565b6001600160a01b0394851660208401529290931660409091015292915050565b60208082526023908201527f7468652073656c6c657220616e642062757965722063616e27742062652065716040820152621d585b60ea1b606082015260800190565b60208082526017908201527f6f7264657220696420616c726561647920657869737473000000000000000000604082015260600190565b60208082526030908201527f796f75206d75737420626520746865206f776e6572206f72207468652073656c60408201526f3632b91037b3103a34329037b93232b960811b606082015260800190565b602080825260139082015272496e76616c696420756e6c6f636b20636f646560681b604082015260600190565b6020808252818101527f746865206f72646572206861736e2774207468652076616c6964207374617465604082015260600190565b60208082526025908201527f6f6e6c7920746865206f776e65722063616e2063616c6c20746869732066756e60408201526431ba34b7b760d91b606082015260800190565b602080825260129082015271696e73756666696369656e742066756e647360701b604082015260600190565b60208082526010908201526f2a3930b739b332b9103330b4b632b21760811b604082015260600190565b60208082526017908201527f496e73756666696369656e7420636f696e2076616c7565000000000000000000604082015260600190565b60c08101611d638284611ba2565b90815260200190565b600060808201868352602060808185015281875180845260a0860191508289019350845b81811015611ffa5784516001600160a01b031683529383019391830191600101611fd5565b50506001600160a01b039690961660408501525050506060015292915050565b60405181810167ffffffffffffffff8111828210171561203c5761203c612127565b604052919050565b600067ffffffffffffffff82111561205e5761205e612127565b5060209081020190565b60009081526020902090565b60008282101561208657612086612111565b500390565b60005b838110156120a657818101518382015260200161208e565b838111156120b5576000848401525b50505050565b6002810460018216806120cf57607f821691505b602082108114156120f057634e487b7160e01b600052602260045260246000fd5b50919050565b600060001982141561210a5761210a612111565b5060010190565b634e487b7160e01b600052601160045260246000fd5b634e487b7160e01b600052604160045260246000fd5b6001600160a01b038116811461215257600080fd5b5056fea264697066735822122004ac02b4c219ecb2933da05ed9b94088636edb5a48209178887e40d2ab8beeeb64736f6c63430008000033",
  "linkReferences": {},
  "deployedLinkReferences": {}
}