{
  "contractName": "SinglePayment",
  "abi": [
    {
      "inputs": [],
      "name": "InvalidState",
      "type": "error"
    },
    {
      "inputs": [],
      "name": "OnlyOwner",
      "type": "error"
    },
    {
      "inputs": [],
      "name": "OnlySeller",
      "type": "error"
    },
    {
      "anonymous": false,
      "inputs": [],
      "name": "Aborted",
      "type": "event"
    },
    {
      "anonymous": false,
      "inputs": [
        {
          "indexed": false,
          "internalType": "uint256",
          "name": "id",
          "type": "uint256"
        }
      ],
      "name": "ItemReceived",
      "type": "event"
    },
    {
      "anonymous": false,
      "inputs": [
        {
          "indexed": false,
          "internalType": "uint256",
          "name": "id",
          "type": "uint256"
        },
        {
          "indexed": false,
          "internalType": "address payable",
          "name": "sellerAddress",
          "type": "address"
        },
        {
          "indexed": false,
          "internalType": "address payable",
          "name": "ownerAddress",
          "type": "address"
        },
        {
          "indexed": false,
          "internalType": "uint256",
          "name": "amount",
          "type": "uint256"
        },
        {
          "indexed": false,
          "internalType": "uint256",
          "name": "unlockCode",
          "type": "uint256"
        },
        {
          "indexed": false,
          "internalType": "enum SinglePayment.OrderState",
          "name": "state",
          "type": "uint8"
        }
      ],
      "name": "OrderConfirmed",
      "type": "event"
    },
    {
      "anonymous": false,
      "inputs": [
        {
          "indexed": false,
          "internalType": "uint256",
          "name": "id",
          "type": "uint256"
        }
      ],
      "name": "OrderCreated",
      "type": "event"
    },
    {
      "anonymous": false,
      "inputs": [
        {
          "indexed": false,
          "internalType": "uint256",
          "name": "id",
          "type": "uint256"
        }
      ],
      "name": "OwnerRefunded",
      "type": "event"
    },
    {
      "inputs": [
        {
          "internalType": "address payable",
          "name": "_seller",
          "type": "address"
        },
        {
          "internalType": "uint256",
          "name": "_amount",
          "type": "uint256"
        }
      ],
      "name": "newOrder",
      "outputs": [],
      "stateMutability": "payable",
      "type": "function"
    },
    {
      "inputs": [
        {
          "internalType": "uint256",
          "name": "id",
          "type": "uint256"
        },
        {
          "internalType": "uint256",
          "name": "_unlockCode",
          "type": "uint256"
        }
      ],
      "name": "confirmReceived",
      "outputs": [],
      "stateMutability": "nonpayable",
      "type": "function"
    },
    {
      "inputs": [
        {
          "internalType": "uint256",
          "name": "id",
          "type": "uint256"
        }
      ],
      "name": "refundOwner",
      "outputs": [],
      "stateMutability": "nonpayable",
      "type": "function"
    },
    {
      "inputs": [],
      "name": "getOrderCount",
      "outputs": [
        {
          "internalType": "uint256",
          "name": "",
          "type": "uint256"
        }
      ],
      "stateMutability": "view",
      "type": "function"
    },
    {
      "inputs": [],
      "name": "contractBalance",
      "outputs": [
        {
          "internalType": "uint256",
          "name": "",
          "type": "uint256"
        }
      ],
      "stateMutability": "view",
      "type": "function"
    },
    {
      "inputs": [
        {
          "internalType": "uint256",
          "name": "id",
          "type": "uint256"
        }
      ],
      "name": "getOwnerAddress",
      "outputs": [
        {
          "internalType": "address",
          "name": "",
          "type": "address"
        }
      ],
      "stateMutability": "view",
      "type": "function"
    },
    {
      "inputs": [
        {
          "internalType": "uint256",
          "name": "id",
          "type": "uint256"
        }
      ],
      "name": "getSellerAddress",
      "outputs": [
        {
          "internalType": "address",
          "name": "",
          "type": "address"
        }
      ],
      "stateMutability": "view",
      "type": "function"
    },
    {
      "inputs": [
        {
          "internalType": "uint256",
          "name": "id",
          "type": "uint256"
        }
      ],
      "name": "getAmountToPay",
      "outputs": [
        {
          "internalType": "uint256",
          "name": "",
          "type": "uint256"
        }
      ],
      "stateMutability": "view",
      "type": "function"
    },
    {
      "inputs": [
        {
          "internalType": "uint256",
          "name": "id",
          "type": "uint256"
        }
      ],
      "name": "getOrderState",
      "outputs": [
        {
          "internalType": "enum SinglePayment.OrderState",
          "name": "",
          "type": "uint8"
        }
      ],
      "stateMutability": "view",
      "type": "function"
    },
    {
      "inputs": [
        {
          "internalType": "uint256",
          "name": "id",
          "type": "uint256"
        }
      ],
      "name": "getUnlockCode",
      "outputs": [
        {
          "internalType": "uint256",
          "name": "",
          "type": "uint256"
        }
      ],
      "stateMutability": "view",
      "type": "function"
    },
    {
      "inputs": [
        {
          "internalType": "uint256",
          "name": "id",
          "type": "uint256"
        }
      ],
      "name": "getOrderById",
      "outputs": [
        {
          "components": [
            {
              "internalType": "address payable",
              "name": "sellerAddress",
              "type": "address"
            },
            {
              "internalType": "address payable",
              "name": "ownerAddress",
              "type": "address"
            },
            {
              "internalType": "uint256",
              "name": "amount",
              "type": "uint256"
            },
            {
              "internalType": "uint256",
              "name": "unlockCode",
              "type": "uint256"
            },
            {
              "internalType": "enum SinglePayment.OrderState",
              "name": "state",
              "type": "uint8"
            }
          ],
          "internalType": "struct SinglePayment.Order",
          "name": "",
          "type": "tuple"
        }
      ],
      "stateMutability": "view",
      "type": "function"
    }
  ],
  "bytecode": "0x6080604052600060025534801561001557600080fd5b506117fc806100256000396000f3fe60806040526004361061009c5760003560e01c80638d0a5fbb116100645780638d0a5fbb146101ac578063a675364d146101d7578063dd55095814610214578063ebf7c3de14610251578063f000fd0c1461026d578063f47ab680146102965761009c565b8063263ab5a0146100a157806342b50a7a146100de5780635a5143071461011b578063810bd6af146101445780638b7afe2e14610181575b600080fd5b3480156100ad57600080fd5b506100c860048036038101906100c391906110da565b6102d3565b6040516100d59190611116565b60405180910390f35b3480156100ea57600080fd5b50610105600480360381019061010091906110da565b6102f3565b6040516101129190611260565b60405180910390f35b34801561012757600080fd5b50610142600480360381019061013d919061127b565b61041b565b005b34801561015057600080fd5b5061016b600480360381019061016691906110da565b610857565b60405161017891906112ca565b60405180910390f35b34801561018d57600080fd5b50610196610884565b6040516101a39190611116565b60405180910390f35b3480156101b857600080fd5b506101c161088c565b6040516101ce9190611116565b60405180910390f35b3480156101e357600080fd5b506101fe60048036038101906101f991906110da565b610896565b60405161020b9190611306565b60405180910390f35b34801561022057600080fd5b5061023b600480360381019061023691906110da565b6108d6565b6040516102489190611306565b60405180910390f35b61026b6004803603810190610266919061134d565b610916565b005b34801561027957600080fd5b50610294600480360381019061028f91906110da565b610c1d565b005b3480156102a257600080fd5b506102bd60048036038101906102b891906110da565b611012565b6040516102ca9190611116565b60405180910390f35b600060036000838152602001908152602001600020600301549050919050565b6102fb611032565b600360008381526020019081526020016000206040518060a00160405290816000820160009054906101000a900473ffffffffffffffffffffffffffffffffffffffff1673ffffffffffffffffffffffffffffffffffffffff1673ffffffffffffffffffffffffffffffffffffffff1681526020016001820160009054906101000a900473ffffffffffffffffffffffffffffffffffffffff1673ffffffffffffffffffffffffffffffffffffffff1673ffffffffffffffffffffffffffffffffffffffff16815260200160028201548152602001600382015481526020016004820160009054906101000a900460ff1660038111156103fe576103fd611181565b5b60038111156104105761040f611181565b5b815250509050919050565b816003600082815260200190815260200160002060010160009054906101000a900473ffffffffffffffffffffffffffffffffffffffff1673ffffffffffffffffffffffffffffffffffffffff163373ffffffffffffffffffffffffffffffffffffffff16146104c0576040517f08c379a00000000000000000000000000000000000000000000000000000000081526004016104b790611410565b60405180910390fd5b8260018060038111156104d6576104d5611181565b5b6003600084815260200190815260200160002060040160009054906101000a900460ff16600381111561050c5761050b611181565b5b1461054c576040517f08c379a00000000000000000000000000000000000000000000000000000000081526004016105439061147c565b60405180910390fd5b6000600360008781526020019081526020016000206040518060a00160405290816000820160009054906101000a900473ffffffffffffffffffffffffffffffffffffffff1673ffffffffffffffffffffffffffffffffffffffff1673ffffffffffffffffffffffffffffffffffffffff1681526020016001820160009054906101000a900473ffffffffffffffffffffffffffffffffffffffff1673ffffffffffffffffffffffffffffffffffffffff1673ffffffffffffffffffffffffffffffffffffffff16815260200160028201548152602001600382015481526020016004820160009054906101000a900460ff16600381111561065157610650611181565b5b600381111561066357610662611181565b5b815250509050806060015185146106af576040517f08c379a00000000000000000000000000000000000000000000000000000000081526004016106a6906114e8565b60405180910390fd5b806000015173ffffffffffffffffffffffffffffffffffffffff166108fc82604001519081150290604051600060405180830381858888f193505050501580156106fd573d6000803e3d6000fd5b5060028160800190600381111561071757610716611181565b5b9081600381111561072b5761072a611181565b5b81525050806003600088815260200190815260200160002060008201518160000160006101000a81548173ffffffffffffffffffffffffffffffffffffffff021916908373ffffffffffffffffffffffffffffffffffffffff16021790555060208201518160010160006101000a81548173ffffffffffffffffffffffffffffffffffffffff021916908373ffffffffffffffffffffffffffffffffffffffff160217905550604082015181600201556060820151816003015560808201518160040160006101000a81548160ff021916908360038111156108105761080f611181565b5b02179055509050507f01e74d1f4f418e68629246efc4a29d98199e9c9b9c3653bdbfee74d2ad4ac6a3866040516108479190611116565b60405180910390a1505050505050565b60006003600083815260200190815260200160002060040160009054906101000a900460ff169050919050565b600047905090565b6000600254905090565b60006003600083815260200190815260200160002060000160009054906101000a900473ffffffffffffffffffffffffffffffffffffffff169050919050565b60006003600083815260200190815260200160002060010160009054906101000a900473ffffffffffffffffffffffffffffffffffffffff169050919050565b81338073ffffffffffffffffffffffffffffffffffffffff168273ffffffffffffffffffffffffffffffffffffffff161415610987576040517f08c379a000000000000000000000000000000000000000000000000000000000815260040161097e9061157a565b60405180910390fd5b3383808273ffffffffffffffffffffffffffffffffffffffff163110156109e3576040517f08c379a00000000000000000000000000000000000000000000000000000000081526004016109da906115e6565b60405180910390fd5b84341015610a26576040517f08c379a0000000000000000000000000000000000000000000000000000000008152600401610a1d90611652565b60405180910390fd5b60008511610a69576040517f08c379a0000000000000000000000000000000000000000000000000000000008152600401610a60906116be565b60405180910390fd5b60026000815480929190610a7c9061170d565b91905055506040518060a001604052808773ffffffffffffffffffffffffffffffffffffffff1681526020013373ffffffffffffffffffffffffffffffffffffffff16815260200186815260200143815260200160016003811115610ae457610ae3611181565b5b81525060036000600254815260200190815260200160002060008201518160000160006101000a81548173ffffffffffffffffffffffffffffffffffffffff021916908373ffffffffffffffffffffffffffffffffffffffff16021790555060208201518160010160006101000a81548173ffffffffffffffffffffffffffffffffffffffff021916908373ffffffffffffffffffffffffffffffffffffffff160217905550604082015181600201556060820151816003015560808201518160040160006101000a81548160ff02191690836003811115610bc957610bc8611181565b5b02179055509050507f78c6c9a259dd2b28f232bb3c4900a90a44c8dbea36e17d755c275c205b99f609600254873388436001604051610c0d96959493929190611765565b60405180910390a1505050505050565b806003600082815260200190815260200160002060010160009054906101000a900473ffffffffffffffffffffffffffffffffffffffff1673ffffffffffffffffffffffffffffffffffffffff163373ffffffffffffffffffffffffffffffffffffffff1614610cc2576040517f08c379a0000000000000000000000000000000000000000000000000000000008152600401610cb990611410565b60405180910390fd5b816001806003811115610cd857610cd7611181565b5b6003600084815260200190815260200160002060040160009054906101000a900460ff166003811115610d0e57610d0d611181565b5b14610d4e576040517f08c379a0000000000000000000000000000000000000000000000000000000008152600401610d459061147c565b60405180910390fd5b6000600360008681526020019081526020016000206040518060a00160405290816000820160009054906101000a900473ffffffffffffffffffffffffffffffffffffffff1673ffffffffffffffffffffffffffffffffffffffff1673ffffffffffffffffffffffffffffffffffffffff1681526020016001820160009054906101000a900473ffffffffffffffffffffffffffffffffffffffff1673ffffffffffffffffffffffffffffffffffffffff1673ffffffffffffffffffffffffffffffffffffffff16815260200160028201548152602001600382015481526020016004820160009054906101000a900460ff166003811115610e5357610e52611181565b5b6003811115610e6557610e64611181565b5b815250509050806020015173ffffffffffffffffffffffffffffffffffffffff166108fc82604001519081150290604051600060405180830381858888f19350505050158015610eb9573d6000803e3d6000fd5b50600381608001906003811115610ed357610ed2611181565b5b90816003811115610ee757610ee6611181565b5b81525050806003600087815260200190815260200160002060008201518160000160006101000a81548173ffffffffffffffffffffffffffffffffffffffff021916908373ffffffffffffffffffffffffffffffffffffffff16021790555060208201518160010160006101000a81548173ffffffffffffffffffffffffffffffffffffffff021916908373ffffffffffffffffffffffffffffffffffffffff160217905550604082015181600201556060820151816003015560808201518160040160006101000a81548160ff02191690836003811115610fcc57610fcb611181565b5b02179055509050507fe30b4047fe3f241feaa6f773d660f129072aaf8b1fb1ef2d6c19131ff475b773856040516110039190611116565b60405180910390a15050505050565b600060036000838152602001908152602001600020600201549050919050565b6040518060a00160405280600073ffffffffffffffffffffffffffffffffffffffff168152602001600073ffffffffffffffffffffffffffffffffffffffff16815260200160008152602001600081526020016000600381111561109957611098611181565b5b81525090565b600080fd5b6000819050919050565b6110b7816110a4565b81146110c257600080fd5b50565b6000813590506110d4816110ae565b92915050565b6000602082840312156110f0576110ef61109f565b5b60006110fe848285016110c5565b91505092915050565b611110816110a4565b82525050565b600060208201905061112b6000830184611107565b92915050565b600073ffffffffffffffffffffffffffffffffffffffff82169050919050565b600061115c82611131565b9050919050565b61116c81611151565b82525050565b61117b816110a4565b82525050565b7f4e487b7100000000000000000000000000000000000000000000000000000000600052602160045260246000fd5b600481106111c1576111c0611181565b5b50565b60008190506111d2826111b0565b919050565b60006111e2826111c4565b9050919050565b6111f2816111d7565b82525050565b60a08201600082015161120e6000850182611163565b5060208201516112216020850182611163565b5060408201516112346040850182611172565b5060608201516112476060850182611172565b50608082015161125a60808501826111e9565b50505050565b600060a08201905061127560008301846111f8565b92915050565b600080604083850312156112925761129161109f565b5b60006112a0858286016110c5565b92505060206112b1858286016110c5565b9150509250929050565b6112c4816111d7565b82525050565b60006020820190506112df60008301846112bb565b92915050565b60006112f082611131565b9050919050565b611300816112e5565b82525050565b600060208201905061131b60008301846112f7565b92915050565b61132a81611151565b811461133557600080fd5b50565b60008135905061134781611321565b92915050565b600080604083850312156113645761136361109f565b5b600061137285828601611338565b9250506020611383858286016110c5565b9150509250929050565b600082825260208201905092915050565b7f6f6e6c7920746865206f776e65722063616e2063616c6c20746869732066756e60008201527f6374696f6e000000000000000000000000000000000000000000000000000000602082015250565b60006113fa60258361138d565b91506114058261139e565b604082019050919050565b60006020820190508181036000830152611429816113ed565b9050919050565b7f746865206f72646572206861736e2774207468652076616c6964207374617465600082015250565b600061146660208361138d565b915061147182611430565b602082019050919050565b6000602082019050818103600083015261149581611459565b9050919050565b7f496e76616c696420756e6c6f636b20636f646500000000000000000000000000600082015250565b60006114d260138361138d565b91506114dd8261149c565b602082019050919050565b60006020820190508181036000830152611501816114c5565b9050919050565b7f7468652073656c6c657220616e642062757965722063616e277420626520657160008201527f75616c0000000000000000000000000000000000000000000000000000000000602082015250565b600061156460238361138d565b915061156f82611508565b604082019050919050565b6000602082019050818103600083015261159381611557565b9050919050565b7f696e73756666696369656e742066756e64730000000000000000000000000000600082015250565b60006115d060128361138d565b91506115db8261159a565b602082019050919050565b600060208201905081810360008301526115ff816115c3565b9050919050565b7f496e73756666696369656e7420636f696e2076616c7565000000000000000000600082015250565b600061163c60178361138d565b915061164782611606565b602082019050919050565b6000602082019050818103600083015261166b8161162f565b9050919050565b7f6f7264657220616d6f756e7420697320696e76616c6964000000000000000000600082015250565b60006116a860178361138d565b91506116b382611672565b602082019050919050565b600060208201905081810360008301526116d78161169b565b9050919050565b7f4e487b7100000000000000000000000000000000000000000000000000000000600052601160045260246000fd5b6000611718826110a4565b91507fffffffffffffffffffffffffffffffffffffffffffffffffffffffffffffffff82141561174b5761174a6116de565b5b600182019050919050565b61175f81611151565b82525050565b600060c08201905061177a6000830189611107565b6117876020830188611756565b6117946040830187611756565b6117a16060830186611107565b6117ae6080830185611107565b6117bb60a08301846112bb565b97965050505050505056fea26469706673582212206cc38e0a58069a33272a419437bcc36bf44e7df8316399dcc6fd64b69e81c6e664736f6c634300080a0033",
  "immutableReferences": {},
  "source": "// SPDX-License-Identifier: GPL-3.0\n// define which compiler to use\n// VERSION = 1.0.0\npragma solidity >=0.7.0 <0.9.0;\n\nimport \"@openzeppelin/contracts/token/ERC721/ERC721.sol\";\n \ncontract SinglePayment {\n\n    enum OrderState {Created, Filled, Closed, Canceled}\n\n    struct Order {\n        address payable sellerAddress;\n        address payable ownerAddress;\n        uint amount;\n        uint unlockCode;\n        OrderState state;\n    }\n\n    // mapping for searching optimization\n    mapping (address => uint[]) private buyerOrders;\n    mapping (address => uint[]) private sellerOrders;\n    // mapping for orders\n    uint private orderCount = 0;\n    mapping (uint => Order) private orders;\n\n    /// only the owner of the contract can call this function\n    error OnlyOwner();\n    /// only the seller can call this function\n    error OnlySeller();\n    /// The function cannot be called at the current state.\n    error InvalidState();\n\n    /**************************************\n     *             MODIFIER\n     *************************************/\n\n    modifier onlyOwner(uint id) {\n        require(\n            msg.sender == orders[id].ownerAddress, \n            \"only the owner can call this function\"\n        );\n        _;\n    }\n\n    modifier onlySeller(uint id) {\n        require(\n            msg.sender == orders[id].sellerAddress, \n            \"only the seller can call this function\"\n        );\n        _;\n    }\n\n    modifier inState(uint id, OrderState state_) {\n        require(\n            orders[id].state == state_, \n            \"the order hasn't the valid state\"\n        );\n        _;\n    }\n\n    modifier condition(bool condition_) {\n        require(condition_, \"insufficient funds\");\n        _;\n    }\n\n    modifier enoughFunds(address wallet, uint amountToPay) {\n        require(\n            wallet.balance >= amountToPay,\n            \"insufficient funds\"\n        );\n        _;\n    }\n\n    modifier notItself(address addr1, address addr2) {\n        require(\n            addr1 != addr2,\n            \"the seller and buyer can't be equal\"\n        );\n        _;\n    }\n\n    /**************************************\n     *              EVENTS\n     *************************************/\n    event Aborted();\n\n    event OrderCreated (\n        uint id\n    );\n\n    event OrderConfirmed(\n        uint id,\n        address payable sellerAddress,\n        address payable ownerAddress,\n        uint amount,\n        uint unlockCode,\n        OrderState state\n    );\n\n    event ItemReceived(\n        uint id\n    );\n\n    event OwnerRefunded(\n        uint id\n    );\n\n    /**************************************\n     *             FUNCTIONS\n     *************************************/\n\n    /// Create new order with data\n    // This will set the order as created and ready to receive coins\n    /*\n    function createNewOrder(address payable _seller, address payable _buyer, uint _amount)\n        external\n    {\n        orderCount++;\n        orders[orderCount] = Order(_seller, _buyer, _amount, 0, OrderState.Created);\n\n        // link the order\n        buyerOrders[_buyer].push(orderCount);\n        sellerOrders[_seller].push(orderCount);\n\n        emit OrderCreated(orderCount);\n    }\n    */\n\n    /// Confirm the purchase as buyer.\n    /// The ether will be locked until confirmReceived\n    /// is called.\n    function newOrder(address payable _seller, uint _amount)\n        external\n        payable\n        notItself(_seller, msg.sender)\n        enoughFunds(msg.sender, _amount)\n    {\n        require(\n            msg.value >= _amount,\n            \"Insufficient coin value\"\n        );\n        require(\n            _amount > 0,\n            \"order amount is invalid\"\n        );\n        orderCount++;\n        orders[orderCount] = Order(_seller, payable(msg.sender), _amount, block.number, OrderState.Filled);\n        // overwrite it\n        emit OrderConfirmed(orderCount, _seller, payable(msg.sender), _amount, block.number, OrderState.Filled);\n    }\n\n    /// Confirm that the smart contract's owner received the item.\n    /// This will release the locked ether.\n    function confirmReceived(uint id, uint _unlockCode)\n        external\n        onlyOwner(id)\n        inState(id, OrderState.Filled)\n    {\n        Order memory currentOrder = orders[id];\n        require(\n            _unlockCode == currentOrder.unlockCode,\n            \"Invalid unlock code\"\n        );\n\n        currentOrder.sellerAddress.transfer(currentOrder.amount);\n        currentOrder.state = OrderState.Closed;\n\n        // overwrite it\n        orders[id] = currentOrder;\n        emit ItemReceived(id);\n    }\n\n    /// Refound owner if he decided to cancel the order before\n    /// the Closed state (before unlock)\n    function refundOwner(uint id)\n        external\n        onlyOwner(id)\n        inState(id, OrderState.Filled)\n    {\n        Order memory currentOrder = orders[id];\n        currentOrder.ownerAddress.transfer(currentOrder.amount);\n        // It is important to change the state first because\n        // otherwise, the contracts called using `send` below\n        // can call in again here.\n        currentOrder.state = OrderState.Canceled;\n        \n        // overwrite\n        orders[id] = currentOrder;\n        emit OwnerRefunded(id);\n    }\n\n    /**************************************\n     *             GETTER\n     *************************************/\n\n    function getOrderCount() external view returns(uint) {\n        return orderCount;\n    }\n\n    function contractBalance() external view returns(uint) {\n        return address(this).balance;\n    }\n\n    function getOwnerAddress(uint id) external view returns(address) {\n        return orders[id].ownerAddress;\n    }\n\n    function getSellerAddress(uint id) external view returns(address) {\n        return orders[id].sellerAddress;\n    }\n\n    function getAmountToPay(uint id) external view returns(uint) {\n        return orders[id].amount;\n    }\n\n    function getOrderState(uint id) external view returns(OrderState) {\n        return orders[id].state;\n    }\n\n    function getUnlockCode(uint id) external view returns(uint) {\n        return orders[id].unlockCode;\n    }\n\n    function getOrderById(uint id) external view returns(Order memory) {\n        return orders[id];\n    }\n\n\n    // we have to write a refund from seller too????\n}\n\n// Helper functions are defined outside of a contract\n",
  "sourcePath": "/home/matteo/Desktop/projects-workspace/swe-project/shopchain_contract/contracts/SinglePayment.sol",
  "compiler": {
    "name": "solc",
    "version": "0.8.10+commit.fc410830.Emscripten.clang"
  },
  "schemaVersion": "3.4.4",
  "updatedAt": "2022-02-07T16:02:01.348Z",
  "devdoc": {
    "kind": "dev",
    "methods": {},
    "version": 1
  },
  "userdoc": {
    "errors": {
      "InvalidState()": [
        {
          "notice": "The function cannot be called at the current state."
        }
      ],
      "OnlyOwner()": [
        {
          "notice": "only the owner of the contract can call this function"
        }
      ],
      "OnlySeller()": [
        {
          "notice": "only the seller can call this function"
        }
      ]
    },
    "kind": "user",
    "methods": {
      "confirmReceived(uint256,uint256)": {
        "notice": "Confirm that the smart contract's owner received the item. This will release the locked ether."
      },
      "newOrder(address,uint256)": {
        "notice": "Confirm the purchase as buyer. The ether will be locked until confirmReceived is called."
      },
      "refundOwner(uint256)": {
        "notice": "Refound owner if he decided to cancel the order before the Closed state (before unlock)"
      }
    },
    "version": 1
  }
}