{
  "contractName": "vecchio",
  "abi": [
    {
      "inputs": [
        {
          "internalType": "address payable",
          "name": "_sellerAddress",
          "type": "address"
        },
        {
          "internalType": "uint256",
          "name": "_amount",
          "type": "uint256"
        }
      ],
      "stateMutability": "payable",
      "type": "constructor"
    },
    {
      "inputs": [],
      "name": "InvalidState",
      "type": "error"
    },
    {
      "inputs": [],
      "name": "OnlyOwner",
      "type": "error"
    },
    {
      "inputs": [],
      "name": "OnlySeller",
      "type": "error"
    },
    {
      "anonymous": false,
      "inputs": [],
      "name": "Aborted",
      "type": "event"
    },
    {
      "anonymous": false,
      "inputs": [],
      "name": "ItemReceived",
      "type": "event"
    },
    {
      "anonymous": false,
      "inputs": [],
      "name": "OwnerRefunded",
      "type": "event"
    },
    {
      "anonymous": false,
      "inputs": [],
      "name": "PurchaseConfirmed",
      "type": "event"
    },
    {
      "inputs": [],
      "name": "abort",
      "outputs": [],
      "stateMutability": "nonpayable",
      "type": "function"
    },
    {
      "inputs": [],
      "name": "confirmPurchase",
      "outputs": [],
      "stateMutability": "payable",
      "type": "function"
    },
    {
      "inputs": [
        {
          "internalType": "uint256",
          "name": "_unlockCode",
          "type": "uint256"
        }
      ],
      "name": "confirmReceived",
      "outputs": [],
      "stateMutability": "nonpayable",
      "type": "function"
    },
    {
      "inputs": [],
      "name": "refundOwner",
      "outputs": [],
      "stateMutability": "nonpayable",
      "type": "function"
    },
    {
      "inputs": [],
      "name": "balanceOf",
      "outputs": [
        {
          "internalType": "uint256",
          "name": "",
          "type": "uint256"
        }
      ],
      "stateMutability": "view",
      "type": "function"
    },
    {
      "inputs": [],
      "name": "getOwnerAddress",
      "outputs": [
        {
          "internalType": "address",
          "name": "",
          "type": "address"
        }
      ],
      "stateMutability": "view",
      "type": "function"
    },
    {
      "inputs": [],
      "name": "getSellerAddress",
      "outputs": [
        {
          "internalType": "address",
          "name": "",
          "type": "address"
        }
      ],
      "stateMutability": "view",
      "type": "function"
    },
    {
      "inputs": [],
      "name": "getAmountToPay",
      "outputs": [
        {
          "internalType": "uint256",
          "name": "",
          "type": "uint256"
        }
      ],
      "stateMutability": "view",
      "type": "function"
    },
    {
      "inputs": [],
      "name": "getContractState",
      "outputs": [
        {
          "internalType": "enum vecchio.ContractState",
          "name": "",
          "type": "uint8"
        }
      ],
      "stateMutability": "view",
      "type": "function"
    },
    {
      "inputs": [],
      "name": "getUnlockCode",
      "outputs": [
        {
          "internalType": "uint256",
          "name": "",
          "type": "uint256"
        }
      ],
      "stateMutability": "view",
      "type": "function"
    }
  ],
  "bytecode": "0x608060405260405162000c6238038062000c6283398181016040528101906200002991906200018c565b33600160006101000a81548173ffffffffffffffffffffffffffffffffffffffff021916908373ffffffffffffffffffffffffffffffffffffffff160217905550816000806101000a81548173ffffffffffffffffffffffffffffffffffffffff021916908373ffffffffffffffffffffffffffffffffffffffff160217905550806002819055506000600460006101000a81548160ff02191690836003811115620000da57620000d9620001d3565b5b0217905550505062000202565b600080fd5b600073ffffffffffffffffffffffffffffffffffffffff82169050919050565b60006200011982620000ec565b9050919050565b6200012b816200010c565b81146200013757600080fd5b50565b6000815190506200014b8162000120565b92915050565b6000819050919050565b620001668162000151565b81146200017257600080fd5b50565b60008151905062000186816200015b565b92915050565b60008060408385031215620001a657620001a5620000e7565b5b6000620001b6858286016200013a565b9250506020620001c98582860162000175565b9150509250929050565b7f4e487b7100000000000000000000000000000000000000000000000000000000600052602160045260246000fd5b610a5080620002126000396000f3fe6080604052600436106100915760003560e01c80637f4e4849116100595780637f4e48491461015757806384b09e86146101825780638c47ddcc146101ad5780639de111b0146101c4578063d6960697146101ef57610091565b80630c4f65bd1461009657806327dac36d146100c157806335a063b4146100ea578063447f964814610101578063722713f71461012c575b600080fd5b3480156100a257600080fd5b506100ab6101f9565b6040516100b891906108db565b60405180910390f35b3480156100cd57600080fd5b506100e860048036038101906100e39190610931565b610223565b005b3480156100f657600080fd5b506100ff6103ec565b005b34801561010d57600080fd5b506101166105a4565b604051610123919061096d565b60405180910390f35b34801561013857600080fd5b506101416105ae565b60405161014e919061096d565b60405180910390f35b34801561016357600080fd5b5061016c6105b6565b60405161017991906109ff565b60405180910390f35b34801561018e57600080fd5b506101976105cd565b6040516101a491906108db565b60405180910390f35b3480156101b957600080fd5b506101c26105f6565b005b3480156101d057600080fd5b506101d96107b0565b6040516101e6919061096d565b60405180910390f35b6101f76107ba565b005b6000600160009054906101000a900473ffffffffffffffffffffffffffffffffffffffff16905090565b600160009054906101000a900473ffffffffffffffffffffffffffffffffffffffff1673ffffffffffffffffffffffffffffffffffffffff163373ffffffffffffffffffffffffffffffffffffffff16146102aa576040517f5fc483c500000000000000000000000000000000000000000000000000000000815260040160405180910390fd5b60018060038111156102bf576102be610988565b5b600460009054906101000a900460ff1660038111156102e1576102e0610988565b5b14610318576040517fbaf3f0f700000000000000000000000000000000000000000000000000000000815260040160405180910390fd5b60035482148061032757600080fd5b60008054906101000a900473ffffffffffffffffffffffffffffffffffffffff1673ffffffffffffffffffffffffffffffffffffffff166108fc6002549081150290604051600060405180830381858888f1935050505015801561038f573d6000803e3d6000fd5b507fe89152acd703c9d8c7d28829d443260b411454d45394e7995815140c8cbcbcf760405160405180910390a16002600460006101000a81548160ff021916908360038111156103e2576103e1610988565b5b0217905550505050565b600160009054906101000a900473ffffffffffffffffffffffffffffffffffffffff1673ffffffffffffffffffffffffffffffffffffffff163373ffffffffffffffffffffffffffffffffffffffff1614610473576040517f5fc483c500000000000000000000000000000000000000000000000000000000815260040160405180910390fd5b600080600381111561048857610487610988565b5b600460009054906101000a900460ff1660038111156104aa576104a9610988565b5b146104e1576040517fbaf3f0f700000000000000000000000000000000000000000000000000000000815260040160405180910390fd5b7f72c874aeff0b183a56e2b79c71b46e1aed4dee5e09862134b8821ba2fddbf8bf60405160405180910390a16003600460006101000a81548160ff0219169083600381111561053357610532610988565b5b0217905550600160009054906101000a900473ffffffffffffffffffffffffffffffffffffffff1673ffffffffffffffffffffffffffffffffffffffff166108fc479081150290604051600060405180830381858888f193505050501580156105a0573d6000803e3d6000fd5b5050565b6000600354905090565b600047905090565b6000600460009054906101000a900460ff16905090565b60008060009054906101000a900473ffffffffffffffffffffffffffffffffffffffff16905090565b600160009054906101000a900473ffffffffffffffffffffffffffffffffffffffff1673ffffffffffffffffffffffffffffffffffffffff163373ffffffffffffffffffffffffffffffffffffffff161461067d576040517f5fc483c500000000000000000000000000000000000000000000000000000000815260040160405180910390fd5b600180600381111561069257610691610988565b5b600460009054906101000a900460ff1660038111156106b4576106b3610988565b5b146106eb576040517fbaf3f0f700000000000000000000000000000000000000000000000000000000815260040160405180910390fd5b600160009054906101000a900473ffffffffffffffffffffffffffffffffffffffff1673ffffffffffffffffffffffffffffffffffffffff166108fc6002549081150290604051600060405180830381858888f19350505050158015610755573d6000803e3d6000fd5b507ff32fba586068b9a4ce3fc1eadeff0d08b9996db21f578389dca195a4f7c7a4ff60405160405180910390a16003600460006101000a81548160ff021916908360038111156107a8576107a7610988565b5b021790555050565b6000600254905090565b60008060038111156107cf576107ce610988565b5b600460009054906101000a900460ff1660038111156107f1576107f0610988565b5b14610828576040517fbaf3f0f700000000000000000000000000000000000000000000000000000000815260040160405180910390fd5b6002543410158061083857600080fd5b7fd5d55c8a68912e9a110618df8d5e2e83b8d83211c57a8ddd1203df92885dc88160405160405180910390a1436003819055506001600460006101000a81548160ff0219169083600381111561089157610890610988565b5b02179055505050565b600073ffffffffffffffffffffffffffffffffffffffff82169050919050565b60006108c58261089a565b9050919050565b6108d5816108ba565b82525050565b60006020820190506108f060008301846108cc565b92915050565b600080fd5b6000819050919050565b61090e816108fb565b811461091957600080fd5b50565b60008135905061092b81610905565b92915050565b600060208284031215610947576109466108f6565b5b60006109558482850161091c565b91505092915050565b610967816108fb565b82525050565b6000602082019050610982600083018461095e565b92915050565b7f4e487b7100000000000000000000000000000000000000000000000000000000600052602160045260246000fd5b600481106109c8576109c7610988565b5b50565b60008190506109d9826109b7565b919050565b60006109e9826109cb565b9050919050565b6109f9816109de565b82525050565b6000602082019050610a1460008301846109f0565b9291505056fea2646970667358221220377b7b3a25330d97286be5c2a1557b6efc0e84a20420b9046dc7f81e958c0ce164736f6c634300080a0033",
  "immutableReferences": {},
  "source": "// SPDX-License-Identifier: GPL-3.0\n// define which compiler to use\n// VERSION = 1.0.0\npragma solidity >=0.7.0 <0.9.0;\n \ncontract vecchio {\n    \n    address payable private sellerAddress;\n    address payable private contractOwnerAddress;\n    uint private amount;\n    uint private unlockCode;\n\n    enum ContractState {Created, Filled, Closed, Canceled}\n\n    ContractState private state;\n\n    /// only the owner of the contract can call this function\n    error OnlyOwner();\n    /// only the seller can call this function\n    error OnlySeller();\n    /// The function cannot be called at the current state.\n    error InvalidState();\n\n    modifier onlyOwner() {\n        if (msg.sender != contractOwnerAddress)\n            revert OnlyOwner();\n        _;\n    }\n\n    modifier onlySeller() {\n        if (msg.sender != sellerAddress)\n            revert OnlySeller();\n        _;\n    }\n\n    modifier inState(ContractState state_) {\n        if (state != state_)\n            revert InvalidState();\n        _;\n    }\n\n    modifier condition(bool condition_) {\n        require(condition_);\n        _;\n    }\n\n    /**************************************\n     *              EVENTS\n     *************************************/\n    event Aborted();\n    event PurchaseConfirmed();\n    event ItemReceived();\n    event OwnerRefunded();\n\n    /**************************************\n     *             FUNCTIONS\n     *************************************/\n\n    constructor(address payable _sellerAddress, uint _amount) payable {\n        contractOwnerAddress = payable(msg.sender);\n        sellerAddress = _sellerAddress;\n        amount = _amount;\n        state = ContractState.Created;\n    }\n\n    /// Abort the purchase and reclaim the ether (timer/dashboard)\n    /// Can only be called by the smart contract owner before\n    /// the contract is filled.\n    function abort()\n        external\n        onlyOwner\n        inState(ContractState.Created)\n    {\n        emit Aborted();\n        state = ContractState.Canceled;\n        // We use transfer here directly. It is\n        // reentrancy-safe, because it is the\n        // last call in this function and we\n        // already changed the state.\n        contractOwnerAddress.transfer(address(this).balance);\n    }\n\n    /// Confirm the purchase as buyer.\n    /// Transaction has to include `2 * value` ether.\n    /// The ether will be locked until confirmReceived\n    /// is called.\n    function confirmPurchase()\n        external\n        inState(ContractState.Created)\n        condition(msg.value >= amount)\n        payable\n    {\n        //address(this).transfer(msg.value);        // this transfer is implicit\n        emit PurchaseConfirmed();\n        unlockCode = block.number;\n        state = ContractState.Filled;\n    }\n\n    /// Confirm that the smart contract's owner received the item.\n    /// This will release the locked ether.\n    function confirmReceived(uint _unlockCode)\n        external\n        onlyOwner\n        inState(ContractState.Filled)\n        condition(_unlockCode == unlockCode)\n    {\n        sellerAddress.transfer(amount);\n        emit ItemReceived();\n        // It is important to change the state first because\n        // otherwise, the contracts called using `send` below\n        // can call in again here.\n        state = ContractState.Closed;\n    }\n\n    /// This function refunds the seller, i.e.\n    /// pays back the locked funds of the seller.\n    function refundOwner()\n        external\n        onlyOwner\n        inState(ContractState.Filled)\n    {\n        contractOwnerAddress.transfer(amount);\n        emit OwnerRefunded();\n        // It is important to change the state first because\n        // otherwise, the contracts called using `send` below\n        // can call in again here.\n        state = ContractState.Canceled;\n    }\n\n    /**************************************\n     *             UTILITY\n     *************************************/\n    /*\n    function stringCompare (string memory str1, string memory str2) internal pure returns(bool) {\n        return keccak256(abi.encodePacked(str1)) == keccak256(abi.encodePacked(str2));\n    }\n    */\n\n\n    /**************************************\n     *             GETTER\n     *************************************/\n\n    function balanceOf() external view returns(uint) {\n        return address(this).balance;\n    }\n\n    function getOwnerAddress() external view returns(address) {\n        return contractOwnerAddress;\n    }\n\n    function getSellerAddress() external view returns(address) {\n        return sellerAddress;\n    }\n\n    function getAmountToPay() external view returns(uint) {\n        return amount;\n    }\n\n    function getContractState() external view returns(ContractState) {\n        return state;\n    }\n\n    function getUnlockCode() external view returns(uint) {\n        return unlockCode;\n    }\n\n    /*\n    event UnlockContract (\n        uint date,\n        address to,\n        uint amount\n    );\n\n    function setParameters(address payable _sellerAddress, uint _amount) public {\n        sellerAddress = _sellerAddress;\n        amount = _amount;\n    }\n\n    function getSellerAddress() public view returns (address) {\n        return sellerAddress;\n    }\n\n    function getAmount() public view returns (uint) {\n        return amount;\n    }\n\n    function sendToContract() public payable {\n        //address(this).transfer(msg.value);  // msg.sender is implicity\n    }\n\n    function unlockToSeller(string memory unlockCode) external {\n        require(\n            keccak256(abi.encodePacked(unlockCode)) == keccak256(abi.encodePacked(\"12345\")),\n            \"Wrong unlock code\"\n        );\n\n        sellerAddress.transfer(amount);\n        emit UnlockContract(block.timestamp, sellerAddress, amount);\n    }\n\n    */\n\n}\n\n// Helper functions are defined outside of a contract\n",
  "sourcePath": "/home/matteo/Desktop/projects-workspace/swe-project/shopchain_contract/contracts/vecchio.sol",
  "compiler": {
    "name": "solc",
    "version": "0.8.10+commit.fc410830.Emscripten.clang"
  },
  "schemaVersion": "3.4.4",
  "updatedAt": "2022-02-03T17:39:48.884Z",
  "devdoc": {
    "kind": "dev",
    "methods": {},
    "version": 1
  },
  "userdoc": {
    "errors": {
      "InvalidState()": [
        {
          "notice": "The function cannot be called at the current state."
        }
      ],
      "OnlyOwner()": [
        {
          "notice": "only the owner of the contract can call this function"
        }
      ],
      "OnlySeller()": [
        {
          "notice": "only the seller can call this function"
        }
      ]
    },
    "kind": "user",
    "methods": {
      "abort()": {
        "notice": "Abort the purchase and reclaim the ether (timer/dashboard) Can only be called by the smart contract owner before the contract is filled."
      },
      "confirmPurchase()": {
        "notice": "Confirm the purchase as buyer. Transaction has to include `2 * value` ether. The ether will be locked until confirmReceived is called."
      },
      "confirmReceived(uint256)": {
        "notice": "Confirm that the smart contract's owner received the item. This will release the locked ether."
      },
      "refundOwner()": {
        "notice": "This function refunds the seller, i.e. pays back the locked funds of the seller."
      }
    },
    "version": 1
  }
}